:020000040800F2
:10400000107A01206D430008F9ED000859DF00081F
:1040100065ED0008D1620008A31801080000000047
:10402000000000000000000000000000C5F30008D0
:10403000E37000080000000055F20008D1F300080A
:104040008743000887430008874300088743000828
:104050008743000887430008874300088743000818
:104060008743000887430008874300081D70000845
:10407000297000083570000887430008874300084E
:104080008743000887430008F16100088743000860
:104090002518010887430008874300088743000864
:1040A00087430008874300088743000887430008C8
:1040B000C5F50008D1F500088743000887430008CC
:1040C00087430008874300088743000887430008A8
:1040D00087430008874300088743000875010108EB
:1040E0008743000887430008874300088743000888
:1040F0008743000887430008874300088743000878
:104100008743000887430008874300088743000867
:104110008743000887430008874300088743000857
:104120008743000887430008874300088743000847
:104130008743000887430008874300088743000837
:10414000874300088743000887430008D9D8000840
:104150008743000887430008874300088743000817
:104160008743000887430008874300088743000807
:1041700087430008874300088743000887430008F7
:1041800087430008874300088743000887430008E7
:104190008743000800000000CD7500088743000831
:1041A00087430008874300088743000887430008C7
:1041B00087430008874300088743000887430008B7
:1041C00087430008874300088743000887430008A7
:1041D000874300088743000800F002F800F0B6F8B3
:1041E0000AA090E8000C82448344AAF10107DA4552
:1041F00001D100F0ABF8AFF2090EBAE80F0013F0EE
:10420000010F18BFFB1A43F001031847983801004B
:10421000B83801000A444FF0000C10F8013B13F0CD
:10422000070408BF10F8014B1D1108BF10F8015B0F
:10423000641E05D010F8016B641E01F8016BF9D102
:1042400013F0080F1EBF10F8014BAD1C0C1B09D159
:104250006D1E58BF01F801CBFAD505E014F8016BCB
:1042600001F8016B6D1EF9D59142D6D3704700005D
:104270000023002400250026103A28BF78C1FBD86F
:10428000520728BF30C148BF0B6070476E2900F04D
:104290001383702900F05D84662912F0CE856529AC
:1042A00012F0CB85672912F0C885612912F0C78505
:1042B00003681B0A28BF41F08001692900F0C08211
:1042C000642900F0BD82752900F0BA826F2900F0E0
:1042D000EA83782900F02984E92900F08583E4291C
:1042E00000F08283F52900F07F83EF2900F0E78357
:1042F000F82900F028840368DB0928BF41F0800119
:10430000632901F04D81732901F05281E32901F005
:104310005D81F32901F06281002070471FB512F022
:1043200008FD9DE8030000F0E7F901F0B1F9040091
:104330000020002111F076FE401C6060002000216A
:1043400011F05AFEE0601FBD10B510BD01F072F90A
:104350001146FFF7E3FF0FF049FA01F04FFA03B4FB
:10436000FFF7F2FF03BC01F07FFA00000948804725
:1043700009480047FEE7FEE7FEE7FEE7FEE7FEE747
:10438000FEE7FEE7FEE7FEE704480549054A064B5F
:104390007047000049F40008D9410008103B002094
:1043A000107A0120107B0020107B002070B506469B
:1043B00000F086F9056806F10B0020F00704B4420E
:1043C0009CBF002070BD2B466A68BAB11068A0423D
:1043D00010D304F1080188423CBF5068586007D3ED
:1043E0005168101941601168091B01605860146020
:1043F000101D70BD13465268002AE7D12146284699
:1044000000F066F90028DED170BD70B50446051FC6
:1044100000F056F90068002C14BF446870BD002CF1
:1044200018BFAC423CBF20466468F8D301680A1844
:10443000AA4218BF456003D12A68054611440160AD
:1044400028684119A1421CBF6C6070BD6168696039
:1044500021680844286070BD53EA020C00F06980AE
:104460002DE9F04B4FF00006002B1FBFB3FA83F588
:1044700003FA05F424FA05F65E4012BF1643B2FAB9
:1044800082F502FA05F4C5F120051EBF22FA05FCEB
:1044900044EA0C04203556EA044C4FEA144418BF91
:1044A000641C4FF000084FF00009904271EB030CC0
:1044B00039D3002919BFB1FA81F701FA07F6B0FA2A
:1044C00080F700FA07F6C7F120071EBF20FA07FCA5
:1044D00046EA0C062037B6FBF4FCA7EB0507103FB5
:1044E00007F01F0BCBF120060CFA0BFB2CFA06F69B
:1044F00044BFB3460026202FA4BF5E464FF0000BFA
:104500005BEA060C08BF4FF0010B19EB0B09ABFB84
:10451000027C48EB0608C01B06FB02CC0BFB03CC5D
:1045200071EB0C01C1E70B46024641464846BDE827
:10453000F08B13B54FF000004FF00001AFF3008097
:10454000BDE81C40704700007CB51D4616460C00B7
:10455000009001D02044401E074B7B442A46694608
:104560000190304600F0C1F905461CB100206946B3
:1045700000F0CEF928467CBDBD030000032A40F2BE
:10458000308010F0030C00F0158011F8013BBCF1F5
:10459000020F624498BF11F801CB00F8013B38BF0D
:1045A00011F8013BA2F1040298BF00F801CB38BF1B
:1045B00000F8013B11F0030300F02580083AC0F039
:1045C000088051F8043B083A51F804CBA0E80810E1
:1045D000F5E7121D5CBF51F8043B40F8043BAFF314
:1045E0000080D20724BF11F8013B11F801CB48BF6E
:1045F00011F8012B24BF00F8013B00F801CB48BFA4
:1046000000F8012B704710B5203AC0F00B80B1E8DC
:104610001850203AA0E81850B1E81850A0E81850F7
:10462000BFF4F5AF5FEA027C24BFB1E81850A0E800
:10463000185044BF18C918C0BDE810405FEA827C1A
:1046400024BF51F8043B40F8043B08BF7047D20731
:1046500028BF31F8023B48BF11F8012B28BF20F8D2
:10466000023B48BF00F8012B70474FF0000200B535
:10467000134694469646203922BFA0E80C50A0E885
:104680000C50B1F12001BFF4F7AF090728BFA0E833
:104690000C5048BF0CC05DF804EB890028BF40F8FF
:1046A000042B08BF704748BF20F8022B11F0804F41
:1046B00018BF00F8012B7047704770477047000023
:1046C00000487047B83A00207047704770477047FD
:1046D00038B504460A4600206946AFF3008000283A
:1046E00008BF38BD02460099204600F009FB0120B2
:1046F00038BD012000F096BFF8B5AFF30080054645
:1047000000200C46102000BF0646A819A0420DD973
:10471000324669460020AFF30080070008BF00F072
:1047200081FF0098A04218BF0546C419FFF7C8FFD3
:1047300005600746F01D20F007004619284600F0E6
:104740000AF8B44208BFF8BDA21B31463868BDE87C
:10475000F84000F0D5BA00210160C0E901107047AF
:104760001020704710B500F0C7FA006810BD10B5F2
:10477000044600F0C1FA046010BD70B504468569B6
:104780000068C10601D5302600E02026C00707D00A
:1047900070BDD4E9012130469047206A401C206258
:1047A0006D1EF6D570BD70B5044685690078C007EA
:1047B00007D170BDD4E9012120209047206A401C18
:1047C00020626D1EF6D570BD09684A0501D540B25C
:1047D0007047C905FCD500B2704709684A0501D584
:1047E000C0B27047C905FCD580B2704770B50C46A1
:1047F0000546012A05D02878800600D5EA690023FD
:1048000002E0012305E05B1C934202D2E05C002839
:10481000F9D1A869E618C01AA861286A1844286264
:104820002846FFF7AAFF04E0D5E9012114F8010B9F
:104830009047B442F8D32846FFF7B5FF70BD00009B
:104840002DE9F0410646002410687529314616A569
:1048500010D0FFF7B9FF002802DA404213A507E0A5
:1048600031688A0701D512A502E0490704D511A5D0
:10487000012401E0FFF7B1FF00210A2206F124071D
:1048800009E0B0FBF2FCB0FBF2F302FB1C0030309D
:1048900078541846491C0028F3D123462A4630464E
:1048A000BDE8F04100F08BBA000000002D000000D0
:1048B0002B0000002000000011680268006A530508
:1048C00001D508700AE0D30501D5088006E013067B
:1048D00003D5C217C1E9000200E00860012070475B
:1048E00001694A1C02610878704700B58FB0CDE9B4
:1048F00001310021059105497944CDE903101146A4
:10490000684600F031F90FB000BD0000E5FFFFFF81
:104910000A6802F8010B0A607047D1E900239A4245
:1049200002D2531C0B601070704700002DE9FF5F2E
:1049300015468A460446DFF8AC80F8440027D8E9DB
:1049400000103E46CDE9001010E03AF816106A4615
:1049500002A800F047FE411C07D02178890603D544
:10496000E269391891420DD80744761C20788006F8
:1049700002D5E069B84205DDAE42E6DB3AF8160042
:104980000028E2D1A069C01BA0612046FFF7F5FE18
:10499000D8E90010CDE90010002017E03AF818100F
:1049A0006A4602A800F01EFEB0F1FF3F81460BD020
:1049B00000250DF1080B05E0D4E901211BF80500E5
:1049C00090476D1C4D45F7D308F10100B042804679
:1049D000E4DB206A384420622046FFF7E4FEBDE8AD
:1049E000FF9F0000D22601002DE9F0418046D21D34
:1049F00022F007020025D2E90002F52915A614D0FD
:104A0000011E72F1000106DA0023D0EB030063EB14
:104A1000020211A608E0D8F800108B0701D50FA6F6
:104A200002E0490701D50EA601251146002408F130
:104A3000240704E000F07EF930323A55641C50EA55
:104A40000102F7D12B46324621464046BDE8F041EF
:104A500000F0B5B9000000002D0000002B000000A0
:104A60002000000030B4002100F1240408E002F02E
:104A70000705D208303542EA4372DB086554491C09
:104A800052EA0305F3D10468002310A2250707D5D5
:104A9000A40600D421B1C46901230DA2641EC4611F
:104AA00030BC00F08CB910B5044621461068FFF701
:104AB00094FE02462046BDE810400023D2E7D21DF6
:104AC00022F00701D1E90023CCE70000000000003C
:104AD00030000000F0B40D460188090502D5214CD4
:104AE0007C4402E01F4C7C440E34002100F124067B
:104AF00008E002F00F071209E75D42EA03721B09A2
:104B00007754491C52EA0307F3D1027800231207B5
:104B100004D5702D06D009B1022311342246F0BC11
:104B200000F04DB901231034F8E770B504460D4686
:104B300021461068FFF751FE024629462046BDE88F
:104B400070400023C6E7D21D22F00703D3E90023FB
:104B5000C0E70368126843F0200303600823C361C1
:104B60000023B7E7342501002DE9F05F89460446AC
:104B70004FF0000ADFF874B1FB44C0F820A02046D3
:104B8000E1688847002874D0252806D0D4E901219F
:104B90009047206A401C2062F1E700265F462046CD
:104BA000E16888472028054607DB312D05D27819B2
:104BB00010F8200C08B10643F1E7B00701D526F044
:104BC0000406C4F81CA00027C4F818A02A2D09D098
:104BD00028460EF067FA38B304EB8708303DC8F872
:104BE000185019E059F8041B204604EB8702916124
:104BF000E1688847012F054618D1E069002820DACE
:104C000026F020061DE0D8F8180000EB800005EB28
:104C100040003038C8F818002046E168884705464B
:104C20000EF040FA0028EED1012F0AD02E2D08D127
:104C30002046E16888477F1C0546022F46F0200683
:104C4000C4DBA069002803DA404246F00106A061F7
:104C5000F00701D026F010066C2D0BD0682D09D07E
:104C60004C2D39D06A2D35D0742D35D07A2D33D0D6
:104C700016E038E0E1682F4620468847B8420546EE
:104C800009D16C2F26D04FF48060E168064320469E
:104C90008847054604E06C2F1AD04FF48070064315
:104CA0000DB3A5F14100192802D8203546F400665D
:104CB0004A462946204626604E46FFF7E7FA80B16D
:104CC00001280BD0F61D26F0070000F1080956E771
:104CD0004020E4E78020D8E70020D6E706F1040969
:104CE0004DE7284652E7206ABDE8F09FC424010042
:104CF00000487047B03A002000487047B03A0020A2
:104D0000034640688C46002818BF88423CBF0346D3
:104D10004068F8D318681844884207D00CF10300A3
:104D200020F00700001D411A521A0146081D0A60B2
:104D3000FFF76BBB30B5B0F10A024FEA900E71F18C
:104D400000034EEA817EB0EB0E0061EB91014FEA69
:104D5000101E4EEA017E10EB0E0041EB11114FEADE
:104D6000102E4EEA016E10EB0E0041EB11214FEABE
:104D7000104E4EEA014E10EB0E0041EB114140186F
:104D800041F100014FEAD00040EA41704FEAD10101
:104D900010EB80054FEA810444EA907444EB01046F
:104DA0006D1944EB0404521BA3414FF0000348BFAC
:104DB0000A3200D530BD401C41F1000130BD2DE963
:104DC000F0470D4699469246044600F124080168D2
:104DD000880604D5E06921F01001216000E001207F
:104DE000A84201DD471B00E00027A1697A1902EB08
:104DF0000900081AA0612078C00602D42046FFF7F7
:104E0000BCFC002608E0D4E901211AF8060090470E
:104E1000206A401C761C20624E45F4DB2078C006D8
:104E20000AD52046FFF7A9FC06E0D4E9012130208D
:104E30009047206A401C2062381EA7F10107F4DC6D
:104E400007E0D4E9012118F805009047206A401CCA
:104E50002062281EA5F10105F3DC2046FFF7A3FC24
:104E60002078000602D50220BDE8F0870120FBE78C
:104E700070472DE9FF4F0C461E464FF0FF378BB0B1
:104E8000D2E90001DDF860800A908A46C1F30A5534
:104E900005B93D46002108464FF00000BAF1000F69
:104EA00000F4400005DA00EB80004FF4400101EA15
:104EB00050004FEA9059B9F1010F00DDB9460A9848
:104EC00050EA4A000ED044F61050A5F2FF35454393
:104ED0002F14B8F1000F1ED07542291E1EDDC9F136
:104EE00000021CE0B8F1010F4FF0000001D03021AA
:104EF00003E0F24305E02154401CB042FBDB3046A6
:104F00000022002121540B99C1F80880C1E900203A
:104F10000FB0BDE8F08FBD1B6D1CDEE74A4600DA1E
:104F2000694206A800F0F8FB06AB93E8070003AB64
:104F300083E8070050460A9900F092FD8DE80700CB
:104F4000A0F500501F3800900398002D0ADD42F2B2
:104F50001F014A460844002303A90390684600F055
:104F6000FBFF09E0A0F500504A461F38002303A9C3
:104F70000390684601F005F88DE807000004000C76
:104F800003D04FF0FF30410800E01046B8F1000FA9
:104F900003D00022009215461EE0751E05D4FFF7CF
:104FA000C9FE303262556D1EF9D5B3460122084361
:104FB00002D000227F1C04E02078302801D100229A
:104FC0007F1E002A099784D01DE0112D07DAFFF714
:104FD000B1FE303262556D1C50EA0102F5D1084332
:104FE00002D00098C8B10EE00021681E05E0235CE5
:104FF000625C63542254401E491C8142F7DBAB467D
:10500000A81B401E0990002004F80B000B98099A79
:10501000C0F80880C0E9002B7AE711264FF000089D
:1050200057E72DE9F04F88460446D21D22F00701CC
:1050300091B0D1E90001CDE90A010CF04BFD024627
:105040000B98C00F01D02D2007E02068810701D503
:105050002B2002E0202101EAC000032A099001D0A0
:10506000072A05DB03464146204600F015FB0BE10D
:105070002078800601D5E06900E00620B8F1650FD0
:10508000814606D0B8F1660F18D0B8F1670F70D11D
:1050900031E00020B9F1110F009001DB112301E094
:1050A00009F101030AAA01A90CA8FFF7E2FEDDE954
:1050B0000C70002609F10105834647E001204B46AC
:1050C00000904FF000470AAA01A90CA8FFF7D1FEF3
:1050D000DDE90DB00C995D46002610B909F101001B
:1050E0000D18B9EB050003D4C0F1FF3609F1010535
:1050F000A5EB09002BE0B9F1010F01DA4FF001092E
:105100000020B9F1110F0090484601DD112300E0A5
:1051100003460AAA01A90CA8FFF7ABFEDDE90C7053
:105120004D4600268346207800070AD4AB4500DAB6
:105130005D4601A8012D04DD411911F8011C30293B
:1051400007D04F4502DA17F1040F04DA0120824636
:105150000FE06D1EEEE7002F02DCED1B3E4403E086
:10516000781CA84200DD7D1CB81B00F1010A4FF03D
:1051700000472078000703D4AA4501DB4FF0FF3A2F
:105180000021B7F1004F0DF143088DF8431024D0F2
:1051900002202B23002F01DA7F422D230A21021E39
:1051A000A0F1010000DC5FB197FBF1FC97FBF1F28D
:1051B00001FB1C7C17460CF1300C08F801CDEEE722
:1051C000A8F1010003702188090501D5452100E0FF
:1051D0006521A0F1010800F8011C09980FA9A1EBB5
:1051E0000807FF1D00B10120411901EBEA70A16918
:1051F0003844081A401EA0612078C00602D4204618
:10520000FFF7BBFA099828B1D4E901219047206A39
:10521000401C20622078C00622D52046FFF7ADFA58
:105220001EE0002E04DBB34502DD01A8805D00E036
:105230003020D4E901219047206A401C2062761C6E
:10524000AAF101005FEA000A0AD100F021FAC06861
:105250000168405CD4E901219047206A401C20622B
:10526000281EA5F10105DCDC07E0D4E9012118F8CE
:10527000010B9047206A401C2062381EA7F10107ED
:10528000F3DC2046FFF78FFA032011B041E600005F
:105290002DE9F04F04460D46D21D22F0070089B0DB
:1052A000D0E90097484639460CF014FC0246F80F46
:1052B00001D02D2307E02068810701D52B2302E0D0
:1052C000202101EAC0038DF820300BB1012000E05D
:1052D0000020032A824601D0072A04DB2946204603
:1052E00000F0DAF93FE12078800601D40D2500E0D6
:1052F000E569C7F30A560D2D49DA00214FEA175B1D
:1053000008464FF00000002F00F4400007DA00EBE1
:1053100080004FF4400100EBD07001EA600081157D
:10532000012901DD4FF0FF3100224FEA850CBCF16D
:10533000180F06D31346ACF118004FF08052C2404C
:1053400003E04FF4801323FA0CF30CF10C0CBCF1C6
:10535000200F04D3ACF1200C09FA0CF001E007FA9D
:105360000CF000294FF0004801DD18B90FE00ED114
:1053700040450CD319EB02095F4121B9404502D1E8
:105380009F4329EA0209BBEB175F00D0761C2088F7
:10539000000502D57B48784402E07A487844193801
:1053A00008AA302302F80A30037C0AF10101002E1A
:1053B0000AF1020A53546A4602DC4FF0300101E060
:1053C0004FF031014FF001088DF8001002D0A6F225
:1053D000FF3603E059EA470100D06B4E002D02DC96
:1053E0002178090704D54FF002082E218DF801100D
:1053F000C44600210BE0C7F303433F01C35C491CD3
:105400006D1E02F80830052908F1010801DA002DA7
:10541000F1DC00210CE000EB1973491C1B786D1EB8
:10542000082902F808304FEA091908F1010801DAE1
:10543000002DF0DC21688B0602D516E0A8F10108EA
:10544000E04505DD02EB080313F8013C302BF5D0F5
:10545000B8F1000F09DD02EB080313F8013C2E2B15
:1054600003D1090701D4A8F10108002D05DD3E2173
:1054700002F808106D1E08F10108407C002E02F8A9
:10548000080008F1010804DA2D20764202F808002D
:1054900002E02B2002F808000A214FF47A708642BD
:1054A00008F101080BDB96FBF0F3303302F808300B
:1054B00096FBF0F308F1010800FB136601E0642E8F
:1054C0000CDB642096FBF0F3303302F8083096FBD7
:1054D000F0F308F1010800FB136601E00A2E06DB79
:1054E00096FBF1F0303002F8080008F1010896FB55
:1054F000F1F001FB1060303002F80800A16908F1FA
:10550000010808EB050202EB0A00081AA0612078E6
:10551000C00602D42046FFF730F9216A08AE01EB3D
:105520000A00206204E0D4E9012116F8010B90473B
:10553000BAF1010AF7D22078C00602D52046FFF75B
:105540001CF96E4609E016F8010B3E280FD0D4E98D
:1055500001219047206A401C2062B8F10108F2D274
:105560002046FFF720F909B00320BDE8F08F206A3C
:105570002844206203E0D4E90121302090476D1EC9
:10558000EBD3F8E7191E010002FCFFFF10B54369D9
:1055900013B1AFF3008001E0FFF728F9012010BD3F
:1055A000127800F124010A7000224A700122EDE70E
:1055B00011684FF0FF32E9E710B5436913B1AFF35B
:1055C000008001E0FFF7B2F9012010BD128800F160
:1055D000240182840022C2840122EDE711684FF089
:1055E000FF32E9E770B516460C46054600F048F86C
:1055F000036893F80101012806D0FF2C0FD8185D2D
:1056000068B101202C7070BDD3F8070132462146E5
:1056100003F2071303442846BDE8704018474FF0D3
:10562000FF3070BD10B500F0F7F8BDE8104000F095
:10563000EEB870477546FFF75BFBAE46050069465E
:10564000534620F00700854618B020B5FEF79CFEB3
:10565000BDE820404FF000064FF000074FF0000873
:105660004FF0000B21F00701AC46ACE8C009ACE8F4
:10567000C009ACE8C009ACE8C0098D46704700001D
:1056800010B500F005F8001D10BD00BF990901001C
:1056900000487047D03A00202DE9F0411F460446EB
:1056A00003260168072A01F4006004DB08B116A58F
:1056B00005E016A503E008B115A500E015A521F049
:1056C00010002060A069C01EA0610FB1401EA06143
:1056D0002046FFF752F84FB1D4E9012138469047F0
:1056E000206A401C2062C01C206206E0206AFAE7A3
:1056F000D4E9012115F8010B9047761EF8D2204617
:10570000FFF751F8BDE8F0814E414E006E616E002A
:10571000494E4600696E66002DE9F04781461646FF
:105720008AB0354878440DC88DE80D003248784479
:10573000801C03AC0DC884E80D0041F69B30084482
:10574000372190FBF1F290FBF1F5A5F1800501FB0B
:1057500012041B3C02D56442012000E00020DFF867
:1057600098A080460027FA44AAF1BE0A0EE0E0079E
:105770000AD03246684607EB470101230AEB810154
:1057800000F0FFFB8DE8070064107F1C002CEED1B9
:10579000194F7F44AE3F19E0E80715D007EB04101E
:1057A0000DF1180A90E80E008AE80E00C068F04279
:1057B00001D1981908903246012306A903A800F0E8
:1057C000E0FB03AB83E807006D10641C002DE3D100
:1057D0004FF0010332466946B8F1000F03A802D02A
:1057E00000F0BAFB01E000F0CCFBC9E90001C9F808
:1057F00008200AB0BDE8F0871C1B010010B5044664
:10580000AFF300802046BDE81040FEF7A8BD002899
:1058100001D000F029B8704710B5012805D000214B
:1058200003A000F027F8012010BD09A1F8E700004F
:1058300053494752544D454D3A204F7574206F6679
:105840002068656170206D656D6F727900000000E1
:105850003A2048656170206D656D6F727920636FC5
:10586000727275707465640001491820ABBEFEE762
:105870002600020070B505460C460A2000E06D1CAB
:1058800000F052F835B128780028F8D102E0641C05
:1058900000F04AF814B120780028F8D1BDE8704033
:1058A0000A2000F041B800004FF0013C50F8042BF2
:1058B00051F8043B9A4221D1A2EB0C03934313EA23
:1058C000CC1317D150F8042B51F8043B9A4215D150
:1058D000A2EB0C03934313EACC130BD150F8042B27
:1058E00051F8043B9A4209D1A2EB0C03934313EA0B
:1058F000CC13DBD04FF00000704700BFD01A01BAC4
:10590000B1FA81F101F0180122FA01F0CB40C1F1A6
:105910002001DBB2C0B2C01A2CFA01F3D11A9143B4
:1059200011EAC311E6D1704708B569468DF8000049
:105930000320ABBE08BD00009FED221A9FED222A76
:1059400020EE010AB5EE001A30EE010ABDEEC01AD3
:1059500011EE100AB5EE400AF1EE10FAB8BF0138A8
:1059600001EE100AB8EEC11A30EE410A20EE020A2A
:10597000BDEEC01A9FED152A11EE100A002130EE7F
:10598000021AB1EB502F47F2A0211CBF0020B0EE4D
:10599000410AC0F6010101EE100A01EB8001B8EEE8
:1059A000411A30EE410A91ED001A91ED012AB7EE4D
:1059B000003A33EE403A23EE011A20EE020A31EEAD
:1059C000000A704783F9223E00000044000000C432
:1059D0009FED201A9FED202A20EE010ABDEEC01A8D
:1059E00011EE100AB5EE400AF1EE10FAB8BF013818
:1059F00001EE100AB8EEC11A30EE410A20EE020A9A
:105A0000BDEEC01A9FED152A11EE100A002130EEEE
:105A1000021AB1EB502F47F2A0211CBF0020B0EEBC
:105A2000410AC0F6010101EE100A01EB8001B8EE57
:105A3000411A30EE410A91ED001A91ED012AB7EEBC
:105A4000003A33EE403A23EE011A20EE020A31EE1C
:105A5000000A704783F9223E00000044000000C4A1
:105A60005FEA400C08BF91F0000F4FEA8C234FEA29
:105A7000C12243EA51514FEA1C5018BF00F5F040D3
:105A80004FEA300018BF41F000415FEA6C5C00F063
:105A90002980BCF1FF3F08BF40F080407047130CE5
:105AA00006BF12044FF0100C4FF0000C130E04BF91
:105AB00012020CF1080C130F04BF12010CF1040CBC
:105AC000930F04BF92000CF1020CD30F04BF5200DD
:105AD0000CF1010C11464FF00002A0F11F00A0EBE9
:105AE0000C00704711F0004F08BF704731F00041C3
:105AF0003FF4D5AF0B0C06BF09044FF0100C4FF06C
:105B0000000C0B0E04BF09020CF1080C0B0F04BFB4
:105B100009010CF1040C8B0F04BF89000CF1020C7D
:105B2000CB0F04BF49000CF1010CCCF12003A0EB1A
:105B30000C0022FA03F302FA0CF241EA030100F12D
:105B40000100704720F07F4C80EA030023F07F477C
:105B5000ACEB070303F57C5300F0004003F1FF03B7
:105B60002DE980494FEA154B09B44FEA144325EA61
:105B70000B4E24EA03480FF2042606EB13274908CC
:105B80003E785FEA320203FB0667C7F5000707FBB2
:105B900006F64FEA54374FEAD64606F1020607FBEF
:105BA000066CCCF1005C4FEA1C472CEA074C07FB63
:105BB00006F40CFB06F504EB15464FEA961634BFC7
:105BC00000204FF000404FEAD13706FB07FC4FEAB8
:105BD0001C4C0CFB0BF7D21B03FB0CF761EB070112
:105BE0000CFB0EF7B0EB074072EB17420CFB08F70B
:105BF00034BFA2EB0742B2EB074261EB17414FEA19
:105C00000C444FEA910706FB07FC4FEA1C4C0CFBC7
:105C10000BF7B0EBC74072EB573203FB0CF734BF06
:105C2000A2EBC742B2EBC74261EB57310CFB0EF758
:105C3000B0EBC70072EB57720CFB08F734BFA2EB56
:105C4000C702B2EBC70261EB5771039F4FEA816154
:105C500041EA921104EBCC044FEAD1374FEA826259
:105C600006FB07FC42EA90124FEA80604FEA1C4CA8
:105C70000CFB0BF7D21B03FB0CF761EB07010CFBD2
:105C80000EF7B0EB074072EB17420CFB08F734BF7E
:105C9000A2EB0742B2EB074261EB17414FEA8C558A
:105CA0004FEA910704EB9C2406FB07FC4FEA1C4CCF
:105CB0000CFB0BF7B0EBC74072EB573203FB0CF752
:105CC00034BFA2EBC742B2EBC74261EB57310CFBCA
:105CD0000EF7B0EBC70072EB57720CFB08F734BF3E
:105CE000A2EBC702B2EBC70261EB577115EB4C2573
:105CF0004FEA816141EA92114FEA82624FEAD1375D
:105D000042EA901206FB07FC44F100044FEA80606F
:105D10004FEA1C4C0CFB0BF7D21B03FB0CF761EB9F
:105D200007010CFB0EF7B0EB074072EB17420CFBC0
:105D300008F734BFA2EB0742B2EB074261EB174111
:105D400015EB1C154FEA813141EA92414FEA82324C
:105D500042EA90424FEA80304FEA0C7644F1000468
:105D600048EA03434EEA0B484FF0000EB2EB080C32
:105D700071EB030724BF624639464EEB0E0E4FF01F
:105D8000000B0018524149414BEB0B0BB2EB080CD6
:105D900071EB03077BF1000B24BF624639464EEBE3
:105DA0000E0E4FF0000B0018524149414BEB0B0B0C
:105DB000B2EB080C71EB03077BF1000B24BF6246CA
:105DC00039464EEB0E0E51EA020718BF46F00106A7
:105DD00016EB0E7655F1000254F1000103D5BDE833
:105DE0008901BDE80088BDE88901BDE80048B61911
:105DF000524141EB0101A3F10103704780807F7E96
:105E00007D7C7B7A79787776767574737271717030
:105E10006F6E6E6D6C6C6B6A6A69686867666665E2
:105E20006464636362616160605F5F5E5E5D5D5C70
:105E30005C5B5B5A5A5959585857575656555555E1
:105E40005454535352525251515050504F4F4F4E41
:105E50004E4D4D4D4C4C4C4B4B4B4A4A4A4949498F
:105E600048484847474747464646454545444444D1
:105E7000444343434342424242414141002B9C46FA
:105E800030D477002BD01CB54FEA370703B44FF05E
:105E900010004FF01001BAF1000F06D0BCF1000F56
:105EA000DCBF40F0080040F008014FF000000FBCDC
:105EB000BDE810400BF1010BBBF1010F08BF5FEA19
:105EC000170722BF12F1010211F101014FF0004149
:105ED00043F1000300F0004043EA00007047F9D3AB
:105EE0005708D0E746EA064613F1400F4FEA164638
:105EF0001FDD13F1200FDFBF16430A4600212033B8
:105F00005B42BED0C3F1200746EA064602FA07F715
:105F10004FEA164646EA0706C3F1200722FA03F2C3
:105F200001FA07F721FA03F14FF0000342EA0702F2
:105F3000A7E746EA020646EA06464FEA164646EA5A
:105F40000106BCBF46EA0646360C4FF000034FF090
:105F500000024FF0000194E72DE9804C9A469346E9
:105F600070B491E8380007C831EA400C48BF34EA01
:105F7000430C03D5FFF7E6FDFFF780FFF0BCBDE85B
:105F8000008C2DE9804C9A46934670B491E8380015
:105F900007C810F0804F08BF13F0804F03D100F006
:105FA00005F8FFF76BFFF0BCBDE8008C20F07F47E1
:105FB00080EA030023F07F4C07EB0C03A3F57C532E
:105FC00000F00040A3F1FE0392F0000F00F0B38058
:105FD00095F0000F00F077802DE901494FEA11405C
:105FE0004FEA144621EA004800FB06FC24EA064773
:105FF00008FB06F607FB08F800FB07F718EB064856
:106000004CEB164C4FEA124B18EB07484FEA15467B
:106010004CEB174022EA0B4E0BFB06FC25EA064729
:106020000EFB06F607FB0EFE0BFB07F71EEB064EFC
:106030004CEB164C4FF000061EEB074E4CEB174B8B
:1060400018EB0B0840F1000018EB0E0B58EB0008A2
:1060500040F100008F1A4FF000013CBFC943661B9E
:1060600014BFB5EB040C00213CBFC943F61B4FEA3B
:1060700017444EEA8E0E27EA04454FEA1C4704FBFC
:1060800007622CEA074C05FB07F70CFB05F604FB3F
:106090000CFC16EB074642EB174216EB0C4642EBA4
:1060A0001C421BEB060658EB0202414146EA9E06E3
:1060B00001D5BDE80189B619524141EB0101A3F1B7
:1060C0000103BDE801894FEA14454FEA114724EA6C
:1060D000054621EA074C05FB07F406FB07F70CFB16
:1060E00006F105FB0CFC11EB074144EB17444FEAAA
:1060F000124711EB0C4144EB1C4422EA074C05FB10
:1061000007F206FB07F70CFB06F605FB0CFC16EB8B
:10611000074642EB174216EB0C4642EB1C456A1849
:1061200054F1000148BF7047B619524141EB0101DB
:10613000A3F10103704795F0000F37D04FEA1142E9
:106140004FEA144721EA024624EA074C02FB07F112
:1061500006FB07F70CFB06F402FB0CFC14EB0744F0
:1061600041EB17414FEA154714EB0C4441EB1C413E
:1061700025EA074C02FB07F506FB07F70CFB06F6C2
:1061800002FB0CFC16EB074645EB174516EB0C46DD
:1061900045EB1C42121951F1000148BF7047B61976
:1061A000524141EB0101A3F1010370474FEA14454D
:1061B0004FEA114724EA054621EA074C05FB07F19F
:1061C00006FB07F70CFB06F24FF0000605FB0CFC84
:1061D00012EB074241EB174112EB0C4251EB1C4111
:1061E00048BF7047921841EB0101A3F101037047CA
:1061F00010B5044802F07CFDBDE81040024802F0F2
:1062000077BD00000C04002078040020F8B5044697
:10621000002000902068816811F0010F4AD1816848
:10622000254A114237D18168D5432940491C8160F4
:106230002068B0F1A04F02D02049884201D1204807
:1062400000E02048806800F0E07000020DD51E4894
:106250001E490068B0FBF1F0401C00EB40008000DC
:1062600000E0401E00900028FBD104F015FB06461C
:106270001BE0816811F0010F03D181682940491C9E
:10628000816004F009FB801B02280ED92068006899
:10629000C043C00709D0E06D40F01000E065206EFB
:1062A00040F0010020660120F8BD20680168C94364
:1062B000C907DED10020F8BD3F000080000100507A
:1062C0000003005000070050D0000020400D0300E4
:1062D000FEE770B58AB006464FF080400024039375
:1062E0000092CDE901048012CDE904404000CDE9DF
:1062F00006040D46304603F04FFC0028FAD02A462B
:106300006946304603F02CFB0AB070BD70B58AB008
:106310000024CDE9002406464FF48010CDE9044066
:10632000CDE902434000CDE906040D46304603F0B6
:1063300033FC0028FAD02A466946304603F010FBA9
:106340000AB070BD70B51A4D04462888401C80B252
:106350000521B0FBF1F2288001FB120018B90021E1
:10636000204608F079FF94ED4E1AD4ED411A95EDD0
:10637000010A71EE610AF4EEC00AF1EE10FA02DDD4
:1063800031EE400A08E0B1EE402AF4EEC20AF1EE26
:1063900010FA04D231EE000A84ED4E0A01E0C4ED99
:1063A0004E1A2046BDE8704000210BF0DDBA000017
:1063B000A8030020002070470020704710B500227D
:1063C000044905480AF055F8044903480AF048F81A
:1063D000002010BDBC270020EC1A0020BC1F0020AC
:1063E00070B50C460C4905460868401C08602946F3
:1063F0000A482268FEF7C2F82068082803D1002165
:1064000006480EF02FF9294605480AF029F80448F5
:1064100009F0EEFF002070BD5C020020A4390020CE
:10642000EC1A002000207047094A10B5D2F8BC22AF
:10643000D2F814220AB1012010BD0A4601460448D0
:106440000AF017F8BDE8104001480AF07CB80000D7
:10645000EC1A00202DE9F05F05462DED0C8BADF513
:10646000564D0E464FF428644FF0280AFE4890ED32
:10647000EB0AB8EEC00A9FEDFDAA20EE0A0ADFED96
:10648000FC0A4DF24C204FF48071C0EE20BA6844F3
:10649000FEF7EBF84DF24C304FF400716844FEF714
:1064A000E4F8DFEDF48AF448F3EE080AF34F90EDD8
:1064B0002F0A0DF57050F6EE00AA20EE200AD6ED58
:1064C000030A80EE20CAB0EE680A80EDC70AC0ED6C
:1064D000C3AA87ED000AFFF77BFA3846B0EE409A70
:1064E00090ED000AFFF728FA0DF540534DF24C21CC
:1064F00005F1F000B0EE408A4FF480726944C3F8B1
:10650000440FFEF780F843F61C726A4402F108015A
:10651000081FF0EE681AB0EE4C1AF0EE490AB0EE21
:10652000480A0CF021FF0DF5705343F60C726A44D3
:1065300002F1080196ED030A081FD3EDC71A93ED87
:10654000C91AD3EDC80A07F059FE96F8A8009FEDC6
:10655000CC8A00280DF5705090EDC40A20EE081A80
:1065600006D090EDC50A60EE080A90EDC30A05E07A
:1065700090EDC30A60EE080A90EDC50A20EE080A05
:1065800007F060F9BFA00EF05BF84FF4FA6003F07B
:1065900065F9DFEDCACA2846B0EE6C0A00F02AFEA3
:1065A000C7480EF04DF8C7A00EF04AF84FF00009AA
:1065B000F2EE049ADFF8C482002700BF98ED000ACB
:1065C00030EE2B0A88ED000AFFF702FAB0EE409A8F
:1065D00098ED000AFFF7B0F943F61C726A4402F125
:1065E0000801081FF0EE681AB0EE4C1AF0EE490AE6
:1065F0000CF0BAFE0DF5705343F60C726A4402F1CA
:10660000080196ED030A081FD3EDC71A93EDC91AC6
:10661000D3EDC80A07F0F2FD96F8A80000280DF5A2
:10662000705090EDC40A20EE081A06D090EDC50A0D
:1066300060EE080A90EDC30A05E090EDC30A60EE33
:10664000080A90EDC50A20EE080A07F0FBF864205E
:106650000CF064FE7F1C5745B0DBB0EE6C0A284698
:1066600000F0C8FDDFF800B295ED030AD5ED040A8D
:106670009BEDEBDA814830EE209AF8EECD0AD0EDB2
:1066800000DA02A901EB89008DEEA00A42F6082289
:106690006A4430EE490A80ED000AB5F8D01022F8BD
:1066A000191019EE100A10F0D3FAF8EECD0A0746C9
:1066B00088468DEEA00A10EE100A10F0C9FA41ECDF
:1066C000100BCDE9007853EC102B8AA00DF0B8FF29
:1066D0009BEDEB0A6948CD23F8EEC00A90ED001A55
:1066E000001D81EE200A037005234370082320EE6D
:1066F000290ABDEEC00A10EE101A29EE290A81708F
:10670000090AC170BDEEC00A10EE102A0271110A0A
:106710004171DC21C171DBF804200146794802F5A2
:10672000E0620CF0FBFC09F10109A145FFF642AF64
:106730004FF00009DFF84481002700BF98ED000A00
:1067400030EE6B0A88ED000AFFF742F9B0EE409A8E
:1067500098ED000AFFF7F0F843F61C726A4402F164
:106760000801081FF0EE681AB0EE4C1AF0EE490A64
:106770000CF0FAFD0DF5705343F60C726A4402F109
:10678000080196ED030A081FD3EDC71A93EDC91A45
:10679000D3EDC80A07F032FD96F8A80000280DF5E1
:1067A000705090EDC40A20EE081A06D090EDC50A8C
:1067B00060EE080A90EDC30A05E090EDC30A60EEB2
:1067C000080A90EDC50A20EE080A07F03BF864209D
:1067D0000CF0A4FD7F1C5745B0DBB0EE6C0A2846D8
:1067E00000F008FD95ED030AD5ED040A9BEDEBDA08
:1067F000224830EE209AF8EECD0AD0ED00DA43F6CA
:106800004C7169448DEEA00A01EB89004BF64C52A5
:106810006A4430EE490A80ED000AB5F8D01022F83B
:10682000191019EE100A10F013FAF8EECD0A074607
:1068300088468DEEA00A10EE100A10F009FA41EC1D
:10684000100BCDE9007853EC102B2AA00DF0F8FEC8
:106850009BEDEB0A0948F8EEC00A90ED001A81EEB4
:10686000200A20EE290A4FE0A4310020DB0FC940A6
:106870000000D24700000000A4300020D403002014
:106880009A99193F202D2D2D2D2D2D2D2D2D2D2D6E
:106890002D2D2D2D2D2D2D2D2D2D53544152542D7B
:1068A0002D2D2D2D2D2D2D2D2D2D2D2D2D2D2D2D18
:1068B0002D2D2D2D200A0D0A0D0000006F1283389A
:1068C0005C7201082043757272656E7420416E67B8
:1068D0006C65203A20526F746F7220416E676C6550
:1068E000203A2052617720456E636F646572200AFA
:1068F0000D0A0D00732C252E34662C252E34662CA3
:106900006500000094060020BDEEC00A001DCD23E6
:1069100010EE101A29EE290A037005234370BDEE0C
:10692000C00A8170090A10EE102AC1700271110AA2
:106930004171DC21C171DBF804200146082399482C
:1069400002F5E0620CF0EAFB09F10109A145FFF64E
:10695000F1AEB6EE001AF6EE000AB6EE000A06F048
:1069600071FF43F64C77B0EE688A0020F0EE000A23
:1069700002A96F4401EB8002884692ED000A221AB8
:1069800007EB8202401C12ED011AA04230EE011A00
:1069900000EE104AB8EEC00A60EE201A81EE210A1D
:1069A00030EE088AE6DBDFF800A29AEDEB0AB8EEDB
:1069B000C00A20EE080A10EE100A10F049F941EC66
:1069C000100B9FED7A1B0BF0C1F851EC100B0FF080
:1069D0004BFB00EE100AB5EEC00AF1EE10FA01D240
:1069E00030EE0A0A734846F64C1185ED020A80ED36
:1069F000010A00204246694402EB800393ED000A3D
:106A0000231A07EB830353ED010A01EB8003401CBB
:106A100030EE200AA04220EE2A0A83ED000AEBDBCA
:106A200000279FED658A49F24C398B46E9440021E5
:106A3000621E5B4609EB8708C819403801D520441F
:106A400002E0904200DD001B03EB800098ED000A9D
:106A5000D0ED000A491C802900EE880A88ED000A62
:106A6000EADB802F18DA03EB8700D8ED000A90EDFF
:106A7000000A70EE600A9AEDEB0AB8EEC00A20EE4A
:106A8000800A0BF06FFC4DF24C3120EE0B0A69448A
:106A900001EB870080ED000A00EE104AD8ED000AF5
:106AA0007F1CB8EEC01AA74280EE810A70EE288AD9
:106AB000BDDB0DF50050B0F9081A4BF64C50684498
:106AC00000EB440030F9020C084400EBD070471092
:106AD0003AA00DF0B5FD45A00DF0B2FD4DF24C28E9
:106AE000CB460024E844D14604EBE7127F2A00DDC0
:106AF000803AD9F8AC1361430BEB8100214690ED4D
:106B0000000A70EE680A95ED350AB8EEC00A20EE6C
:106B1000800AC0EE0A0ABDEEE00A10EE100A03B2C7
:106B200028F812303EA00DF08BFD641C802CDBDBBE
:106B30000DF540504FF480752A4644464146D0F842
:106B4000440FFDF760FD18482A4621461430FDF732
:106B50005AFD96F8A810C9F8001008F02DFB142073
:106B600002F07CFE32A00DF06BFD142002F076FEE8
:106B70000DF520509DED020AD0ED810A2E4930EE30
:106B8000600AB0EEC00A10EE100A884206DD03204B
:106B90000DF5564DBDEC0C8BBDE8F09F02200DF5B8
:106BA000564DF7E794060020A43100200000006055
:106BB000FB211940A43000200000003C0A0D2045B4
:106BC0006E636F646572206E6F6E2D6C696E6561A9
:106BD0007269747920636F6D70656E736174696F2B
:106BE0006E207461626C650A0D0000002053616DB7
:106BF000706C65204E756D626572203A204C6F6F27
:106C00006B757020496E646578203A204C6F6F6B0D
:106C100075702056616C75650A0D0A0D0000000044
:106C2000256420202025642020202564200A0D00D2
:106C3000732C732C652C65000000C0402DE9F04FCB
:106C40000C462DED088B89B0074606F025FE9FED1A
:106C5000C58AC548F3EE080AC44D90ED2F0AB0EE80
:106C6000489A20EE200AD4ED030A8DED028A80EEC8
:106C700020AAB6EE000A8DED050A85ED008AB0EE79
:106C8000480AFEF7A5FEF0EE408A95ED000AFEF7F1
:106C900053FE02AA04A903A8F0EE491AB0EE4A1A5C
:106CA000F0EE680A0CF060FB94ED030A05AA07A950
:106CB00006A8DDED021A9DED041ADDED030A07F0CA
:106CC0009DFA9DED060ADFEDAA8A20EE281A9DEDB9
:106CD000070A60EE280A9DED050A20EE280A06F054
:106CE000B1FD4FF4FA6002F0B9FD9FEDA2BA38464B
:106CF000B0EE4B0A00F07EFA012002F0AFFDDFEDAE
:106D00009EAA9E4E95ED000A37E000BFFEF760FE9A
:106D1000F0EE409A95ED000AFEF70EFE02AA04A9D5
:106D200003A8F0EE491AB0EE4A1AF0EE690A0CF028
:106D30001BFB94ED030A05AA07A906A8DDED021ABC
:106D40009DED041ADDED030A07F058FA012002F068
:106D500085FD9DED060A20EE281A9DED070A60EEDE
:106D6000280A9DED050A20EE280A06F06BFD95ED38
:106D7000000A30EE2A0A85ED000A10EE100AB04231
:106D8000C4DBDFF8E8A185ED008ADFF8F4910AF1B1
:106D9000040A4FF0DC0BA846A0E000BFFEF718FE87
:106DA000F0EE409A98ED000AFEF7C6FD02AA04A98B
:106DB00003A8F0EE491AB0EE4A1AF0EE690A0CF098
:106DC000D3FA94ED030A05AA07A906A8DDED021A75
:106DD0009DED041ADDED030A07F010FA012002F020
:106DE0003DFD9DED060A20EE281A9DED070A60EE96
:106DF000280A9DED050A20EE280A06F023FDB0EED4
:106E00004B0A384600F0F6F997ED030AD7ED040A6D
:106E100070EE209A19EE900A0FF01AFF99EDEB0A26
:106E200098ED001A0546F8EEC00A0E4681EE200ADB
:106E300010EE100A0FF00CFF41EC100BCDE90056DC
:106E400053EC102B4FA00DF0FBFB99EDEB0A98EDE6
:106E5000001ACD23F8EEC00A8AF8003001238AF820
:106E6000013081EE200AF2EE040A40490823091D90
:106E700020EE200ABDEEC00A10EE102A29EEA00A6C
:106E80008AF80220120A8AF80320BDEEC00A10EE2A
:106E9000100A8AF80400000A8AF805008AF807B088
:106EA000D9F804203B4802F5E0620CF037F998ED80
:106EB000000AB5EEC00AF1EE10FA02DDF0EE400A6B
:106EC00001E0F1EE400A10EE900A3349884201DAFF
:106ED000B0EE698A30EE2A0A88ED000A98ED000AC1
:106EE000264A10EE101A9142FFF658AFB5EE001A7E
:106EF000F5EE000AB5EE000A06F0A4FC97ED030AD1
:106F0000D7ED040A30EE200A30EE480AB5EEC00A8A
:106F1000F1EE10FA01DD012600E00026142002F057
:106F20009DFC1EA00DF08CFBCD218AF80010FD21E8
:106F30008AF801108AF807B00C49D9F804204D46A8
:106F40000823091D134802F5E0620CF0E7F814204D
:106F500002F084FC84F8A8602E6009B0BDEC088BB8
:106F6000BDE8F08F00000000A4300020D403002012
:106F70009A99193F6F1283380AD7233CDB0F494196
:106F8000A4310020732C252E34662C252E34662C3B
:106F90006300000094060020ACC52737732C732CC7
:106FA000632C63001C4991ED060A80ED000A91ED07
:106FB000050A80ED010A91ED090A80ED020A91EDC2
:106FC000080A80ED030A91ED0B0A80ED060A91EDA7
:106FD0000A0A80ED070A91ED0D0A80ED080A91ED8D
:106FE0000C0A80ED090A91ED0F0A80ED040A91ED7B
:106FF0000E0A80ED050A91ED0B0A80ED0A0A91ED6B
:107000000A0A80ED0B0A91ED1D0A80ED0E0A91ED42
:107010000A0A80ED0F0A7047A4300020014802F0F0
:1070200004BB0000BC050020014802F0FEBA0000CD
:1070300084090020014802F0F8BA00001C06002074
:107040000D4902688A4201D20C4901E00B49203106
:10705000D2B21423083AB2FBF3F2436C02F01F02DF
:1070600023F003031944816404498031C164012180
:10707000914001657047000008040240000802408A
:107080000179074A02EB81024265054A4432491EF2
:10709000826501F01F0201219140C1657047000027
:1070A000FC08024030B5D0E913456560446D14B169
:1070B000D0E91645656090F8444004F01F050124AE
:1070C000AC40056C6C60046863608368102B0368D7
:1070D00003D099600068C26030BD9A600068C160EA
:1070E00030BD70472DE9F04116462DED028BB0EE14
:1070F000408A0F460446002506F098FBC4F8D47079
:10710000C4F8E86084ED028A4FF6FF70C4F8D850E6
:10711000C4F8EC0084ED048A9FED2D8A002084EDF4
:10712000058A84ED068A84ED078AC4F8D05000BF32
:1071300004EB8001401C81ED088A2828F8DB2548F3
:10714000DFED250A90EDA70A04F5FE70B8EEC00A3F
:1071500084ED7C0A0CF080FA9FED200AF0EE008AA4
:1071600084ED890AB1EE040A84ED8A0A9FED1C0AB7
:1071700084ED8B0A9FED1B0B0BF0BCF99FED1B1BE5
:1071800053EC102B51EC110B0EF0A0FF0EF06CFF26
:1071900000EE100A0BF0EBF994ED891AC1EE000A2B
:1071A00094ED8A0A20EE280A20EE200A84ED8C0A4B
:1071B00020EEA00AD4ED8B0A20EE200A84ED8D0A81
:1071C00084ED908A84ED8F8ABDEC028BBDE8F0815E
:1071D00000000000A431002000409C467C59C445BA
:1071E00017B75138000000000054A4400000000010
:1071F0000080494010B504462DED028BB0EE408A68
:1072000008F05EF959480278DFED591AD4F8D01029
:107210008AB100EE101A0022B8EEC00A60EE210A10
:1072200094ED350AB8EEC01A80EE810A84ED050AA5
:1072300084ED060A027000EE901A94ED050A4D4B9B
:10724000F8EEE00A84ED060AD4F8D40020EEA11A84
:1072500000EE900AB8EEE02AC1EE020AC4ED050A7B
:1072600030EEC01A11EE102A9A4203DDD4F8D8206D
:10727000521E07E011EE102A12F17F5FD4F8D820D9
:1072800002D9521CC4F8D820424300EE102AF8EE6E
:10729000C00A00EE101AB8EEC00A30EE800A60EEA6
:1072A000210A00EE100AB8EEC02A80EE820A84EDB0
:1072B000000A84ED030A00EE100AD4F8E820D4EDA9
:1072C000020AB8EEC00A514391FBF0F381EE802A26
:1072D00000FB131000EE100A2749B8EEC00A42EE78
:1072E000000AF5EEC00AF1EE10FA02D270EEA10A21
:1072F00005E010EE900A884201DD70EEE10A00EE32
:10730000102A94ED302ADFED1D2AB8EEC00A11EEE6
:10731000100A1B4922EE002A884282EE220A30EE31
:10732000200A84ED010A02D931EE210A06E011EEAD
:10733000100A1449884204DD31EE610A20EE080A81
:1073400001E021EE080AD4ED7C0AF5EEC00AF1EE68
:1073500010FA01DD012100E0002104F5FE700DF0BE
:1073600081F884ED300ABDEC028B10BDDC000020FA
:10737000DB0FC94000004040DB0FC94000007A46E7
:10738000DB0FC9BFDB0FC93F2DE9F04116462DEDDC
:10739000028BB0EE408A0F460446002506F04CFAF8
:1073A000C4F8D470C4F8E86084ED028A4FF6FF7028
:1073B000C4F8D850C4F8EC009FED120A84ED048A9A
:1073C00084ED050A84ED060A84ED070A0020C4F85E
:1073D000D05000BF04EB8001401C81ED080A282832
:1073E000F8DB0948DFED090A90EDA70A04F5FE7005
:1073F000B8EEC00A84ED7C0ABDEC028BBDE8F0411A
:107400000CF02AB900000000A431002000409C4686
:1074100070B504465348D0F8B013D4F8D40000290E
:10742000D4F8D01002D1411AC4F8D0104E4A537883
:107430009FED4E1A8BB100EE901A0023F8EEE00A91
:1074400060EE811A00EE900AB8EEE02AC1EE820AE0
:10745000C4ED050AC4ED060A537001EE901AD4ED8E
:10746000050A434DF8EEE11AC4ED060A21EE812A21
:1074700001EE900AF8EEE12AC2EE221AC4ED051AD6
:1074800071EEE00AD4F8D82010EE903AAB4201DD5C
:10749000521E05E010EE903A13F17F5F02D9521CA4
:1074A000C4F8D820424301EE902AB8EEE12A01EE5A
:1074B000901AF8EEE11A72EE211A21EE812A01EEFD
:1074C000900AF8EEE12AC2EE221AC4ED001AC4EDC9
:1074D000031A01EE900AD4F8E820F8EEE11A4A43C4
:1074E00092FBF0F181EE212A00FB112001EE900ABF
:1074F000F8EEE12AD4ED021A42EE221AF5EEC01A95
:10750000F1EE10FA02D271EE811A06E011EE900A45
:107510001849884201DD71EEC11A10EE900A164931
:10752000C4ED011A884202D970EE810A06E010EE1D
:10753000900A1249884201DD70EEC10A20EE800AED
:10754000D4ED7C0AF5EEC00AF1EE10FA01DD01215E
:1075500000E0002104F5FE700CF084FF84ED300A99
:1075600070BD0000A4310020DC000020DB0FC9400A
:1075700000004040DB0FC940DB0FC9BFDB0FC93F34
:10758000C0F8E820C0F8D410002380ED020A4FF6BE
:10759000FF71C0F8D830C0F8EC1080ED040A9FED00
:1075A000090A194680ED050A80ED060A80ED070AF2
:1075B000C0F8D03000EB8102491C82ED080A28296E
:1075C000F8DB70470000000072B6FEE7014802F0E9
:1075D000EABA000094060020F0B5D1E901650C6913
:1075E0002C430D68C6B145F080452C43D1E90665B2
:1075F000354391F820704E69406D46EA0766354381
:107600008E8903EBC30300EBC30045EA0645E0E8BF
:10761000024500230B4D0FE044EA8544E6E7D41809
:10762000D65CE77846EA0766A77864783F0447EABD
:107630000424264340C01B1DCC682C5D9C42EED820
:10764000F0BD0000426E0108144A117F1448012960
:1076500001D003290FD1036823F40073036003688A
:1076600043F400630360036823F40063036003686A
:1076700043F400730360022901D003290BD1016890
:1076800041F480510160016821F48051016001687A
:1076900041F4806101600020107770479400002061
:1076A000002002400C490A6A520210D5C20703D0DA
:1076B0004A6942F004024A61800703D5486940F4F0
:1076C00000404861486940F480304861704748692B
:1076D00048F204021043F4E7002002400E4A136A05
:1076E0005B0201D5C90703D0516921F4006102E0B2
:1076F000516941F4006151615169C0B221F47E7158
:1077000041EAC0005061506940F002005061506988
:1077100040F480305061704700200240054910B5A8
:107720004C6944F001044C610260BFF36F8F436009
:1077300010BD000000200240094A10B554694023E2
:1077400044F480245461EFF3108272B610C95B1EBA
:1077500010C013F0FF03F9D182F3108810BD0000B0
:107760000020024070B5064603F096F80546134C1B
:1077700007E000BF03F090F8401BB04201D903209E
:1077800070BD2069C003F5D420694CF2FA3108407D
:107790000CD00B494A6802434A60010F01D0A1692D
:1077A000A161010100D02061012070BD2069C007E6
:1077B00001D001202061002070BD000000200240A7
:1077C0009400002070B5B3EE080A2DED028B04463C
:1077D00080ED030A9FED710A80ED250A80ED240AF1
:1077E0006F48D0ED100AC4ED340AD0ED120AC4ED92
:1077F000350AD0ED170AC4ED380AD0ED110AC4EDF0
:10780000360AD0ED130AC4ED370A84ED330A84ED4D
:10781000320AD0ED140AC4ED390AD0ED250AC4EDC0
:10782000540AD0ED260AC4ED550AD0ED180AC4ED6D
:10783000530AD0ED150AC4ED580AD0ED270AC4ED5D
:107840003E0AD0ED280AC4ED400AD0ED160AC4ED78
:10785000420AF2EE0E0AC4ED480AF1EE040AC4ED43
:107860004A0ADFED500AC4ED490ADFED4F0A002154
:10787000C4ED4C0A84F83411D0ED190A04F5806582
:10788000C4ED2B0AD0ED1A0AC5ED060AD0ED1B0A8D
:10789000C4ED1B0A84ED1C0A84ED1A0A84ED190A52
:1078A00090ED220A85ED0E0A90ED230A85ED0D0A72
:1078B00090ED240A85ED0F0A90ED2A0A85ED100A55
:1078C00090ED300A85ED110A90ED2D0A9FED378A73
:1078D00020EE080ABCEEC00A10EE101AC4F85014CC
:1078E00090ED2B0A85ED120A90ED2C0A85ED130A16
:1078F00090ED3A0A85ED150A90ED310A85ED160AEC
:1079000090ED360A85ED170A90ED330A85ED180AD9
:1079100090ED350A85ED190A90ED320A244885ED7F
:107920001A0A90EDA60AB8EEC00A85ED1B0AD0ED42
:10793000A80AF8EEE00AC5ED370AD0EDA70A04F56B
:107940008E60F8EEE00AC5ED380AF0EE480A0BF05A
:1079500083FE95ED1B0AF0EE480A04F294400BF00A
:107960007BFE95ED1B0AF0EE480A04F597600BF0DC
:1079700073FE95ED370AF0EE480A04F2E4400BF08E
:107980006BFE95ED380AF0EE480ABDEC028B04F56B
:10799000A160BDE870400BF05FBE00000000000079
:1079A000A43000206F12833ACDCCCC3D00409C46E1
:1079B000A43100202DE9F04104462DED028B90F812
:1079C000A8309FEDF00AD0F8B010D0F8BC00D4F881
:1079D000C020091AD4F8B40000EE901A801A01EE03
:1079E000100AF8EEE00AB8EEC11A60EE800A21EE45
:1079F000000AC4ED000A43B1F1EE600A84ED020A08
:107A000030EEC00A84ED010A07E084ED010AB1EE10
:107A1000400A30EE600A84ED020A94ED060AFDF792
:107A2000D7FFB0EE408A94ED060AFDF785FFD64AEF
:107A3000F0EE408A136804F13001081F0026D34D90
:107A40009FEDD35A062B48D01268F0EE480A94EC0A
:107A5000031A072AB0EE680A63D00BF02BFBCD495E
:107A6000D5ED010A5FF0010091ED040A70EEC00A45
:107A7000C5ED010AC0F1040201EB820292ED000A99
:107A8000C0F1050201EB8202401C82ED000A0528CC
:107A9000F0DB94ED0C0AB1EE041A81ED000A70EEF1
:107AA000200AC5ED010AC0EE811AC4ED171AD4ED03
:107AB000320A94ED0B1A30EEC12A84ED282AD4ED57
:107AC000330A94ED1B1A70EEC01AF4EEC11AF1EEEF
:107AD00010FA29D2B0EE610A28E094EC031AF0EE15
:107AE000480AB0EE680A0BF0E5FA84ED1A5AB5F9C7
:107AF000020000EE100AB8EEC00ADFEDA70A20EE81
:107B0000200AFDF765FFF7EE080A20EE200A84ED53
:107B1000190A6888401C00B26880282800DB6E8043
:107B2000BEE00BF0C7FABBE0B0EE410AF1EE410A4D
:107B3000B4EEE00AF1EE10FA07DDF4EEC11AF1EE50
:107B400010FA04D2B0EE611A01E0B0EE601A84EDD2
:107B5000291AB5EEC01AF1EE10FA01DCB1EE411AA5
:107B600094ED390AB4EEC01AF1EE10FA01D284EDA8
:107B7000295AB5EEC02AF1EE10FA01DCB1EE422A24
:107B8000B4EEC02AF1EE10FA01D284ED285AD4EDF9
:107B9000241AD4ED360A94ED280A40EE801AC4ED7A
:107BA000241A94ED252A94ED371AD4ED290A01EE12
:107BB000202A84ED252A94ED383AD4ED032A23EEC9
:107BC000221AB4EEE11AF1EE10FA02DDF0EE613A9B
:107BD00001E0F0EE413A23EE624AF4EEC43AF1EEEF
:107BE00010FA07DDB4EEE11AF1EE10FA04DCF0EE63
:107BF000411A01E063EE621AB4EEC21AF1EE10FA15
:107C0000C4ED241A02DDF0EE423A01E0F0EE413A12
:107C100023EE624AF4EEC43AF1EE10FA07DDB4EE58
:107C2000C21AF1EE10FA04DDB0EE421A01E023EEC2
:107C3000621A84ED251A94ED342A22EE000A84EDAE
:107C4000270A94ED352A30EE210A62EE200AC4EDAF
:107C5000260A84ED190A70EE810A20EE000AC4EDAE
:107C60001A0A00EEA00A0AF082FC84ED1D0A94EDC7
:107C7000030ADFED4A0A20EE200A10EE100A0EF089
:107C8000E7FF9FED471B53EC112B0EF079FC0EF034
:107C9000EBF900EE100A04F16801081F0BF07AFD01
:107CA00004F18C02111FD4ED1A1A94ED191A081F51
:107CB000F0EE480AB0EE680A0BF056FB04F18400BF
:107CC000021FD0EC030A111F94ED030A0C3806F0D2
:107CD00095FA3548354D94ED1E1A00684FF00108AD
:107CE000022710B3D4ED1F0A94ED200A05F0AAFD77
:107CF000D4ED1E0A94ED1F0AF4EEC00AF1EE10FA5C
:107D000006DB94ED201AF4EEC10AF1EE10FA22DA45
:107D1000B4EEE00AF1EE10FA2BDBD4ED200AB4EE5B
:107D2000E00AF1EE10FA26DA23E0D4ED200A94ED11
:107D30001F0A05F087FDD4ED1E0A94ED1F0AF4EE2C
:107D4000C00AF1EE10FA08DB94ED201AF4EEC10A35
:107D5000F1EE10FA01DB2F700FE0B4EEE00AF1EE65
:107D600010FA08DBD4ED200AB4EEE00AF1EE10FAC6
:107D700001DB2E7001E085F800802F70BDEC028BD6
:107D8000BDE8F081FFFF24BD7C030020D40000206B
:107D900000000000E40900207CD9203E36CD133FCE
:107DA000CDCCCCCCCCCCEC3FA43100207400002056
:107DB000704700002DE9F84F4FF000090446CDF858
:107DC00000900D4694F85820DFF8EC8361694F4627
:107DD0004846012A0AD00126F84A84F8586041B181
:107DE000296A012905D0A36EEBB129E00220BDE884
:107DF000F88F6868092838D1A96A4FF4785041B1E2
:107E00002B6801F07C0100EA53400843E96A08430B
:107E100002E0296800EA51402368D96C114001430F
:107E2000D964606621E0C4E91971A96A286A31B190
:107E300001F07C01401E0843E96A084300E0401E4F
:107E400029682B79C1F3846103F01F039940014332
:107E5000A06E401EA066636E43EA0103636604D110
:107E60002168C86C10401843C864206806F032F9D5
:107E700058B995F8250098B12068C16895F8262072
:107E800021F4401141EA4251C160206806F02AF90C
:107E90008246206806F01EF95AEA00000DD0FCE088
:107EA00095F8260095F82410400540EA0151206815
:107EB000C26822F440121143E6E7A86A30B1E86ACA
:107EC00020B195F8250001285ED003E095F8250043
:107ED000012804D02068C16821F0007103E0206807
:107EE000C16841F00071C16095F83000012852D09E
:107EF0002068016921F002010161AA6829682068EF
:107F0000B2F1004F38D006F008F92068416921F03D
:107F10000041416120686969C268C2F3C102520030
:107F200091402A69042A45D000EB82002B68026E3A
:107F3000DFF88CC203F0F84302EA0C020B431A4349
:107F400042F00041016620682A69A96900EB8200BD
:107F5000026E22F080720A430266297F2268286935
:107F6000012924D05FF0000102EB8000026E22F0B4
:107F700000720A43026690E0002206F0CEF8206804
:107F8000416941F00041C4E7E06D40F02000E06548
:107F90004FF00109A8E7D5E90D01084321680A69F6
:107FA00022F4FF7242F0020210430861A5E74FF08D
:107FB0000071D9E7002106F083F8400320684FF0F4
:107FC000000172D006F07CF890FAA0F0B0FA80F1CF
:107FD000286842036ED090FAA0F0B0FA80F0814297
:107FE00004D100221146206806F0AEF80121206875
:107FF00006F066F8400320684FF001015DD006F0FE
:108000005FF890FAA0F0B0FA80F12868420359D0E6
:1080100090FAA0F0B0FA80F0814204D10022012150
:10802000206806F091F80221206806F049F8400324
:1080300020684FF0020148D006F042F890FAA0F014
:10804000B0FA80F12868420344D090FAA0F0B0FA68
:1080500080F0814204D100220221206806F074F8E9
:108060000321206806F02CF8400320684FF003013C
:1080700033D006F025F890FAA0F0B0FA80F1286825
:1080800042032FD090FAA0F0B0FA80F0814204D1E0
:1080900000220321206806F057F82068816811F05B
:1080A000010F22D0B5E000E004E006F009F8C0F3CB
:1080B00084618DE7C0F3846091E706F001F8C0F3B6
:1080C0008461A2E7C0F38460A6E705F0F9FFC0F37E
:1080D0008461B7E7C0F38460BBE705F0F1FFC0F34C
:1080E0008461CCE7C0F38460D0E72A7B296850F82C
:1080F000B03FC1F3120C23EA0C0302F0180C314A12
:1081000022FA0CF20A4013430360E96841457DD12D
:10811000286841031BD090FAA0F1B1FA81F1491C03
:1081200001F01F0109294FEA403131D8002911D04F
:1081300090FAA0F1B1FA81F101F1010101F01F0102
:1081400006FA01F609D100BFC0F3846109E0C0F36B
:108150008461E4E7C0F38461EEE790FAA0F1B1FA3C
:1081600081F101F1010101F01F0146EA816102D1B3
:10817000C0F3846003E090FAA0F0B0FA80F000F160
:10818000010000F01F0000EB400041EA00513AE01E
:1081900000290ED090FAA0F1B1FA81F101F10101AC
:1081A00001F01F0106FA01F60ED100BFC0F3846191
:1081B0000EE0C0F38461F1E700007F40004010044E
:1081C00000F0FF03FFFF070090FAA0F1B1FA81F180
:1081D00001F1010101F01F0146EA816102D1C0F302
:1081E000846003E090FAA0F0B0FA80F000F10100A2
:1081F00000F01F003A4A00EB400002EB005041EA59
:10820000000141F00071AA68206800E001E005F07B
:1082100084FF34482B6803425ED022684FF0A04CA4
:108220003148324E324D624501D0AA4201D1014659
:1082300000E031468968DFF8BC8001F0E071434519
:1082400003D0DFF8B480434520D15FEA01281DD474
:10825000624505D0294B9A423ED1AA4200D0304611
:1082600041F40001826822F0E0720A4382602448EF
:1082700024490068B0FBF1F0801C00EB4000800056
:1082800000E0401E00900028FBD125E0DFF8788058
:1082900043450FD15FEAC1180CD4AA4202D11B4B4F
:1082A0009A4219D0624502D0AA4200D0304641F02D
:1082B00080710CE0DFF8588043450DD14B020BD4A0
:1082C000AA4209D0624500D0304641F4800182685C
:1082D00022F0E0720A43826084F85870484686E5CE
:1082E000000020FE0000088000030050000700503E
:1082F00000010050000021C31000C0900006005093
:10830000D0000020400D0300000052C700050050BF
:10831000000084CB10B50921074800F015F8074C80
:108320000921C4F8B4000648B03400F00DF805493E
:1083300020600220487010BD0C040020F8090020C5
:1083400078040020000000200068A1F580710F393A
:108350000ED0B1F5837F08D0B1F5037F02D0D0F8FD
:1083600080007047D0F88C007047D0F888007047C4
:10837000D0F88400704700002DE9F04704460068FB
:108380004FF0A049DFF804A10F46484501D0504501
:1083900001D13F4800E03F48806800F01F06A06917
:1083A000082805D05FF0200502F076FA804618E034
:1083B0004025F9E7781C14D002F06EFAA0EB080013
:1083C000B84200D86FB920680068284209D1E06D32
:1083D00040F00400E065002084F858000320BDE868
:1083E000F087206800682842E4D02168C86C10F447
:1083F000C07F0CD00023C86810F4406F09D0002261
:10840000DFF894C02548514505D1C84608E001234E
:10841000F1E70122F4E7614501D1804600E088469A
:10842000884508D03EB1062E05D0072E03D0514511
:1084300003D1484604E0C86803E0614500D008461F
:10844000C068E66D46F40056E66523B9830112D490
:108450008AB182040FD40A6852060CD582020AD46B
:10846000E26D22F48052E265E26DD20503D4E26D42
:1084700042F00102E265402D01D0202002E04004DC
:1084800001D4602008600020A9E70000000100502E
:108490000003005000070050000500500004005089
:1084A000704700002DE9F041044600684FF0A045F8
:1084B0003E4FA84201D0B84201D13D4900E03D49BC
:1084C000896801F01F0605F005FE08BB2168C86831
:1084D000C96C00F0004011F4C07F00D190B194F855
:1084E0005800012814D0012084F858002046FDF7D8
:1084F0008DFE01004FF000020CD084F85820084691
:10850000BDE8F081E06D40F02000E0650120F7E774
:108510000220F5E7E06DC00504D5206E20F00800CC
:10852000206600E02266E06D42F20103984340F4C9
:108530008050E0652068204BDFF880C0B84201D150
:10854000AE4604E0984201D1E64600E08646864504
:1085500000D02EB9D4F85CE02EF4801EC4F85CE0A4
:108560004FF0600EC0F800E084F858202068B84250
:1085700004D0984201D1654600E00546854209D005
:1085800046B1062E06D0072E04D0E06D40F48010D0
:10859000E065B4E7C26812F0007FB0D18268084B92
:1085A0001A4042F008028260A9E700000001005072
:1085B0000003005000070050000500500004005068
:1085C000C0FFFF7F2DE9F041044600684FF0A04551
:1085D0004C4FA84201D0B84201D14B4900E04B4971
:1085E000896801F01F0605F075FD08BB2168C868A1
:1085F000C96C00F0004011F4C07F00D190B194F834
:108600005800012814D0012084F858002046FDF7B6
:10861000FDFD01004FF000020CD084F85820084600
:10862000BDE8F081E06D40F02000E0650120F7E753
:108630000220F5E7E06DC00504D5206E20F00800AB
:10864000206600E02266E06D42F20103984340F4A8
:108650008050E06520682E4BDFF8B8C0B84201D1E9
:10866000AE4604E0984201D1E64600E086468645E3
:1086700000D02EB9D4F85CE02EF4801EC4F85CE083
:108680004FF0600EC0F800E084F858202068C268FF
:10869000920203D5426842F480624260A0690828D1
:1086A0002068426807D022F0400242602068426899
:1086B00042F0200206E022F0200242602068426878
:1086C00042F0400242602068B84204D0984201D192
:1086D000654600E00546854209D046B1062E06D023
:1086E000072E04D0E06D40F48010E06597E7C26883
:1086F00012F0007F93D18268074B1A4042F00802C3
:1087000082608CE700010050000300500007005019
:108710000005005000040050C0FFFF7F7047704705
:108720002DE9F04F044690F858009BB00F464FF0EB
:10873000000B012812D0012084F85800002617965B
:10874000189620684FF0A048DFF81C91DFF81CA1B4
:10875000474D404506D12846009508E002201BB051
:10876000BDE8F08F48450AD15046CDF800A005F08D
:10877000B9FC0090206805F0B5FC40B109E0E06D5F
:1087800040F02000E06584F858600120E7E7009899
:1087900050B1E06D40F02000E0654FF0010B00BFEC
:1087A00084F858605846DAE720684146884201D08C
:1087B000A84201D12F4800E02F48D7F800C02F4B26
:1087C00040F61F72BCF1000F2DD0D0F808C094F80D
:1087D00038802CF4604C4CEA483CD7F804804CEAD2
:1087E000080CC0F808C0D4F800C08C4501D0AC45D6
:1087F00004D18968AB6801F0010109E0D9F80810DB
:10880000DAF8085001F0010105F001059B682943E1
:1088100003F001031943C3D1BB6839681943836866
:10882000934319431DE0876827F4604787602768F2
:108830008F4201D0AF4204D18968AB6801F00101D9
:1088400009E0D9F80810DAF8085001F0010105F044
:1088500001059B68294303F001031943A0D18168F6
:10886000914381609CE70000000400500005005027
:1088700000010050000300500007005000060050A7
:108880002DE9F84F00270446009790F85800DFF8CC
:108890001C840D46B946012811D0012684F8586081
:1088A000206805F01BFC60B1E06D40F02000E06541
:1088B0005FF0010784F858903846BDE8F88F022031
:1088C000FBE7D5E900210C23206803EA9113184443
:1088D000036B01F01F014FF01F0C0CFA01FCC2F3F7
:1088E000846223EA0C038A4013430363206805F083
:1088F000F5FB8246206805F0E9FB5AEA00003CD10E
:10890000AA6829682068B2F1004F37D005F0F6FB5D
:108910002068416921F00041416120686969C268AD
:10892000C2F3C102520091402A69042A31D000EBFF
:1089300082002B68026EDFF878C303F0F84302EA86
:108940000C020B431A4342F0004101662268286979
:10895000A96902EB8000026E22F080720A4302666F
:10896000297F22682869012910D0002102EB8000AC
:10897000026E22F000720A4302667DE0002205F0DA
:10898000BDFB2068416941F00041C5E74FF000712F
:10899000ECE7002105F08EFB400320684FF000015A
:1089A00072D005F087FB90FAA0F0B0FA80F1286849
:1089B00042036ED090FAA0F0B0FA80F0814204D168
:1089C00000221146206805F0B7FB0121206805F060
:1089D00071FB400320684FF001015DD005F06AFB98
:1089E00090FAA0F0B0FA80F12868420359D090FACA
:1089F000A0F0B0FA80F0814204D100220121206869
:108A000005F09AFB0221206805F054FB4003206822
:108A10004FF0020148D005F04DFB90FAA0F0B0FAFB
:108A200080F12868420344D090FAA0F0B0FA80F0B8
:108A3000814204D100220221206805F07DFB032140
:108A4000206805F037FB400320684FF0030133D066
:108A500005F030FB90FAA0F0B0FA80F128684203EC
:108A60002FD090FAA0F0B0FA80F0814204D1002219
:108A70000321206805F060FB2068816811F0010F78
:108A800022D0ACE000E004E005F014FBC0F3846108
:108A90008DE7C0F3846091E705F00CFBC0F38461BF
:108AA000A2E7C0F38460A6E705F004FBC0F384618D
:108AB000B7E7C0F38460BBE705F0FCFAC0F384615C
:108AC000CCE7C0F38460D0E72A7B296850F8B03F38
:108AD000C1F3120C23EA0C0302F0180C754A22FAB7
:108AE0000CF20A4013430360E968414577D12868D6
:108AF00041031CD090FAA0F1B1FA81F1491C01F0B8
:108B00001F0109294FEA403132D8002912D000BF95
:108B100090FAA0F1B1FA81F101F1010101F01F0118
:108B200006FA01F609D100BFC0F3846109E0C0F381
:108B30008461E3E7C0F38461EEE790FAA0F1B1FA53
:108B400081F101F1010101F01F0146EA816102D1C9
:108B5000C0F3846003E090FAA0F0B0FA80F000F176
:108B6000010000F01F0000EB400041EA005132E03C
:108B700000290ED090FAA0F1B1FA81F101F10101C2
:108B800001F01F0106FA01F606D100BFC0F38461AF
:108B900006E0C0F38461F1E790FAA0F1B1FA81F147
:108BA00001F1010101F01F0146EA816102D1C0F328
:108BB000846003E090FAA0F0B0FA80F000F10100C8
:108BC00000F01F003C4A00EB400002EB005041EA7D
:108BD000000141F00071AA68206805F08FFA37485B
:108BE0002B6803423FF466AE21684FF0A04C344836
:108BF000344E354D614501D0A94201D1024600E015
:108C000032469268DFF8C48002F0E072434503D038
:108C1000DFF8BC80434521D15FEA02281ED46145BC
:108C200006D02C4B99427FF445AEA94200D0304685
:108C300042F40001826822F0E0720A438260264812
:108C400026490068B0FBF1F0401C00EB40008000BA
:108C500000E0401E00900028FBD12BE6DFF880806A
:108C600043450FD15FEAC2180CD4A94202D11D4B73
:108C70009942F2D0614502D0A94200D0304642F07C
:108C800080710CE0DFF860804345E6D15302E4D404
:108C9000A942E2D0614500D0304642F480018268AA
:108CA00022F0E0720A43826004E6000000007F4088
:108CB00000F0FF03FFFF0700000020FE0000088017
:108CC000000300500007005000010050000021C3C5
:108CD0001000C09000060050D0000020400D03009E
:108CE000000052C700050050000084CB7047704759
:108CF0002DE9F84F04460068066845684FF0A04823
:108D0000DFF89092404501D0484501D1A24800E0EB
:108D1000A248806800F01F07B0070ED5A8070CD541
:108D2000E06DC00603D4E06D40F40060E0652046CD
:108D3000FFF73EF8216802200860DFF864B2DFF830
:108D400064A2700701D5680703D430073FD5280710
:108D50003DD5E06DC00603D4E06D40F40070E065E1
:108D6000206805F0C3F960B32068484501D1424648
:108D700004E0584501D1524600E00246824208D044
:108D80003FB1052F05D0092F03D0484503D14146F7
:108D900006E0C16805E0584501D1514600E00146B2
:108DA000C96889040DD4016809070AD505F096F948
:108DB00058B3E06D40F01000E065206E40F0010017
:108DC00020662046FFF792FF21680C200860B0065D
:108DD00001D5A80603D470065FD568065DD5E06DA1
:108DE000C00603D4E06D40F40050E0652068C16C1B
:108DF00011F4C07F1AD00021009105F077F90246E6
:108E00002068484514D1434617E02068416821F0A6
:108E10000C014160E06D20F48070E065E06DC004FD
:108E2000CFD4E06D40F00100E065CAE70121E3E73F
:108E3000584501D1534600E00346834208D03FB174
:108E4000062F05D0072F03D0484503D1414606E041
:108E5000C16805E0584501D1514600E00146C968A6
:108E6000009BA3B18B0102D58AB18A040FD402689A
:108E700052060CD589020AD405F028F9F0B3E06D4A
:108E800040F01000E065206E40F0010020662046B2
:108E9000FFF740FA21686020086030060BD52806ED
:108EA00009D5E06D40F48030E065204600F094F98B
:108EB000216880200860F0050CD5E8050AD5E06D32
:108EC00040F40030E0652046FFF728FC21684FF4AD
:108ED00080700860B0050CD5A8050AD5E06D40F497
:108EE0008020E0652046FFF71AFC21684FF40070EF
:108EF0000860F00631D5E8062FD500E009E0E06B08
:108F0000E8B12068EFB3404501D0484512D122486E
:108F100011E02068416821F060014160E06D20F4BB
:108F20008050E065E06DC005B1D4E06D40F0010017
:108F3000E065ACE71948806800F4604050B1E06D2E
:108F400040F48060E065206E40F00200206620461C
:108F5000FFF7CDFE216810200860700517D5680561
:108F600015D5E06D40F48040E065206E40F00800CB
:108F7000206621684FF4806008602046BDE8F84F05
:108F800000E001E0FFF78CBAC068C007D6E7BDE893
:108F9000F88F00000001005000030050000700504F
:108FA0000005005000040050F8B54FF00005040023
:108FB0002E46009502D0E06D10B107E00120F8BD0B
:108FC000204600F00BF9266684F858602068816816
:108FD000C1F3407119B18168734A11408160206802
:108FE0008168C1F3007189B98168704A114041F00C
:108FF000805181606E486F490068B0FBF1F040001D
:10900000801C00E0401E00900028FBD12068816891
:10901000C1F3007141B9E16D41F01001E165216ECC
:1090200041F001012166012505F058F8E16DC906FE
:1090300000D430B1E06D40F01000E0650125284615
:10904000F8BDE06D20F4807040F00200E06520681B
:10905000816811F0010F27D14FF0A043564A984282
:1090600001D0904204D19968966801F001010AE0AC
:1090700052498968524E01F00101B66806F00106B6
:109080003143504EB66806F0010631430CD1984288
:1090900001D0904201D14C4800E04C4861688268A0
:1090A00022F47C120A438260E168E06B627F08432D
:1090B000A16841EA4231084394F8241040EA014093
:1090C000012904D1218D424A02EB41410843E16A62
:1090D00029B101F47871226B014342EA0100226850
:1090E000D1683C4B19400143D16020680169626B33
:1090F00021F0406111430161206804F0E7FF70BB7B
:10910000207F94F838102268800340EA4100D1683B
:1091100044F2020399430143D1602069002820688A
:1091200001690AD041F480310161206850F8C01F04
:1091300022696FF30D01114307E021F480310161D1
:10914000206850F8C01F6FF30D01016094F84000D3
:1091500001280CD02068016921F0010101616069DA
:1091600001282068016B21F00F0111D013E0D4E930
:1091700011010843D4E913121143084321680A6915
:1091800040F2FC739A43104340F001000861E6E7A7
:10919000226A521E11430163E06D20F0020040F08C
:1091A0000100E0654BE70000C0FFFF5FC0FFFF7FED
:1091B000D0000020400D03000001005000040050CA
:1091C000000500500006005000030050000700504A
:1091D0000000FEFF0740F0FF704700002DE9F04F50
:1091E0009BB00646142115A8FBF73FFA54216846A8
:1091F000FBF73BFA4FF40041306800258A037A4FB1
:10920000DFF8E8A17A4C4FF001094FF00308B0F104
:10921000A04F10D0774B984265D1684611920091CB
:1092200002F072FF08B1FEF7CFF93868401C3860D1
:10923000012835D03CE068461192009102F064FFAD
:1092400008B1FEF7C1F93868401C3860012807D121
:10925000E06C40F40050E064E06C00F400501A90C0
:10926000E06C40F00400E064E06C00F004001A9050
:10927000E06C40F00100E064E06C15A900F0010032
:109280001A900420444681E83100504601F0DAF992
:1092900015A94FF09040CDF85490CDE9164515E052
:1092A000E06C40F40050E064E06C00F400501A9070
:1092B000E06C40F00400E064E06CCDF8549000F005
:1092C0000400CDE916851A9015A9504601F0BAF9A7
:1092D00000220121122002F037F9122002F027F9B2
:1092E0001BB0BDE8F08F444B4FF080099901CA03D1
:1092F0004FF4807A4FF4806B984235D168461292D1
:10930000009102F001FF08B1FEF75EF97868401C99
:109310007860012807D1E06C40F48040E064E06CA4
:1093200000F480401A90E06C40F00200E064E06CD1
:10933000CDF8548000F00200CDE916851A9015A9E9
:109340002E4801F07FF92F4C2D4820602520C4E9DC
:10935000010504F10C0080E8200EE561204625623D
:109360003AE07465A662BBE7274B9842B8D16846DD
:109370001292009102F0C8FE08B1FEF725F9786854
:10938000401C7860012807D1E06C40F48040E06424
:10939000E06C00F480401A90E06C40F00200E06461
:1093A000E06C179500F002001A904FF45040CDE9A0
:1093B000150815A9114801F045F9124C1048603CF8
:1093C000283820602620C4E9010504F10C0080E85B
:1093D000200EE5612046256200F084F90028C0D007
:1093E000FEF7F2F8BDE700007C000020000800480E
:1093F000001002400001005000040050000400482A
:10940000300002401C060020000500502DE9F0410C
:10941000044600684FF0A045444FA84201D0B8422E
:1094200001D1434900E04349896801F01F0604F077
:1094300055FE18B102210846BDE8F08194F85800A5
:1094400001280CD0012084F858002046FCF7DEFEED
:1094500001004FF0000204D084F85820EBE702200E
:10946000EAE7E06D40F60163984340F48070E06500
:109470002068314BDFF8C4C0B84201D1AE4604E0E9
:10948000984201D1E64600E08646864500D02EB9D6
:10949000D4F85CE02EF4801EC4F85CE0D4F85CE004
:1094A0005FEACE4E06D5D4F860E02EF0060EC4F882
:1094B00060E000E022664FF01C0EC0F800E084F887
:1094C00058202068B84201D12A4604E0984201D1D0
:1094D000624600E0024682420ED06EB1052E0BD0ED
:1094E000092E09D0E26D42F48012E265B84213D031
:1094F000984210D165460FE0C268920105D5E26D31
:1095000022F4005242F48052E26582680C4B1A4009
:10951000121D82608FE70546E86880018BD5E06DFB
:1095200020F4005040F48050E06584E700010050D2
:1095300000030050000700500005005000040050D8
:10954000C0FFFF7F10B590F8253000210122022BCB
:1095500003D00421C163012122E003681C6824F0C8
:109560000E041C60836C1C6824F480741C60036807
:109570001C6824F001041C6090F84430046C03F073
:109580001F0302FA03F36360D0E913345C60436D98
:1095900033B11C6824F480741C60D0E916345C601C
:1095A00080F82520002280F82420084610BD70B5E0
:1095B00090F82520002401212346022A07D0042206
:1095C000C26380F8251080F82430012429E0026865
:1095D000156825F00E0515600268156825F001056F
:1095E0001560826C156825F48075156090F844202C
:1095F000056C02F01F0201FA02F26A60D0E913253D
:109600005560426D32B1156825F480751560D0E95A
:109610001625556080F8251080F82430816B01B143
:109620008847204670BDC06B7047F0B4016C0C6871
:1096300001680D6890F8442002F01F06042202FA27
:1096400006F3234211D06B070FD50B689B0603D49A
:109650000B6823F004030B6090F8441001F01F0125
:109660008A40016C4A60016B1DE0022303FA06F791
:1096700027424FF0000C4FF0010218D0AF0716D56B
:109680000C68A40605D40C6824F00A040C6080F869
:10969000252090F8441001F01F018B40016C4B60B5
:1096A00080F824C0C16A00291AD0F0BC08470823FA
:1096B000B340234214D02B0712D50B6823F00E03BE
:1096C0000B6090F84410036C01F01F0102FA01F1E5
:1096D0005960C26380F8252080F824C0416BE2E71E
:1096E000F0BC704770B504000CD02B4A21681420E0
:1096F000914209D2294A0A44B2FBF0F0800060642A
:1097000027480AE0012070BD234A52420A44B2FBB6
:10971000F0F080006064204808382064022084F85B
:1097200025000A6847F6F0708243D4E90203184323
:10973000D4E904352B431843A3691843E36918435C
:10974000236A1843104308602046FDF779FCA0689F
:109750000025B0F5804F00D16560A16C20790860CC
:10976000D4E9130141606068401E032808D82046F0
:10977000FDF786FC606D0560D4E91601416002E0EA
:109780006565A565E565E563012084F8250084F835
:109790002450002070BD000008040240F8FFFDBF07
:1097A0000000024070B5044690F82400002501280E
:1097B0000CD0012084F8240094F825600020012EAC
:1097C00006D084F824000225284670BD022070BD12
:1097D000022684F82560E0632068066826F001060A
:1097E00006602046FDF75EFC206B002820680168BB
:1097F00002D041F00E0106E021F004010160206872
:10980000016841F00A010160A06C0168C90303D539
:10981000016841F480710160606D18B1016841F424
:10982000807101602068016841F001010160CBE7AF
:10983000094810B54FF0FF31816300228263016453
:10984000026481628262C162C2620163026301F0EA
:1098500043FE002010BD00000010024070B5044619
:1098600001F01AF80546601C02D004484068044420
:1098700001F012F8401BA042FAD370BD880000200E
:1098800030B590F85C30012B07D0022B05D0016E6B
:1098900041F002010166012030BD0468A36D4D074F
:1098A00001D0DD071DD011F0380F01D09D0718D56C
:1098B00011F4E07F01D05D0713D511F4F05F01D002
:1098C0001D070ED511F4604F01D0DD0609D511F446
:1098D000403F01D09D0604D511F47C0F05D05D06F4
:1098E00003D4E56D45F00105E5654C0701D0DC07C3
:1098F0001DD111F0380F01D09C0718D411F4E07F6E
:1099000001D05C0713D411F4F05F01D01C070ED412
:1099100011F4604F01D0DC0609D411F4403F01D0AE
:109920009C0604D411F47C0F06D05B0604D50368B2
:10993000DC6D44F00204DC650B0604D5036853F8C3
:10994000DC4F14431C60CB0504D5036853F8E04F8B
:1099500014431C600068426D0A434265002030BD1C
:1099600070B5044690F85C00022803D0206E40F0E9
:10997000080007E02068D0F8C4309B0205D5206EAF
:1099800040F400702066012070BDD0F8C400C0F320
:1099900001452B462046FDF71FFE21680120A84007
:1099A000C1F8CC00A065002070BD10B590F85C2017
:1099B000012A07D0022A05D0016E41F0020101669A
:1099C000012010BD0A687AB10B7B0A690C7A42EA61
:1099D00043734A69406C496842EA847200EBC100F3
:1099E000C0E90032002010BD0B7A4A690C8A42EAB5
:1099F00083720B7B006CDB06496843EA04431A431D
:109A000040F82120EEE730B590F85C50039C012D22
:109A100005D0016E41F004010166012030BD09014D
:109A2000006841EA820141EA430150F8802F214356
:109A300022F03F0211430160002030BD90F85C30FD
:109A4000012B05D0016E41F0040101660120704731
:109A5000006842EA012181640020704790F85C10A0
:109A6000012905D0016E41F0040101660120704713
:109A70000068C16841F40001C16000207047704770
:109A800070470000F0B590F85C400025022C03D030
:109A9000016E41F0080160E00468402946D0D4F826
:109AA0009860360756D0D4F89860F60104D5D4F8FB
:109AB0008060F60500D50125D4F89840C4F3012450
:109AC0006619C46C06EBC60504EBC504256815F0E1
:109AD00080455560256843D025F0604515602568B0
