:020000040800F2
:10000000C85B0120810200081B2700084B2500085F
:1000100019270008B5050008912900080000000014
:10002000000000000000000000000000F7270008AA
:10003000F905000800000000F5270008F92700086E
:100040009B0200089B0200089B0200089B0200081C
:100050009B0200089B0200089B0200089B0200080C
:100060009B0200089B0200089B0200089B020008FC
:100070009B0200089B0200089B0200089B020008EC
:100080009B0200089B0200089B0200089B020008DC
:100090009B0200089B0200089B0200089B020008CC
:1000A0009B0200089B0200089B0200089B020008BC
:1000B000792800089B0200089B0200089B020008A8
:1000C0009B0200089B0200089B0200089B0200089C
:1000D0009B0200089B0200089B0200089B0200088C
:1000E0009B0200089B0200089B0200089B0200087C
:1000F0009B0200089B0200089B0200089B0200086C
:100100009B0200089B0200089B0200089B0200085B
:100110009B0200089B0200089B0200089B0200084B
:100120009B0200089B0200089B0200089B0200083B
:100130009B0200089B0200089B0200089B0200082B
:100140009B0200089B0200089B0200089B0200081B
:100150009B0200089B0200089B0200089B0200080B
:100160009B0200089B0200089B0200089B020008FB
:100170009B0200089B0200089B0200089B020008EB
:100180009B0200089B0200089B0200089B020008DB
:100190009B02000800000000010600089B02000806
:1001A0009B0200089B0200089B0200089B020008BB
:1001B0009B0200089B0200089B0200089B020008AB
:1001C0009B0200089B0200089B0200089B0200089B
:1001D0009B0200089B02000800F002F800F040F8C3
:1001E0000AA090E8000C82448344AAF10107DA4592
:1001F00001D100F035F8AFF2090EBAE80F0013F0A4
:10020000010F18BFFB1A43F001031847C42A00006E
:10021000E42A0000103A24BF78C878C1FAD85207FF
:1002200024BF30C830C144BF04680C607047000070
:100230000023002400250026103A28BF78C1FBD8EF
:10024000520728BF30C148BF0B6070471FB502F08E
:1002500029FD9DE8030000F0CFF81FBD10B510BDCB
:1002600000F026F91146FFF7F1FF02F0E7FB00F07E
:1002700044F903B4FFF7F2FF03BC00F075F9000086
:100280000948804709480047FEE7FEE7FEE7FEE72A
:10029000FEE7FEE7FEE7FEE7FEE7FEE70448054966
:1002A000054A064B7047000069280008D90100087C
:1002B000C8070020C85B0120C8570120C85701208B
:1002C00070B5064600F07CF8056806F10B0020F0DA
:1002D0000704B4429CBF002070BD2B466A68BAB1C7
:1002E0001068A04210D304F1080188423CBF506856
:1002F000586007D35168101941601168091B0160EB
:1003000058601460101D70BD13465268002AE7D172
:100310002146284600F05CF80028DED170BD70B59B
:100320000446051F00F04CF80068002C14BF446818
:1003300070BD002C18BFAC423CBF20466468F8D3A7
:1003400001680A18AA4218BF456003D12A68054609
:100350001144016028684119A1421CBF6C6070BD46
:100360006168696021680844286070BD4FF0000230
:1003700000B5134694469646203922BFA0E80C509B
:10038000A0E80C50B1F12001BFF4F7AF090728BF76
:10039000A0E80C5048BF0CC05DF804EB890028BFF2
:1003A00040F8042B08BF704748BF20F8022B11F01B
:1003B000804F18BF00F8012B704770477047704797
:1003C000004870476C0700207047704770477047BF
:1003D00038B504460A4600206946AFF3008000287D
:1003E00008BF38BD02460099204600F03FF80120C2
:1003F00038BD012000F054B8F8B5AFF300800546D1
:1004000000200C46102000BF0646A819A0420DD9B6
:10041000324669460020AFF30080070008BF00F0B5
:100420003FF80098A04218BF0546C419FFF7C8FF5F
:1004300005600746F01D20F007004619284600F029
:100440000AF8B44208BFF8BDA21B31463868BDE8BF
:10045000F84000F00BB800210160C0E901107047BE
:10046000102070470048704764070020034640682A
:100470008C46002818BF88423CBF03464068F8D32A
:1004800018681844884207D00CF1030020F00700D8
:10049000001D411A521A0146081D0A60FFF73FBFAE
:1004A00010B500F039F8BDE8104000F02FB87047E3
:1004B0007546FFF7D7FFAE4605006946534620F064
:1004C0000700854618B020B5FFF7E8FEBDE82040DC
:1004D0004FF000064FF000074FF000084FF0000B00
:1004E00021F00701AC46ACE8C009ACE8C009ACE8B3
:1004F000C009ACE8C0098D46704710B50446AFF39B
:1005000000802046BDE81040FFF7B3BE002801D0B0
:1005100000F02AB87047000010B5012805D000216E
:1005200003A000F027F8012010BD09A1F8E70000A2
:1005300053494752544D454D3A204F7574206F66CC
:100540002068656170206D656D6F72790000000034
:100550003A2048656170206D656D6F727920636F18
:10056000727275707465640001491820ABBEFEE7B5
:100570002600020070B505460C460A2000E06D1CFE
:1005800000F011F835B128780028F8D102E0641C99
:1005900000F009F814B120780028F8D1BDE87040C7
:1005A0000A20AFF3008008B569468DF800000320EB
:1005B000ABBE08BDFEE700002DE9F0410D4C002563
:1005C0000746C4E90025C4E902534FF48010C4E98A
:1005D00004504000C4E906050E46384600F080FA93
:1005E0000028FAD032463846BDE8F041014900F013
:1005F00089B9000040070020704772B6FEE700008E
:10060000014800F074BA000084050020F0B5D1E97B
:1006100001650C692C430D68C6B145F080452C433B
:10062000D1E90665354391F820704E69406D46EA80
:10063000076635438E8903EBC30300EBC30045EA2D
:100640000645E0E8024500230B4D0FE044EA8544EF
:10065000E6E7D418D65CE77846EA0766A7786478B8
:100660003F0447EA0424264340C01B1DCC682C5D90
:100670009C42EED8F0BD0000AE2C0008144A117F59
:100680001448012901D003290FD1036823F4007312
:100690000360036843F400630360036823F40063AA
:1006A0000360036843F400730360022901D0032947
:1006B0000BD1016841F480510160016821F480513F
:1006C0000160016841F4806101600020107770478B
:1006D00040000020002002400C490A6A520210D556
:1006E000C20703D04A6942F004024A61800703D579
:1006F000486940F400404861486940F480304861EE
:100700007047486948F204021043F4E700200240B1
:100710000E4A136A5B0201D5C90703D0516921F45F
:10072000006102E0516941F4006151615169C0B258
:1007300021F47E7141EAC0005061506940F002002E
:100740005061506940F48030506170470020024091
:10075000054910B54C6944F001044C610260BFF3D7
:100760006F8F436010BD000000200240094A10B5A1
:100770005469402344F480245461EFF3108272B62C
:1007800010C95B1E10C013F0FF03F9D182F310886B
:1007900010BD00000020024070B5064600F07EFE4D
:1007A0000546134C07E000BF00F078FE401BB04246
:1007B00001D9032070BD2069C003F5D420694CF233
:1007C000FA3108400CD00B494A6802434A60010FD5
:1007D00001D0A169A161010100D02061012070BD9B
:1007E0002069C00701D001202061002070BD0000F9
:1007F0000020024040000020094810B54FF0FF31B2
:100800008163002282630164026481628262C16248
:10081000C2620163026300F081FE002010BD00008F
:100820000010024030B590F85C30012B07D0022B4D
:1008300005D0016E41F002010166012030BD04685F
:10084000A36D4D0701D0DD071DD011F0380F01D089
:100850009D0718D511F4E07F01D05D0713D511F481
:10086000F05F01D01D070ED511F4604F01D0DD06F9
:1008700009D511F4403F01D09D0604D511F47C0F39
:1008800005D05D0603D4E56D45F00105E5654C072F
:1008900001D0DC071DD111F0380F01D09C0718D40E
:1008A00011F4E07F01D05C0713D411F4F05F01D0A4
:1008B0001C070ED411F4604F01D0DC0609D411F4EA
:1008C000403F01D09C0604D411F47C0F06D05B0697
:1008D00004D50368DC6D44F00204DC650B0604D526
:1008E000036853F8DC4F14431C60CB0504D5036840
:1008F00053F8E04F14431C600068426D0A434265A0
:10090000002030BD70B5044690F85C00022803D08A
:10091000206E40F0080007E02068D0F8C4309B0249
:1009200005D5206E40F400702066012070BDD0F81F
:10093000C400C0F301452B462046FFF767FE21683F
:100940000120A840C1F8CC00A065002070BD30B5E2
:1009500090F85C50039C012D05D0016E41F004011C
:100960000166012030BD0901006841EA820141EAC7
:10097000430150F8802F214322F03F0211430160D0
:10098000002030BD90F85C30012B05D0016E41F0A5
:100990000401016601207047006842EA0121816478
:1009A0000020704790F85C10012905D0016E41F0DD
:1009B00004010166012070470068C16841F400012C
:1009C000C16000207047704770470000F0B590F894
:1009D0005C400025022C03D0016E41F0080160E06C
:1009E0000468402946D0D4F89860360756D0D4F829
:1009F0009860F60104D5D4F88060F60500D501258D
:100A0000D4F89840C4F301246619C46C06EBC605FB
:100A100004EBC504256815F080455560256843D072
:100A200025F06045156025682C4F05F00055956050
:100A300020CC05F00045156134F8045BADB2D561FA
:100A400054F8045CC5F30345D56054F8045C05F420
:100A50008015556154F8045C05F40015956154F84F
:100A6000045CC5F30665156254F8045CED0F55622D
:100A7000002522E0D4F8906036070FD0D4F89060BB
:100A8000F60104D5D4F88060B60500D50125D4F868
:100A90009040C4F301246619846CB7E7016E41F4F9
:100AA000807101660120F0BDC5F38A45BAE700BF39
:100AB00014F805C003F805C06D1CD2F80CC017F877
:100AC0000CC0AC45F4D80068402903D0C0F89C6045
:100AD0000020F0BDC0F89460FAE70000AE2C0008DA
:100AE0000068D0F8C40000F00700704770472DE997
:100AF000F05F04460068016D426D01F4E05102EAC6
:100B00000108016D426D01F0070102EA0109016D62
:100B1000426D01F0380102EA010A016D476D01F4EE
:100B200071010F40016D426D01F46021456D02EAD3
:100B3000010B016DCE43710607D4E943490604D485
:100B4000402101652046FFF7D1FFF0050ED4E843B0
:100B5000C0050BD42068D0F8D820D0F8E0101140A0
:100B60004FF480720265204600F07FFAB8F1000071
:100B700005D0216808654146204600F078FAB9F1B1
:100B8000000005D0216808654946204600F0B6F906
:100B9000BAF1000005D0216808655146204600F0F2
:100BA0004BFAB00509D4E843800506D421684FF418
:100BB00000700865204600F05BFA30060DD4E8436B
:100BC00000060AD42068D0F8D420D0F8DC101140F8
:100BD00080220265204600F049FAB00409D4E843B7
:100BE000800406D421684FF400500865204600F0C8
:100BF0003BFA300409D4E843000406D421684FF4DA
:100C000000400865204600F02EFA70040AD4E8433C
:100C1000400407D421684FF480400865206E40F0FE
:100C200080002066BBF1000005D0216808655946A8
:100C30002046FFF7C9FE27B120680765206E3843BC
:100C40002066206E002802D02046FFF7BCFEBDE8DB
:100C5000F09F00002DE9F041040006D0DFF8F48198
:100C600094F85C00002518B107E00120BDE8F08190
:100C700084F85D50204600F0F9F82068816921F081
:100C80001001816100F00AFC0646032705E000BF61
:100C900000F004FC801B0A2811D820688069000736
:100CA000F6D42068816941F00101816100F0F6FB12
:100CB00006460BE000F0F2FB801B0A2806D9206EE6
:100CC00040F00100206684F85C70CEE720688069FF
:100CD000C007EFD02068816941F00201816121687D
:100CE000414502D15C4960680860207C0128206889
:100CF000816937D041F040018161607C0128206822
:100D0000816932D021F480418161A07C0128206872
:100D100081692DD041F48051816120688169A26888
:100D200021F44071114381612068816921F0A4019F
:100D300081612068016921F010010161E0680128EA
:100D400019D010B302281BD02068816941F08001BE
:100D500081612068016941F010010161E0680328A8
:100D60000ED012E021F04001C6E741F48041CBE70C
:100D700021F48051D0E72068816941F0040103E04B
:100D80002068816941F020018161207EE26940068E
:100D90006FF0FF0101EB0222A0F100701043226A04
:100DA000A38A521E10430A0202EB0343184323682E
:100DB000D861A068B0F5407F10D1D4E90A0301EBF7
:100DC0000321401E0843216B131303EB0111084359
:100DD000A18C02EB014108432168C860206850F8EB
:100DE000C01FE26B114301601D4A21681B489142FC
:100DF00000D11C481C4A914201D100F5D460206406
:100E000051F8802FA38E22F4F81242EA03420A60BE
:100E100000F170016164216851F8802F94F8383036
:100E200022F0706242EA03620A6000F1B001A1643C
:100E3000D831E164D831216518316165D83100E0DD
:100E400020C08842FCD3A5652566012084F85C009B
:100E500000200BE7006400400065004000A4004053
:100E60000068004050A70040006C004010B59CB0E6
:100E70000446142115A8FFF779FA54216846FFF7B4
:100E800075FA1B492068884230D1801400904003D5
:100E90000E90684600F002FC08B1FFF7AEFB154863
:100EA000816D41F000718165816D01F000711A91D1
:100EB000C16C41F00201C164C06C15A900F00200D0
:100EC0001A906020159002201690002017900320A1
:100ED000189009201990084800F0AEF90022114638
:100EE000562000F043FB562000F032FB1CB010BD32
:100EF0000068004000100240000400482DE9F0475F
:100F0000C9074ED0474B4021A3F12802FFF75EFDF1
:100F100018B1BDE8F047FFF770BB424E424C283E87
:100F20003068A0F58061FF3906D1042306F168011D
:100F30003E486268FFF740FB6268306802F58063F4
:100F400038493B4D3B4C984202D12B78032B2AD099
:100F500002F5A062904224D1C879EF284AD0FE2839
:100F60001FD1287803281CD148880B7940BA000487
:100F700040EA03234879034363602A4861694030AB
:100F8000994239D11221017034214170562181706A
:100F90007821C170014604232448FFF70DFB02208D
:100FA0002870BDE8F087307B01F003FD20702269D6
:100FB00004F11407521C2261D4E9023597E8C010ED
:100FC00000224FF420490FE011F802804B4503D274
:100FD00007F803805B1C02E00CF805806D1C11F81B
:100FE0000280521C4644D2B28242EDD36661C4E90B
:100FF0000235D6E70120D3E7FF21017041708170EF
:10100000C1700849042340310848FFF7D5FA002091
:101010002870A069FFF783F9E069BDE8F047FFF7A2
:101020007EB90000C0060020840100208405002055
:101030001100002064000020704790F85C10012926
:1010400005D0016E41F004010166012070470221C4
:1010500080F85C1001688A6922F001028A6100212F
:101060000166084670477047704770477047704781
:10107000704700002DE9F05F054633488946017846
:1010800001290CD00126804606704FF47A7B584621
:10109000FFF782FB07004FF0000A03D04FE0022069
:1010A000BDE8F09F51464046C8F804A0274C22688E
:1010B00092050AD52168490505D5216821F480618A
:1010C0002160032109E0067708E02268520504D573
:1010D000216821F4806121600221017728680128BC
:1010E00007D04FF0FF31C9F8001040F2FA3BAE686C
:1010F0001EE06868FFF7F0FA5846FFF74DFB074619
:10110000606948F204018843606116E0304669680E
:10111000FFF7FEFA4FF47A70FFF73EFB07006069B5
:1011200020EA0B00606102D0C9F8006005E0761C7F
:10113000D5E902010844B042E8D8FFF79FFA88F8E1
:1011400000A03846ACE7000040000020002002402C
:10115000054901204A6942F000424A614969002973
:1011600000DA002070470000002002402DE9FF5FF8
:10117000254C0646904620789A4601280BD001203F
:1011800020704FF47A7B5846FFF706FB07004FF0BC
:10119000000904D02AE0022004B0BDE8F09F4846D0
:1011A000C4F80490194D2968490504D5286820F42D
:1011B000806028600220207726B1012E09D0022EFF
:1011C00007D00CE0424653460198FFF7C1FA0126CA
:1011D00012E041460198FFF7C9FA022E0AD058469C
:1011E000FFF7DAFA4FEA0007FFF748FA84F80090B1
:1011F0003846D1E74FF480265846FFF7CDFA074628
:101200006869B0436861EFE74000002000200240B9
:10121000064900204A69002A07DA054A8A60054A19
:101220008A604969002900DA0120704700200240E5
:1012300023016745AB89EFCD2DE9F04FDFF8209210
:10124000002301260324A9F1040B85B00F2709F11F
:10125000040AABF1040EFAE006FA03F52A407CD04A
:1012600091F804C00CF0030CBCF1010F02D0BCF1EA
:10127000020F26D1D0F808C0CDF800C04FEA430CC9
:1012800004FA0CF8CDF810C0DDF800C02CEA080C08
:10129000CDF800C0D1F80C80DDF810C008FA0CF8C9
:1012A000DDF800C048EA0C08C0F80880D0F804C097
:1012B0002CEA050C0D79C5F300159D4045EA0C0597
:1012C00045600D79ED43AD070ED0C5684FEA430880
:1012D00004FA08FC25EA0C05D1F808C00CFA08FC51
:1012E0004CEA050CC0F80CC00D7905F00305022D81
:1012F00016D1DD0800EB850CCDF808C0DCF82080A5
:101300005D074FEAD56C07FA0CF528EA05080D6968
:1013100005FA0CF5DDF808C045EA0805CCF82050C0
:1013200005684FEA430CCDF808C004FA0CFC25EA26
:101330000C0591F804C00CF00308DDF808C008FAA9
:101340000CF848EA0508C0F800804D6815F4403FE5
:101350007CD0444DD5F860C000E077E04CF0010C43
:10136000C5F860C02D6E23F0030C05F00105009553
:101370003D4D65440295AD684FEA837C4FEA1C7889
:1013800007FA08FC25EA0C05B0F1904F06D0DFF80B
:10139000DCC0604505D14FF0010C20E04FF0000C9F
:1013A0001DE0DFF8CCC0604502D14FF0020C16E022
:1013B000DFF8C0C0604502D14FF0030C0FE0DFF84A
:1013C000B8C0604502D14FF0040C08E0DFF8ACC0B3
:1013D000604502D14FF0050C01E04FF0060C0CFA0D
:1013E00008FC4CEA050C029DC5F808C0D9F800506D
:1013F000CC46D1F8048095435FEAC82800D5154350
:10140000CCF80050DAF80050D446D1F80480954367
:101410005FEA882800D51543CCF80050DBF800506F
:10142000DC46D1F8048095435FEA883800D515433F
:10143000CCF80050DEF80050F446D1F80480954313
:101440005FEAC83800D51543CCF800505B1C0A6829
:1014500032FA03F57FF400AF05B0BDE8F08F00006D
:101460000804014000100240000001400004004850
:1014700000080048000C0048001000480014004814
:10148000426921EA02030A4043EA0241816170474E
:101490000AB181617047816270470000014880682D
:1014A00070470000340000200248816842681144FF
:1014B000816070473400002010B50024032000F044
:1014C00075F80F2000F008F808B1012401E000F0E1
:1014D00027F8204610BD000070B50E4E05460024CA
:1014E000706898B14FF47A71B1FBF0F00A4909685D
:1014F000B1FBF0F000F020FE40B9102D06D2002222
:101500002946501E00F032F8356000E001242046E4
:1015100070BD000034000020600000207047000013
:101520000A4882B0016E41F001010166016E01F0CE
:1015300001010091816D41F080518165806D00F065
:101540008050009002B000F0A1B8000000100240EE
:10155000002809DB00F01F020121914040098000B2
:1015600000F1E020C0F8001170470000F0B40E4B0D
:101570001B680C46C3F30223C3F10705042D00D9F1
:101580000425191D072901D2002300E0DB1E0126D6
:1015900006FA05F1491E214099409E40761E1640EC
:1015A0003143F0BC01F0F5B90CED00E0064900F064
:1015B000070208684FF6FF03184040EA0220034A7A
:1015C00010430860704700000CED00E00000FA05D1
:1015D0002B492C4B0A6832214A432B4940B1B0F5C4
:1015E000007F086829D020F4C06040F480602CE0BF
:1015F0000868C0F34120022804D051F8800F20F47D
:10160000807022E0D1F8800020F48070C1F8800062
:10161000086820F4C06040F400700860B2FBF3F08A
:10162000401C00E0401E4A69520501D50028F9D14E
:10163000486940050AD503207047C0F341200228BD
:1016400006D051F8800F40F4807008600020704789
:10165000D1F8800040F48070C1F88000086820F460
:10166000C06040F400700860B2FBF3F0401C00E082
:10167000401E4A695205DBD50028F9D1D8E70000A1
:101680006000002040420F00007000400248816866
:1016900041F4804181607047007000402DE9F843BB
:1016A000044600680026BB4D00035ED5A86D0027E8
:1016B000C00008D4A86D40F08050A865A86D01272F
:1016C00000F080500090DFF8D092D9F8001041F47B
:1016D0008071C9F80010FFF7E1FE804606E000BF08
:1016E000FFF7DCFEA0EB080002282BD8D9F8000099
:1016F000C005F5D5D5F8900010F4407014D0216DD8
:10170000814211D0D5F89000D5F8901020F44070A7
:1017100041F48031C5F89010D5F8901021F4803153
:10172000C5F89010C5F89000C00711D0FFF7B6FEBD
:10173000804641F2883907E0FFF7B0FEA0EB0801D0
:10174000494501D903260BE0D5F890008007F3D571
:10175000D5F89000216D20F440700843C5F8900042
:101760001FB1A86D20F08050A8652078C00707D071
:10177000D5F88800616820F003000843C5F88800A8
:101780002078800707D5D5F88800A16820F00C00E4
:101790000843C5F888002078400707D5D5F88800A9
:1017A000E16820F030000843C5F888002078000781
:1017B00007D5D5F88800216920F0C0000843C5F896
:1017C00088002078C00607D5D5F88800616920F424
:1017D00040700843C5F888002078800607D5D5F802
:1017E0008800A16920F440600843C5F8880020788B
:1017F000400607D5D5F88800E16920F44050084339
:10180000C5F888002078000607D5D5F88800216A39
:1018100020F440400843C5F888002088C00507D55B
:10182000D5F88800616A20F440300843C5F8880084
:101830002068800307D5D5F89C00A16A20F003003A
:101840000843C5F89C002088800507D5D5F8880096
:10185000E16A20F440200843C5F88800208840054C
:101860000FD5D5F88800216B20F440100843C5F847
:101870008800206BB0F5801F03D1E86840F4801029
:10188000E860208800050FD5D5F88800616B20F44A
:1018900040000843C5F88800606BB0F5800F03D1A5
:1018A000E86840F48010E8602088C0040FD5D5F8BF
:1018B0008800A16B20F040700843C5F88800A06B39
:1018C000B0F1807F03D1E86840F48010E8602088A0
:1018D0004FF0006180040ED5D5F88800E26B20F04F
:1018E00040601043C5F88800E06B884203D1E86887
:1018F00040F48010E860208840040ED5D5F88800B8
:10190000226C20F040601043C5F88800206C8842AB
:1019100003D1E86840F48010E860208800040FD507
:10192000D5F88800616C20F040500843C5F8880065
:10193000606CB0F1805F03D1E86840F48030E8600B
:101940002068C0030FD5D5F88800A16C20F0404076
:101950000843C5F88800A06CB0F1804F03D1E86857
:1019600040F48030E860206840030FD5D5F89C0033
:10197000E16C20F440100843C5F89C00E06CB0F521
:10198000001F03D1E86840F48010E8603046BDE8ED
:10199000F883000000100240007000402DE9F0477D
:1019A0000E4605004FF0000725D0DFF8AC81D8F8CF
:1019B000000000F00F00B0420CD2D8F8001021F067
:1019C0000F013143C8F80010D8F8000000F00F00F4
:1019D000B04210D12968614CC80741F2883A5AD008
:1019E0006868DFF87C91032808D0022820682DD091
:1019F000400500282CDB0120BDE8F087206880012D
:101A0000F9D5E06800F00302E068C0F30310401C61
:101A1000032A19D0534A00BFB2FBF0F0E268C2F3C8
:101A200006225043E268C2F34162521C5200B0FBEE
:101A3000F2F0484517D9A06810F0F00F0CD08807D5
:101A400011D5A86840B10EE0474AE5E78003D0E72A
:101A500000F092F8484506D9A06820F0F00040F068
:101A60008000A0608027A068696820F00300084318
:101A7000A060FFF713FD814606E000BFFFF70EFDF3
:101A8000A0EB090151453AD8A068696800F00C0044
:101A9000B0EB810FF2D12868810714D5400703D538
:101AA000A06840F4E060A0602878000705D5A06831
:101AB00020F4605040F4E060A060A068A96820F0C5
:101AC000F000084304E0802F03D1A06820F0F0006C
:101AD000A060D8F80010404601F00F01B14216D9BD
:101AE000016821F00F0131430160FFF7D7FC074681
:101AF00007E000BFFFF7D2FCC11B514501D903200D
:101B00007AE7D8F8000000F00F00B042F2D1287850
:101B1000400705D5A068E96820F4E0600843A060AC
:101B20002878000706D5A068296920F4605040EAAB
:101B3000C100A06000F020F8A1680C4AC1F30311B5
:101B4000515C01F01F01C84009490860094800685C
:101B5000BDE8F047FFF7C0BC002002400010024083
:101B600000B4C4040024F40040787D01BE2C0008B9
:101B70006000002034000020184910B58868C0F3C8
:101B800081021748012A0BD08A68164BC2F38102E2
:101B9000022A06D08A68C2F38102032A03D00020F9
:101BA00010BD184610BDCA6802F00304CA68C2F32B
:101BB0000312521C032C02D0B0FBF2F001E0B3FB85
:101BC000F2F0CA68C968C2F306225043C1F341610A
:101BD000491C4900B0FBF1F010BD000000100240AC
:101BE0000024F40040787D012DE9F84304007AD008
:101BF0002078F84DC00747D0A868E96800F00C00CD
:101C000001F003010C2802D0082817D001E00329B5
:101C100014D06068B0F5803F17D0B0F5A02F2868C9
:101C200017D020F480302860286820F480202860B5
:101C30006068E0B1FFF732FC064614E028688003D4
:101C400022D560680028D2D01EE0286840F4803099
:101C5000EDE740F480202860F7E700BFFFF71EFCA7
:101C6000801B642870D828688003F7D50CE0FFF744
:101C700015FC064605E000BFFFF710FC801B64283A
:101C8000F0D828688003F7D4207880074CD5A8685E
:101C9000E96800F00C0001F003010C2802D00428D0
:101CA0000DD001E002290AD0E068002828682BD076
:101CB00040F480702860FFF7F1FB064619E02868C1
:101CC000400502D5E068002891D06868217C20F0AA
:101CD000FE4040EA01606860BF480068FFF7FCFB17
:101CE000002800D120E072E1FFF7D8FB801B02281A
:101CF000B8D828684005F7D56868217C20F0FE40F8
:101D000040EA016068600FE020F480702860FFF70F
:101D1000C5FB064605E000BFFFF7C0FB801B02289D
:101D2000A0D828684005F7D42078000729D5606935
:101D30000028D5F8940013D040F00100C5F89400B5
:101D4000FFF7ACFB064606E090E000BFFFF7A6FBFE
:101D5000801B022886D8D5F894008007F6D510E0BD
:101D600020F00100C5F89400FFF798FB064604E058
:101D7000FFF794FB801B022878D8D5F894008007E1
:101D8000F6D42078400761D5A86D0026C00008D49D
:101D9000A86D40F08050A865A86D012600F0805025
:101DA00000908E480168C90511D40168804641F44D
:101DB00080710160FFF772FB074604E0FFF76EFBDE
:101DC000C01B022852D8D8F80000C005F6D5A0687C
:101DD000012815D00528D5F8900016D020F0010074
:101DE000C5F89000D5F8900020F00400C5F89000E8
:101DF000A06841F28838B8B1FFF750FB07460EE003
:101E0000D5F8900040F00100F0E740F00400C5F87C
:101E10009000F5E7FFF742FBC11B414526D8D5F8F6
:101E200090008007F6D50CE0FFF738FB074604E08A
:101E3000FFF734FBC11B414518D8D5F89000800747
:101E4000F6D41EB1A86D20F08050A86520788006D9
:101E500029D5A0690028D5F8980013D040F00100DA
:101E6000C5F89800FFF71AFB064606E075E000BFCC
:101E7000FFF714FB801B02286FD8D5F89800800765
:101E8000F6D510E020F00100C5F89800FFF706FB3A
:101E9000064604E0FFF702FB801B02285DD8D5F858
:101EA00098008007F6D4E069F0B3A968C1F3810116
:101EB00003295DD00228286820F08070286003D0B4
:101EC000FFF7ECFA04464BE0FFF7E8FA064604E0B9
:101ED000FFF7E4FA801B02283FD828688001F7D476
:101EE000F4E908016FF00F0202EB01110843218AA7
:101EF0005204490802EB4151A26841EA0221084319
:101F0000217D4FF07E42490802EB41610843217B6D
:101F100040EAC160E968324A11400843E860286835
:101F200040F08070286000E05EE0E86840F080707B
:101F3000E860FFF7B3FA044605E000BFFFF7AEFA2A
:101F4000001B022809D828688001F7D54CE000BFA3
:101F5000FFF7A4FA001B022802D90320BDE8F8838A
:101F600028688001F4D4E8681E490840E8603BE036
:101F70000128F3D0E868226A00F00301914226D1DB
:101F8000616A00F0F0020901103991421FD1A26A82
:101F900000F4FE41B1EB022F19D194F82C2000F08F
:101FA0007841B1EBC26F12D1218E00F4C002490812
:101FB0004905A1F50011914209D194F8341000F0BF
:101FC000C06049084906A1F1007181420CD001208E
:101FD000C4E7000000100240340000200070004000
:101FE0000C809F01FCFFEEFE0020B7E770B50400F7
:101FF00009D0606A002540B125616561A56294F849
:102000005D0040B10CE0012070BD6068B0F5827FDA
:10201000F4D0E561F2E784F85C50204600F05CF80B
:10202000022084F85D002068016821F04001016011
:10203000E1684FF4E062914201D9002001E04FF4E1
:102040008050B1F5706F02D0914200D0A562A18896
:10205000228901F4827102F404421143227C02F0CD
:1020600002021143227D02F001021143228B02F48D
:1020700000721143227F02F03802114394F82020AD
:1020800002F080021143228D02F4005211432268B3
:102090001160A169042202EA114194F8242000F49D
:1020A000805002F01002114394F8342002F008022C
:1020B0001143A28902F47062114301432068416018
:1020C0002068C16921F40061C1612566012084F89E
:1020D0005D00002070BD000010B586B004461421DC
:1020E0006846FEF743F91249206888421ED111481C
:1020F000016E41F480510166016E01F48051059139
:10210000C16C41F00101C164C06C694600F001007E
:102110000590E020009002200190002002900390A2
:10212000052004904FF09040FFF786F806B010BDF0
:10213000003001400010024010B5401EB0F1807F19
:1021400001D3012010BD4FF0E02460610F21601722
:1021500000F01FFC0020A06107202061002010BDBE
:10216000704770477047704770477047F0B590F8F8
:102170003C20012A43D0012580F83C50022280F8FF
:102180003D2003685A689C681E4E1F4FDFF87CC0D4
:10219000B34203D0BB4201D0634504D122F4700E98
:1021A0004A6842EA0E02DFF868E002EA0E02D1F85D
:1021B00000E04EEA020EC3F804E00268B24212D018
:1021C000B2F1804F0FD0134B9A420CD0124B9A426F
:1021D00009D0124B9A4206D0BA4204D0104B9A4210
:1021E00001D0624504D1896824F0800319439160CD
:1021F00080F83D50002180F83C100846F0BD0220D8
:10220000F0BD0000002C01400034014000500140AE
:102210008FFFFFFD0004004000080040000C00405C
:10222000004001407047000090F83D10012901D0A6
:1022300001207047022180F83D100168CA6842F011
:102240000102CA6000681349884214D0B0F1804F7F
:1022500011D0114988420ED0104988420BD0104944
:10226000884208D00F49884205D00F49884202D0E1
:102270000E49884207D181680D4A1140062906D0CF
:10228000B1F5803F03D0016841F0010101600020F9
:1022900070470000002C014000040040000800408E
:1022A000000C00400034014000400140005001405B
:1022B0000700010070472DE9F04104460068C66838
:1022C00005694FF00007A90713D5B10711D5F91E0D
:1022D000016101202077206880698007204602D0B4
:1022E000FFF7E8FF04E000F0DFF8204600F02AF9ED
:1022F0002777680716D5700714D521686FF004009A
:102300000861022020772068806910F4407F204611
:1023100002D0FFF7CFFF04E000F0C6F8204600F03F
:1023200011F92777280715D5300713D521686FF0E5
:1023300008000861042020772068C06980072046D3
:1023400002D0FFF7B7FF04E000F0AEF8204600F03F
:10235000F9F82777E80616D5F00614D521686FF04E
:1023600010000861082020772068C06910F4407FC1
:10237000204602D0FFF79EFF04E000F095F82046CB
:1023800000F0E0F82777E80708D0F00706D02168CA
:102390006FF001000861204600F0D5F8280601D44E
:1023A000A80408D5300606D521686FF402500861EC
:1023B0002046FFF7D6FEE80508D5300606D5216889
:1023C0006FF4807008612046FFF7CAFE680608D5E2
:1023D000700606D521686FF040000861204600F0C5
:1023E000B3F8A80608D5B00606D521686FF020001E
:1023F00008612046FFF7B6FEE80208D5F00206D5D0
:1024000021686FF4801008612046FFF7ADFEA80236
:1024100008D5B00206D521686FF400100861204687
:10242000FFF7A1FE680208D5700206D521686FF497
:10243000800008612046FFF798FE28020AD5300286
:1024400008D521686FF4000008612046BDE8F0411E
:10245000FFF7E8BEBDE8F08110B586B00446142150
:102460006846FDF783FF2068B0F1804F17D10D4813
:10247000C16C41F00101C164C06C694600F001000B
:1024800005904FF40040009002200190002002903F
:102490000390012004904FF09040FEF7CDFE06B06F
:1024A00010BD000000100240704710B5040003D0BA
:1024B00094F83D0010B107E0012010BD002084F821
:1024C0003C00204600F022F8022084F83D00211D47
:1024D000206800F0EBF9012084F8480084F83E0001
:1024E00084F83F0084F8400084F8410084F84200FA
:1024F00084F8430084F8440084F8450084F84600DA
:1025000084F8470084F83D00002010BD08B500683D
:10251000B0F1804F12D10A48816D41F0010181650F
:10252000806D002200F00100009011461C20FFF792
:102530001DF8BDE808401C20FFF70AB808BD0000E0
:1025400000100240704770477047FEE7F8B5204C16
:102550001E484FF4407120600020C4E90101E06092
:1025600020746074A0740A210125C4E905150D21A9
:10257000E1610321C4E908151821C4E90A510921C0
:10258000C4E90C10A063E0632046FEF763FB08B1CA
:10259000FEF733F8E66A606A46430D48FEF702FA32
:1025A000002231460A48FEF7EDF9002201231146C8
:1025B00007480095FEF7CBF90548FEF73EFDBDE85C
:1025C000F840002201210248FEF72CB900680040C3
:1025D00084050020F0B587B014216846FDF7C6FEDB
:1025E0002148C16C41F02001C164C16C01F020019F
:1025F0000591C16C41F00101C164C16C01F00101A0
:102600000591C16C41F00401C164C16C01F0040189
:102610000591C16C41F00201C164C06C4FF090465D
:1026200000F002000590002218213046FEF730FF2E
:102630000E4F002210213846FEF72AFF1820009086
:1026400001250024CDE90154694630460394FEF784
:10265000F3FD10200090CDE90154694638460394FB
:10266000FEF7EAFD07B0F0BD001002400008004888
:10267000124810B5104901604FF482714160002189
:102680004FF4E062C0E902124FF400720161C0E948
:1026900005121822C0E9072107224162C0E90A1287
:1026A000016308214163FFF7A1FC002803D0BDE8C6
:1026B0001040FDF7A2BF10BD00300140E80500202A
:1026C00010B58AB00024009401941C2103A8029440
:1026D000FDF74CFE0F484FF0804101601021C0E92A
:1026E000011440F2F311C0E903148461FFF7DDFE29
:1026F00008B1FDF782FF0094694606480294FFF78F
:1027000035FD08B1FDF779FF0248FFF7A5FE0AB0D5
:1027100010BD00004C060020FEE7FEE710B50B4898
:102720000B4A002102EB810350F8044B491C1C604A
:102730004029F7DB074A002102EB810350F8044BE4
:10274000491C1C60FF29F7DD10BD000000F00108E6
:1027500084000020840100202DE9FF47214C72B63F
:10276000FEF756FD002001211F228DE807001E4EB6
:10277000039170601C496846091DFEF77BFC706878
:10278000401CF7D1DFF864900025B04609EB8500C6
:10279000D0E9006732463B4621460020FEF7E6FCC2
:1027A00088F800000028F5D10834AD1C402DEDDB81
:1027B000DFF83C80002500BF08EB8500D0E900670A
:1027C00032463B4621460020FEF7D0FC0028F7D1D8
:1027D0000834AD1CFF2DEFDDFEF7BAFC62B6BDE894
:1027E000FF87000000F001080000002084000020A6
:1027F0008401002070477047FEF756BE00B593B0C5
:1028000038216846FDF7B2FD14210EA8FDF7AEFD94
:102810000020FEF7DDFE0220C1010391402104915A
:102820000421CDE9080100905521CDE90A10079057
:102830000621CDE90C106846FFF7D6F908B172B64B
:10284000FEE70F200E9003200F90002010901190B3
:10285000129004210EA8FFF7A1F8002801D072B64B
:10286000FEE713B000BD00000248016841F47001AA
:102870000160704788ED00E010B50A48FFF71BFDC6
:10288000094CB4F90000411C218041F28831884292
:1028900006DD08214FF09040FEF7F2FD0020208079
:1028A00010BD00004C060020300000202DE9F04F44
:1028B00002682E4B2E4E2F4FDFF8BCC02F4C304DF0
:1028C0004FF0804B98420BD0584509D0B04207D00A
:1028D000B84205D0604503D0A04201D0A84204D13F
:1028E00022F070084A6842EA0802DFF89880DFF8B0
:1028F0009890DFF898A0984211D058450FD0B04278
:102900000DD0B8420BD0604509D0A04207D0404559
:1029100005D0484503D0504501D0A84203D122F448
:102920004076CA6832434E6922F080023243026028
:102930008A68C2620A688262984209D0A04207D0BF
:10294000404505D0484503D0504501D0A84201D1AB
:1029500009690163012141610169C90703D0016966
:1029600021F001010161BDE8F08F0000002C014061
:102970000004004000080040000C0040003401400A
:102980000050014000400140004401400048014027
:10299000FEE70907090E002804DB00F1E02080F8BB
:1029A0000014704700F00F0000F1E02080F8141DC3
:1029B000704708280ED909280DD00A280DD00B28F9
:1029C0000DD00C280DD00D280DD00E280DD00F28BD
:1029D00000D1402070470C20704710207047142011
:1029E0007047182070472020704730207047000043
:1029F00010B5044600680D490840B0F1005F14D1DD
:102A0000FDF7FAFE0A48816D21F0805181650120B1
:102A100080F3108860680749886007490C60216866
:102A200081F30888BDE81040004710BD0000FE2F6C
:102A3000001002400000002008ED00E08E4988B040
:102A40004FF000600860002080F31088FEF734FD2E
:102A5000FFF7D4FEFFF7BEFDFFF778FDFFF708FE96
:102A6000FFF72EFE002702970397FFF757FE834ECE
:102A70008349844CD6F82403884203D02046FFF7CC
:102A8000B7FFFEE78048FFF7CFFB8048FEF7D5FA97
:102A9000002201217D48FDF7C5FEDFF8F4A18AF888
:102AA00001700AF118054FF08A0985F80090A020FE
:102AB00068704FF0A80B85F807B0082329467348C3
:102AC0007268FDF779FDDFF8CC8154466D48A0604F
:102AD000607801281DD060780228F7D1FEF798FBB6
:102AE00000200121CDE90401042106911B21079159
:102AF000019001A904A8FEF7BDFAFEF729FBFEF735
:102B000087FB65480DF1080A4FF000070168B9BB63
:102B100094E049F6FF7A5046FDF7D2FBC8F8000072
:102B20005046FDF7CDFB5D490860D8F8001081B133
:102B300078B185F80090A2206870554985F807B0F3
:102B40000823183151487268FDF736FD0320607084
:102B5000BCE785F80090A120EEE7D8F8001000202F
:102B60005246C319CB5C1354401C0828F9DBDDE93D
:102B70000201C4E9040102460B460020616804E03A
:102B80000DE0D4E9042300206168FEF7EFFA20701D
:102B900010F0FF0FF5D160680830083760604048DA
:102BA00000688742D9D30027DFF8EC8020E03B495A
:102BB000002052460968C319CB5C1354401C0828F6
:102BC000F9DBDDE90201C4E9040102460B460020FD
:102BD000616803E0D4E9042300206168FEF7C6FAC7
:102BE000207010F0FF0FF5D1606808300837606082
:102BF000D8F800008742DAD324E0D8F8002000207B
:102C00005146C319D35C0B54401C0828F9DBDDE99D
:102C10000201C4E9040102460B460020616803E09A
:102C2000D4E9042300206168FEF7A0FA207010F0B8
:102C3000FF0FF5D1606808303F1D606018480068DC
:102C40008742DAD385F80090A3206870104985F890
:102C500007B0082318310D487268FDF7ADFCFEF788
:102C600077FA0020C6F82403FFF776FDFFF756FD3C
:102C70000448FFF7BDFEFEE708ED00E084010020F8
:102C8000CDAB3412004000084C0600208405002023
:102C9000100000207C000020700000208000002038
:102CA0006C0000204FF04070E1EE100A7047000108
:102CB000020304050607080C101418203040000019
:102CC00000000000000001020304060708090000DC
:102CD000F02C00080000002084000000140200080E
:102CE000742D000884000020445B010030020008BD
:102CF00000000000000000000000000000000000D4
:102D00000000000000400008004000080000000033
:102D100000000000000000000000000000000000B3
:102D20000000000010000000010000000000000092
:102D30000000000000000000000000000000000093
:102D40000100000000000000000000000000000082
:102D50000024F4000000000000000000000000005B
:102D60000000000000000000000000000000000063
:042D7000000000005F
:04000005080001D915
:00000001FF
