:020000040800F2
:1000000088450020D90100084B220008392100084A
:10001000492200085F030008A73C00080000000018
:100020000000000000000000000000009B24000809
:100030004904000800000000992400089D240008DD
:10004000F3010008F3010008F3010008F3010008C0
:10005000F3010008F3010008F3010008F3010008B0
:10006000F3010008F3010008F3010008F3010008A0
:10007000F3010008F3010008F3010008F301000890
:10008000F3010008F3010008F3010008F301000880
:10009000F3010008F3010008F3010008F301000870
:1000A000F3010008F3010008F3010008F301000860
:1000B000F3010008F3010008F3010008F301000850
:1000C000F3010008F3010008F3010008F301000840
:1000D000F3010008F3010008F3010008F301000830
:1000E000F3010008F3010008F3010008F301000820
:1000F000F3010008F3010008F3010008F301000810
:10010000F3010008F3010008F3010008F3010008FF
:10011000F3010008F3010008F3010008F3010008EF
:10012000F3010008F3010008F3010008F3010008DF
:10013000F30100080000000000000000F3010008C7
:10014000F3010008F3010008F30100084D22000844
:10015000F3010008F3010008F3010008F3010008AF
:10016000F3010008F3010008F3010008F30100089F
:10017000F3010008F3010008F3010008000000008B
:1001800000000000F3010008000000000000000073
:10019000F30100080000000000000000F301000867
:1001A000000000000000000000000000F301000853
:1001B000F3010008F3010008F3010008F30100084F
:1001C000F3010008DFF80CD000F08CF8004800477D
:1001D0009D3D0008884500200648804706480047A6
:1001E000FEE7FEE7FEE7FEE7FEE7FEE7FEE7FEE7E7
:1001F000FEE7FEE76D250008C50100082DE9F05F68
:100200000546002092469B46884606468146402485
:100210001BE0284641464746224600F053F8534625
:100220005A46C01A914110D311461846224600F092
:100230003AF82D1A67EB01084F46224601200021AB
:1002400000F031F817EB00094E41201EA4F1010423
:10025000DFDC484631462A464346BDE8F09F40EA87
:1002600001039B0703D009E008C9121F08C0042A34
:10027000FAD203E011F8013B00F8013B521EF9D21B
:100280007047D2B201E000F8012B491EFBD2704743
:100290000022F6E710B513460A4604461946FFF752
:1002A000F0FF204610BD202A04DB203A00FA02F1BC
:1002B000002070479140C2F1200320FA03F3194354
:1002C00090407047202A04DB203A21FA02F00021F6
:1002D000704721FA02F3D040C2F120029140084356
:1002E00019467047064C074D06E0E06840F00103F0
:1002F00094E8070098471034AC42F6D3FFF766FF46
:10030000284000084840000870B58C1810F8015BC0
:1003100015F0070301D110F8013B2A1106D110F89E
:10032000012B03E010F8016B01F8016B5B1EF9D1A2
:100330002B0705D40023521E0DD401F8013BFAE728
:1003400010F8013BCB1A921C03E013F8015B01F893
:10035000015B521EF9D5A142D8D3002070BDFEE743
:10036000002070470020704710B50022044905485E
:1003700002F0FEF90449034802F0F4F9002010BD30
:100380007C150020E00800207C0D00202DE9F041C4
:1003900004460F46086801211E4E0C2817D122780A
:1003A0000A2A14D162780B2A11D1A2780C2A0ED114
:1003B000E2780D2A0BD122790D2A08D162790C2A14
:1003C00005D1A2790B2A02D1E2790A2A07D07278E4
:1003D00032B17060317000F011FA002514E07170D4
:1003E00021460D4802F0BEF90B4802F09FF90020AB
:1003F000BDE8F081625900230220B16800F0C0F925
:10040000B068001D2D1DB0603868A842F2D800F019
:10041000ADF9E5E788000020E00800200A46094918
:1004200010B5D1F89012D1F8141209B1012010BD05
:100430000146044802F09CF9BDE81040014802F072
:10044000F5B90000E0080020704772B6FEE7000032
:10045000002229B101291AD002291BD04FF4407281
:100460000E490B6823F440730B600B6813430B6059
:100470000A6822F0F8020A600A68022303EBC0004F
:1004800002430A60086840F48030086070474FF407
:100490008072E5E74FF40072E2E70000103C024092
:1004A0001348016889050FD5016821F400710160C6
:1004B000016841F400610160016821F4006101609C
:1004C000016841F400710160016849050FD50168B8
:1004D00021F480610160016841F48051016001688C
:1004E00021F480510160016841F48061016070472E
:1004F000003C024008490A6822F440720A600A6817
:1005000042F004020A600A684FF4803343EA002094
:1005100002430A6070470000103C0240064A13681C
:1005200023F44073136013681360136843F00103EE
:100530001360017070470000103C0240094910B57B
:100540000C6824F440740C600C6844F440740C6033
:100550000C6844F001040C600260BFF36F8F4360CD
:1005600010BD0000103C0240074A136823F440739A
:100570001360136843F480731360136843F001033E
:100580001360018070470000103C0240074A136866
:1005900023F440731360136843F40073136013680B
:1005A00043F001031360016070470000103C0240FB
:1005B0001C490868C2061C4805D5C26942F01002F1
:1005C000C26110220A600A68920605D5C26942F02B
:1005D0000802C26120220A600A68520605D5C26973
:1005E00042F00402C26140220A600A68120605D580
:1005F000C26942F00202C26180220A600A68D20522
:1006000006D5C26942F00102C2614FF480720A60ED
:100610000A68920705D5C26942F02002C261022031
:10062000086070470C3C0240C008002070B51149BA
:1006300004460020C86100F063FA05460E4E09E04A
:10064000601C07D024B100F05BFA401BA04201D926
:10065000032070BD3068C003F2D43068C00701D0F9
:1006600001203060306810F4F970F2D0FFF7A0FF7D
:10067000012070BDC00800200C3C02400B4A10B5A0
:100680004FF0FF30106000211160121D10601160EA
:10069000064A103A10601160121D10601160121DA0
:1006A0001060116000F074FA002010BD2038024084
:1006B00070B5044600F024FA0546601C02D00448D8
:1006C0000078044400F01CFA401BA042FAD370BD2D
:1006D000180000202DE9F047044622480E46017E0E
:1006E00001290AD00121804601764CF25039484652
:1006F000FFF79CFF020003D02FE00220BDE8F08747
:100700004FF0FF3030602068174F012801D0A568F6
:100710001CE0207C6168FFF7EDFE4846FFF786FF8E
:100720000246386820F00400386014E0217C284636
:10073000FFF78EFE4846FFF779FF0200386820F089
:10074000FA00386001D0356005E06D1CD4E9021074
:100750000844A842EAD8FFF7A3FE002188F8181041
:100760001046CBE7C0080020103C02400348016857
:1007700041F000410160002070470000103C024041
:100780002DE9F0471B4E05461446307E1F4689462C
:10079000012808D0012030764CF250384046FFF74F
:1007A00045FF18B114E00220BDE8F0879DB1012D8E
:1007B00016D0022D19D022463B464846FFF7BEFE12
:1007C0004046FFF733FF0C490A6822F001020A6035
:1007D00000213176E8E7E1B24846FFF79FFEEFE7F8
:1007E000A1B24846FFF7C0FEEAE721464846FFF7B8
:1007F000CDFEE5E7C0080020103C0240074900207C
:100800000A68002A09DA054A054B0C3A1360054BC1
:1008100013600968002900DA01207047103C02408B
:1008200023016745AB89EFCD2DE9F04F8946DFF80D
:10083000E4A000214FF0010B4FF00F0C0BFA01F672
:1008400009EA0603B3425FD121F003045444D4F80B
:1008500008288D072F0F0CFA07F505EA02082E4A23
:10086000904201D100221EE02C4A904201D1012287
:1008700019E02B4A904201D1022214E0294A904209
:1008800001D103220FE0284A904201D104220AE05C
:10089000264A904201D1052205E0254A904201D125
:1008A000062200E00722BA40424514D1214F3A689F
:1008B0009A433A603F1D3A689A433A603F1D3A684E
:1008C0009A433A603F1D3A689A433A60D4F8082840
:1008D000AA43C4F8082803684C000322A2409343AB
:1008E0000360CB0800EB83031D6A4C07E70E0CFA8C
:1008F00007F4A5431D62C3689343C3604368B343D1
:100900004360836893438360491C102996D3BDE8F4
:10091000F08F00000030014000000240000402405F
:1009200000080240000C0240001002400014024087
:1009300000180240003C01402DE9F84FDFF874B187
:1009400000224FF003094FF00F0A0BF1040E0125AE
:100950000B6895402B40AB4272D14C68012C05D0FE
:10096000022C03D0112C01D0122C10D18668540017
:1009700009FA04F7BE43CF68A7403743876044684D
:10098000AC430D79C5F30015954025434560C46817
:10099000570009FA07F58E68AC43BE402643C6608F
:1009A0004C68022C01D0122C12D1D40800EB840C1C
:1009B000DCF820605407E40E0AFA04F826EA080678
:1009C000D1F8108008FA04F848EA0608CCF820802C
:1009D0000468AC430D7905F00305BD40254305606F
:1009E0004C68E40060D5344C256845F480452560AA
:1009F000246822F0030504F4804400942F4C2E193F
:100A0000D6F808789407250F0AFA05F4A7432C4C6A
:100A1000A04201D100241FE02A4CA04201D10124B0
:100A20001AE0294CA04201D1022415E0274CA04233
:100A300001D1032410E0264CA04202D104240BE093
:100A400032E0244CA04201D1052405E0224CA04212
:100A500001D1062400E00724AC403C43C6F8084816
:100A6000DBF800405D464E689C43F60300D51C430E
:100A70002C60DEF8004075464E689C43B60300D5F6
:100A80001C432C600B4D08352C684E689C43F602C5
:100A900000D51C432C60074D0C352C684E689C43D8
:100AA000B60200D51C432C60521C102AFFF44FAF35
:100AB000BDE8F88F003C014044380240003001405E
:100AC000000002400004024000080240000C024006
:100AD0000010024000140240001802400069084063
:100AE00000D001207047426931EA020200D10904B6
:100AF000816170470AB1816170470904FBE700001A
:100B00000148806870470000180000200248816892
:100B10000278114481607047180000200B4810B51E
:100B2000016841F400710160016841F48061016075
:100B3000016841F480710160032000F081F8002019
:100B400000F006F800F026F8002010BD003C02403E
:100B500070B50D4D04464FF47A712878B1FBF0F072
:100B60000A490968B1FBF0F001F0D2FA48B9102C3B
:100B700007D200222146501E00F042F800206C608F
:100B800070BD012070BD000018000020240000206E
:100B9000704700000A4808B5016841F480410160CF
:100BA000006800F4804000900548001F016841F093
:100BB00080510160006800F08050009008BD000086
:100BC0004438024000280DDB00F01F020121914053
:100BD0004009800000F1E020C0F88011BFF34F8F82
:100BE000BFF36F8F7047002809DB00F01F0201215F
:100BF00091404009800000F1E020C0F800117047EA
:100C0000F0B40E4B1B68C3F30223C3F10704042C9A
:100C100000D904241D1D072D01D2002300E0DB1E96
:100C2000012606FA04F56D1E0D409D409E40761E7D
:100C3000164045EA0601F0BC03F036B80CED00E0C2
:100C4000064A00F0070110684FF6FF03184040EA1B
:100C50000120034908431060704700000CED00E0DC
:100C60000000FA0501220168C0F8FC23002280F888
:100C7000F423886940F000608861486D024A10439F
:100C800048650020704700000300001070B5164D45
:100C90000446A1B1012911D12068D0F8001E41F00D
:100CA0000101C0F8001ED4F8040402F011F9206A12
:100CB000002803D0286840F00600286070BD206A34
:100CC00028B101F0EDFB286820F0060028602068BC
:100CD000D0F8001E21F00101C0F8001ED4F8040471
:100CE000BDE8704002F097B810ED00E00068416286
:100CF00000207047F0B50368586A39B19C6A4FF418
:100D0000827500EB144400204E1E0AE040EA0240C7
:100D100098620FE005EB8007DF59401C04EB174495
:100D2000C0B2B042F6D344EA02404FF4807202EB04
:100D3000810158500020F0BDD0F8040401F0D9BF63
:100D4000C1EBC10200EB8202D0F80404926C01F006
:100D500023BFC1EBC10200EB8202D0F80404D2F839
:100D6000082201F07CBF10B504000CD0032084F8E9
:100D7000BD03204600F08EFC204600F0D5FB00208D
:100D800084F8BD0310BD012010BDD0F8040401F0AB
:100D9000B2BF70B504460B0601F00F00C0EBC001F6
:100DA00004EB81014FF001024FF0000503D581F8FB
:100DB0003D203C3103E081F8FD5101F5FE710870E2
:100DC00094F8BC03012808D084F8BC23206802F002
:100DD00007FB84F8BC53002070BD022070BD70B5C5
:100DE000044601F00F006268904201D9012070BDF5
:100DF0000B0601F00F01C1EBC10104EB81014FF0C3
:100E000001024FF0000503D581F83D203C3103E09D
:100E100081F8FD5101F5FE718D70087094F8BC03E6
:100E2000012808D084F8BC23206802F0AFFC84F8C5
:100E3000BC53002070BD022070BD01F00F01C1EB5A
:100E4000C10100EB8100D0F8140270472DE9F04198
:100E500004460F0601F00F00C0EBC00104EB810156
:100E60004FF001064FF0000503D581F83D603C319D
:100E700003E081F8FD5101F5FE7108708A60CB70C6
:100E80004A7802B1C880022B00D10D7194F8BC03DE
:100E9000012809D084F8BC63206802F0F3F92846E1
:100EA00084F8BC53BDE8F0810220FBE770B50D4625
:100EB00001F00F04C4EBC40100EB8101C1F8103252
:100EC000C1F808220023C1F8143281F8FD3181F8FD
:100ED000FC41036901F5FE71012B00D10A612A076B
:100EE000027C006803D002F0A9FC002070BD02F073
:100EF00095FBFAE770B504460D4601F00F006168F6
:100F0000884201D9012070BD29064FF000064FF03C
:100F1000010207D5C0EBC00104EB810181F83D203F
:100F20003C3107E0C5EBC50104EB810181F8FD61AF
:100F300001F5FE718A70087094F8BC03012807D08F
:100F400084F8BC23206802F04DFC280702D007E09B
:100F5000022070BD217C04F57172206802F0EAFB6A
:100F600084F8BC63002070BD70B50D4601F00F041D
:100F7000C4EBC40100EB81010B658A6400234B655F
:100F8000012381F83D3001F83C4F0369012B00D16A
:100F90000A612A07027C006803D002F04FFC00209F
:100FA00070BD02F03BFBFAE72DE9F84F05680446F7
:100FB000284602F06AFD00287ED1206802F091FDEB
:100FC000002879D0206802F08CFD800704D52068C5
:100FD000416901F002014161206802F082FD0103D4
:100FE00004F571704FF0010A00906BD5002620685F
:100FF00002F056FD80464FF4004B60E05FEAC87097
:1010000057D0F1B2206802F064FD0746C00707D050
:1010100005EB4611C1F808AB3146204601F01CF93A
:10102000380728D52068D0F8409000EB4610D0F85B
:10103000081B2269012A10D0F94B994503D10904F4
:1010400001D5C0F808BB204600F0FCFAF5498945F7
:101050000CD92069012804D008E0F24B9945EED85C
:10106000F1E720680121009A02F064FB05EB4611CC
:101070000820C1F8080BF80604D505EB461110202E
:10108000C1F8080BB8060CD52069012804D12068E6
:101090000121009A02F04EFB05EB46102021C0F81A
:1010A000081BB80405D505EB46104FF40051C0F8F5
:1010B000081B4FEA580801E0B0E103E0761CB8F1E4
:1010C000000F9BD1206802F00CFD40034FF0000997
:1010D0005ED5206802F0DDFC8046002655E05FEA20
:1010E000C8704FD0F1B2206802F0E1FC0746C0079B
:1010F00026D006F00F010AFA01F0D5F83418814322
:10110000C5F8341805EB4610C0F808A92069012875
:1011100007D1C6EBC60004EB8000D0E911211144D1
:101120008164F1B22046FFF70BFE2069012807D148
:1011300036B9206D20B920680121009A02F0FAFA30
:10114000380704D505EB46110820C1F80809F80650
:1011500004D505EB46111020C1F80809780604D51E
:1011600005EB46104021C0F80819B80704D505EB77
:1011700046100221C0F80819380603D5314620462A
:1011800001F0D6F84FEA5808761CB8F1000FA6D146
:10119000206802F0A6FC002811DAD5F8040820F037
:1011A0000101C5F8041894F8F40301283BD0204647
:1011B00000F02CFA2068416901F00041416120688B
:1011C00002F08FFC00050BD5D5F80808C00702D047
:1011D000204600F07DFA2068416901F40061416118
:1011E000206802F07EFC00010AD52068416901F008
:1011F0000061416194F8F403E0B1204600F068FA20
:10120000206802F06EFCC0046DD5D5F8040820F00B
:101210000101C5F804181021206802F017FC002114
:101220004FF67F3226E084F8F49300212046FFF742
:101230002DFDBFE784F8F4A32068406D0121C0F3C1
:101240008300C4F8F8032046FFF720FDD8E705EB3C
:101250004110C0F80829D0F8003923F40013C0F871
:101260000039C0F8082BD0F8003B23F40013C0F875
:10127000003B491C60688842E9D8D5F81C0840F05A
:101280000111C5F81C18206B002828460DD0D0F895
:10129000840840F00B01C5F88418D5F8440840F0E4
:1012A0000B012846C5F844180DE0D0F8140842F2A6
:1012B0002B010843C5F81408D5F8100840F00B01BD
:1012C0002846C5F81018D0F8000820F4FE61C5F8CB
:1012D0000018217C2068009A02F02CFA20684169ED
:1012E00001F480514161206802F0FBFB800415D5B8
:1012F000206802F007F8206802F0BAFBE06000F016
:101300001FFD0146227B206802F026FC204600F0EB
:1013100067F92068416901F400514161206802F0D9
:10132000E0FBC00634D52068816921F0100181619D
:101330002F6A07F00F00C0EBC00004EB8006C7F374
:10134000434006F5FE76022802D0062811D01AE0A6
:1013500047F6F070074216D0C7F30A121746284620
:10136000F16802F0C2FBF0683844F060B0693844BC
:1013700008E008222846009902F0B7FBB069C7F3DD
:101380000A110844B0612068816941F0100181614F
:10139000206802F0A6FB000707D5204600F03AF9C6
:1013A0002068416901F008014161206802F099FB61
:1013B000C00208D50021204600F036F820684169B7
:1013C00001F480114161206802F08BFB800208D596
:1013D0000021204600F02CF82068416901F400113A
:1013E0004161206802F07DFB400007D52046FFF7F1
:1013F000A3FC2068416901F080414161206802F04E
:1014000070FB40070AD520684568680702D520466A
:10141000FFF7BBFC2068416829434160BDE8F88FB5
:101420000A31544F0A30544FD0F8040401F0B2BCD2
:10143000D0F8040401F0B0BC2DE9F0418AB00400FA
:1014400005D094F8BD032668002520B108E00120EE
:101450000AB0BDE8F08184F8BC53204600F07EF865
:10146000032084F8BD03F06BC00500D4256120681B
:1014700002F0CEF804F11001282288466846FEF7F3
:10148000EEFE94E80F0001F057FF0227C8BB0021D1
:10149000206802F039FB002101260EE0C1EBC100FB
:1014A00004EB800080F83D6000F83C1FC180C570EF
:1014B0008560C560491CC9B2456160688842EDD845
:1014C000002111E0C1EBC10004EB800080F8FD5168
:1014D00080F8FC1180F8FF51C0F80452C0F808529F
:1014E000491CC9B2C0F8105260688842EAD8282264
:1014F00041466846FEF7B3FE94E80F0001F0C8FFCE
:1015000010B184F8BD73A2E784F8385084F8BD6345
:10151000606A012802D12046FFF7A4FB206801F091
:10152000ABFF002094E7000010B50068B0F1A04FB9
:101530000ED10848016821F0800101604FF4C051CC
:101540000548FFF771F9BDE810404320FFF73ABBAB
:1015500010BD0000343802400000024010B586B0D3
:10156000044614216846FEF793FE2068B0F1A04FB0
:101570002FD119480021026842F001020260006880
:1015800000F0010005904FF4C05000900220CDE91A
:101590000101032003900A20049069460F48FFF7D9
:1015A000CBF90D48001D016841F0800101600A4837
:1015B0001430016841F4804101600068002200F4A9
:1015C0008040059011464320FFF71AFB4320FFF7A8
:1015D0000AFB06B010BD0000303802400000024097
:1015E00070B50446C068012570B1022801D0FEF72D
:1015F0002CFF2946D4F8040401F01FFCD4F804049D
:10160000BDE8704001F0DFBB0025F2E7D0F804042C
:1016100001F001BCD0F8040401F003BC10B504468D
:1016200090F8BC0301280BD0012084F8BC0384F897
:101630003810206802F07FFA002084F8BC0310BD47
:10164000022010BDD0F8042400F57171104601F09D
:1016500000BC10B50446006894F8BC13012906D0FC
:10166000012184F8BC13A16A012902D008E00220FC
:1016700010BDA169012903D0816B41F480318163E0
:10168000206801F0EDFE206802F0CAF9002084F81D
:10169000BC0310BD70B5044690F8BC0301280ED001
:1016A000012084F8BC03206801F0B2FF206802F03A
:1016B000C7FA002528B184F8BC53012070BD022070
:1016C00070BD206801F0D8FE84F8BC53002070BDC6
:1016D00010B50446D0F8040401F0FAFB2068D0F8F5
:1016E000001E41F00101C0F8001E206A002804D04D
:1016F0000248016841F00601016010BD10ED00E0F4
:101700002DE9F84317484FF00008026842F0805274
:1017100002600068144F00F080500090C7F84480C9
:10172000FFF7EEF904464FF47A75104E04E0FFF728
:10173000E7F9001BA8420DD870688003F7D4C7F8FA
:101740004080FFF7DDF9044607E0FFF7D9F9001BF9
:10175000A84202D90320BDE8F8837068C003F4D41E
:101760000020F8E74038024000000E4200700040C0
:101770002DE9F8431748016841F080510160006885
:10178000DFF8548000F0805001270090C8F84070C6
:10179000FFF7B6F904464FF47A75104E04E0FFF7F0
:1017A000AFF9001BA8420DD87068C003F7D5C8F880
:1017B0004470FFF7A5F9044607E0FFF7A1F9001B05
:1017C000A84202D90320BDE8F88370688003F4D5ED
:1017D0000020F8E74038024000000E420070004050
:1017E0002DE9F84F044600250078F74F2E46C00734
:1017F00008D03868A16B20F0C06008433860A06B47
:1018000000B901252078800708D53868E16B20F001
:10181000C05008433860E06B00B9012520784007CC
:101820000ED53868216B20F4401008433860206BD7
:10183000B0F5801F01D010B102E0012500E00126C3
:10184000207800070ED53868616B20F4400008430B
:101850003860606BB0F5800F01D010B102E0012557
:1018600000E0012620784FF0000A80064FF0010BBF
:1018700061D5D5484C38016841F08051016000685D
:10188000DFF8489300F080500090D9F8001041F440
:101890008071C9F80010FFF733F9804605E0FFF7C3
:1018A0002FF9A0EB0800022876D8D9F80000C0056F
:1018B000F5D5DFF81493A9F11C09D9F8000010F44C
:1018C000407024D0B4F8401001F4407181421ED021
:1018D000D9F80010BE4A21F44071C2F800B0C2F835
:1018E00000A0C9F80010D9F80000C0070FD0FFF71A
:1018F00007F9804607E0FFF703F9A0EB080141F282
:1019000088308142D0D8D9F800008007F3D5206C08
:10191000AD49C0F301228439032A35D0086820F488
:10192000F8100860D9F80010B4F84020C2F30B0298
:101930001143C9F800102078C00604D5A54994F8D1
:101940005800C1F8E00120780106A34805D50168D8
:10195000E26C21F44001114301602178490605D56C
:101960000168A26C21F08061114301602188C905E2
:1019700014D50168626D21F0006111430160616D51
:10198000B1F1006F09D009E00A68944B22F4F81213
:10199000184002430A60C5E715E101262188890540
:1019A00005D50168626C21F08051114301602188E6
:1019B000DFF82C92490509D50168226D21F000510C
:1019C00011430160206DB0F1005F04D01DB92068A3
:1019D000B0F5006F7ED18349C1F868A0FFF790F899
:1019E000794D80468C3D05E0FFF78AF8A0EB0800B2
:1019F000022887D828680001F6D420687A49C207EF
:101A000001D0A26B1AB1800717D5E06BA8B908689E
:101A10000A68C0F30140401CD4E9013C43EA8C133E
:101A200020F0004CC2F3036209EB0C4040EA026074
:101A30000343207D43EA007008602068420703D515
:101A4000226BB2F5801F05D0000721D5606BB0F581
:101A5000800F1DD108680A68C0F30140401CD4E91A
:101A6000013C43EA8C1320F0004C09EB0C4094F845
:101A700010C0C2F3027240EA0C60034343EA0270F2
:101A800008603868A26A20F01F00521E10433860B8
:101A9000208840051AD5206DB0F1005F16D1086886
:101AA0000A68C0F30140401CD4E9013C43EA8C13AE
:101AB000D4F80CC0C2F302724FEA5C0809EB084C80
:101AC0004CEA4060034343EA027008602088000546
:101AD00011D500E01FE0D4E9010240EA8210E2687B
:101AE000530809EB0342237C42EA03621043227D40
:101AF00040EA027008603B48C0F868B0FFF700F8A1
:101B0000804605E0FEF7FCFFA0EB0800022874D831
:101B100028680001F6D5EEB3DFF8C880C8F870A0D9
:101B2000FEF7EEFF304D0646843D04E0FEF7E8FF89
:101B3000801B022861D82868C0438000F6D5206841
:101B40002A49420701D5226B1AB100071DD5606BE7
:101B5000D8B90868D4E90623C0F30140401C42EA22
:101B6000831220F0004309EB034094F8243040EA4C
:101B7000036002430A603868E26A6FF0FF0320F4F2
:101B8000F85003EB0222104338602088C00514D5BA
:101B9000606D00E038E0B0F1006F0ED10868D4E964
:101BA000062342EA8312236AC0F303605C0809EB50
:101BB000044343EA006002430A60C8F870B0FEF7CD
:101BC0009FFF04461CE018E08C3802400070004083
:101BD000400E47420010474294380240FFFCFF0F7E
:101BE0000000FFFF0000474284380240883802406E
:101BF000FEF786FF001B022802D90320BDE8F88FFC
:101C00002868C0438000F3D40020F7E72DE9F047AF
:101C10000D46040065D0DFF81491D9F80000EFB24A
:101C200000F00F00A84207D289F80070D9F8000030
:101C300000F00F00A84254D120683D4E810712D514
:101C4000400703D5306840F4E0503060207800074A
:101C500003D5306840F4604030603068A16820F0FF
:101C6000F000084330602078C0072DD0304960680C
:101C70000839012812D0022813D0032811D009688E
:101C8000890700292DDA316821F003010143316011
:101C9000FEF736FF804641F2883A0EE00968890374
:101CA000EFE709688901ECE7FEF72AFFA0EB0801DE
:101CB000514502D90320BDE8F0873068616800F023
:101CC0000C00B0EB810FEFD1D9F80010484601F0BD
:101CD0000F01A94207D90770006800F00F00A84261
:101CE00001D00120E7E72078400705D53068E1689A
:101CF00020F4E050084330602078000706D53068B3
:101D0000216920F4604040EAC100306000F01EF814
:101D10003168084AC1F30311515CC84006490860A4
:101D200006480068FEF714FF0020C4E7003C0240AC
:101D30000838024018400008240000201C00002041
:101D4000014800687047000024000020224810B5B8
:101D5000006810F00C01214815D04310042911D05F
:101D60001D4C241F08290FD00C290CD1216801F02B
:101D70003F022168490221D52068C0F38810A0FBEA
:101D8000030120E0184610BD216801F03F022168E0
:101D9000490205D52068C0F38810A0FB030104E0C8
:101DA0002168C1F38811A1FB00010023FEF726FA88
:101DB0002168C1F30141491C49000AE02168C1F3CF
:101DC0008811A1FB00010023FEF718FA2168C1F376
:101DD0000271B0FBF1F010BD083802400024F4009D
:101DE0002DE9F84F04460078C44EC007A6F104055B
:101DF0004ED0301D0168C1F3810101290FD0016867
:101E0000C1F38101022902D13168490207D4006877
:101E1000C0F38100032809D13068400206D5286844
:101E2000800335D5606800286FD031E06068B0F578
:101E3000803F10D0B0F5A02F286810D020F480305B
:101E40002860286820F4802028606068A0B1FEF730
:101E500057FE07460CE0286840F48030F4E740F471
:101E600080202860F7E7FEF74BFEC01B642875D87A
:101E700028688003F7D50BE0FEF742FE074604E032
:101E8000FEF73EFEC01B6428F1D828688003F7D413
:101E90002078DFF86CA280074FF0000B44D59748FC
:101EA000001D016811F00C0F0FD00168C1F3810112
:101EB000022902D13168490207D50068C0F38100C8
:101EC000032809D13068400206D42868800714D559
:101ED000E068012819D110E0E068B8B10120CAF823
:101EE0000000FEF70DFE074604E0FEF709FEC01BEA
:101EF0000228BCD828688007F7D52868216920F017
:101F0000F80040EAC10028600EE0F4E0CAF800B032
:101F1000FEF7F6FD074604E0FEF7F2FDC01B0228BF
:101F20001CD828688007F7D42078000726D5DFF86A
:101F3000CC817448616908F1700881B101210160A8
:101F4000FEF7DEFD074604E0FEF7DAFDC01B0228BF
:101F500004D8D8F800008007F6D50FE088E0C0F874
:101F600000B0FEF7CDFD074604E0FEF7C9FDC01B3B
:101F700002287DD8D8F800008007F6D420784007E2
:101F800069D55E484FF000093C300068C0000BD4B2
:101F90005A483C30016841F08051016000684FF0C0
:101FA000010900F08050009057480168C90511D41C
:101FB0000168804641F480710160FEF7A1FD07468B
:101FC00004E0FEF79DFDC01B022851D8D8F80000A0
:101FD000C005F6D5494FA0686C3701280FD00528F9
:101FE000386810D020F001003860386820F0040014
:101FF0003860A068B8B1FEF783FD80460FE038680E
:1020000040F00100F4E740F004003860F7E7FEF725
:1020100077FDA0EB080141F28830814263D838682F
:102020008007F4D50EE0FEF76BFD804607E0FEF773
:1020300067FDA0EB080141F28830814253D838682F
:102040008007F4D4B9F1000F05D02C483C3001686A
:1020500021F080510160A069B0B32849091D0968C9
:10206000C1F38101022946D00228CAF860B000E01D
:1020700039E003D0FEF744FD044637E0FEF740FDAB
:10208000074604E0FEF73CFDC01B02282BD8286859
:102090008001F7D4F4E907010843E1681B4A4908C5
:1020A00002EB0141A26841EA82110843217C40EA27
:1020B0000160217D40EA017030600120CAF86000B3
:1020C000FEF71EFD044605E013E0FEF719FD001BB8
:1020D000022808D828688001F7D50AE0FEF710FD2D
:1020E000001B022802D90320BDE8F88F2868800170
:1020F000F4D40020F8E70120F6E70000043802409D
:1021000000004742800E4742007000400000FFFF81
:1021100010B5401EB0F1807F01D3012010BD4FF0FB
:10212000E02460610F21601701F0BEFD0020A06176
:1021300007202061002010BDFEE7F0B500230A242F
:10214000302537261F4610E0B4EB107F02D905EB8F
:10215000107C01E006EB107C01F813C001EB430C8E
:1021600000015B1C8CF80170DBB29342ECD3F0BD34
:1021700010B586B014216846FEF78AF81A48002484
:10218000016841F080010160016801F08001059162
:10219000016841F001010160016801F00101059150
:1021A000016841F002010160016801F0020105913E
:1021B000016841F0040101600068694600F0040014
:1021C0000590E020CDE9000408480294FEF7B4FB36
:1021D000402000900120CDE90104694604480394A1
:1021E000FEF7AAFB06B010BD3038024000040240E2
:1021F0000008024010B500220F49104800F0A5FC6D
:1022000008B1FEF722F90E490C4800F087FE08B12C
:10221000FEF71BF90B49094800F09CFA08B1FEF7DC
:1022200014F9064800F0D0FE002803D0BDE81040A5
:10223000FEF70BB910BD000028000020E0080020C8
:102240008001002094000020FEE7FEE70148FEF731
:10225000ABBE00007C1D00202DE9F0410546006862
:102260000E46016C00EB4614D4F8080B2B694FF4B2
:1022700000424FF0200C012B07D02B4B99424CD140
:10228000010446D5C4F8082B4BE0DFF8A0E00307B3
:1022900005F5717711D5714503D9000401D5C4F84E
:1022A000082B2846FFF7CEF93A460121286801F0AD
:1022B00041FA0820C4F8080B33E0830602D5C4F8BD
:1022C00008CB2EE010F0280F2BD1714501D9000466
:1022D000D8D4C6EBC60005EB8000D4F8102BD0F89C
:1022E0000412C2F312028A1AC0F81422D0F808228B
:1022F0001144C0F80812F1B22846FEF72AFD86B94B
:10230000D5F8100268B93A460121286801F012FA9E
:1023100007E0800601D5C4F808CBF1B22846FEF7E5
:1023200018FD0020BDE8F0810A31544F0A30544FA7
:102330002DE9F84F0E46C1EBC60100EB8104814642
:10234000D0F80080D4E914103C34884202D901202E
:10235000BDE8F88F081AA168814200D20846C01C67
:10236000870808EB461A15E0451AA068A84200D273
:102370000546E81C870899F810000090ABB2F2B24D
:102380004046E16801F07DFCE0682844E060A06917
:102390002844A061DAF8180980B2B84205D3D4E91C
:1023A0000501814201D20028DED1D4E9050188422D
:1023B00008D806F00F0101208840D8F8341881436E
:1023C000C8F834180020C3E710B50B480B4A0021A9
:1023D00002EB810350F8044B491C1C604029F7DBD9
:1023E000074A002102EB810350F8044B491C1C6092
:1023F000FF29F7DD10BD000000000108C003002028
:10240000C00400202DE9F0411F4C86B072B6FEF7E3
:10241000F5F9042102910020012103911B4F0221B3
:1024200000900491786019496846091DFEF752F939
:102430007868401CF7D1DFF85880002558F82560EF
:102440000023324621460220FEF79AF93870002810
:10245000F6D1241D6D1C402DF0DB0E4E002556F8E4
:10246000257000233A4621460220FEF789F900280C
:10247000F7D1241D6D1CFF2DF1DDFEF777F962B653
:1024800006B0BDE8F0810000000001080000002057
:10249000C0030020C004002070477047FEF736BB21
:1024A000F0B5ABB0342117A8FDF7F2FE142124A833
:1024B000FDF7EEFE5C216846FDF7EAFE294800259F
:1024C000016841F080510160006800F0805029905F
:1024D0002548016841F4404101600068012700F48B
:1024E000404029903804CDE9177004260224800169
:1024F0001F96CDE91D40B420CDE920040320CDE98D
:10250000220417A8FFF76CFC08B172B6FEE7FFF7CC
:102510002FF908B172B6FEE724A90F2081E8310037
:102520004FF4A05027904FF480502890052124A804
:10253000FFF76CFB08B172B6FEE74FF480700090B5
:102540006020CDE906604FF000600B97CDE908648C
:1025500015906846FFF744F9002801D072B6FEE7EF
:102560002BB0F0BD403802400070004005480168C3
:1025700041F47001016003494FF000608039086048
:102580007047000088ED00E02DE9F041D0F8985246
:10259000D0F89022DAB101EB810300EB830300262F
:1025A000DC694CB1C1EBC10705EB87056D6CB4FB71
:1025B000F5F705FB174424B1C2F814620020BDE80A
:1025C000F081DE6100231A4600F08BFCF6E7022062
:1025D000F5E770B50546D0F8904200F097FBC4F8D7
:1025E0000C02D5F8900248B1D5F89412D4F8040240
:1025F000CA6804F503719047002070BD022070BDC9
:1026000070B504460026812100F0BDFA00250121A5
:102610002046E56200F0B7FA82212046C4F85851FE
:1026200000F0B1FA2564D4F8900248B1D4F89402CD
:1026300004F5247440688047206801F055FB25604C
:10264000304670BD10B5D0E9A44159B194F80002EC
:10265000FF2807D08B6894F8012221469847FF2075
:1026600084F80002002010BD0A2101800048704754
:10267000A80000204321018000487047F800002096
:102680004321018000487047B400002043210180AD
:10269000004870473C0100202DE9F0410446002627
:1026A000007C4FF40077012590B340230222812162
:1026B000204600F073FB4023E56202220121204600
:1026C00000F06CFB0823032282212046C4F85851F5
:1026D00000F064FB4FF40770256401F067FCC4F858
:1026E0009002F8B10546D4F89402006880470021B2
:1026F000C5F81412C5F81812207CD5F8042298B138
:1027000040230121204600F055FB3046BDE8F08112
:10271000FFE73B4602228121204600F03FFB3B467B
:10272000E562CAE70126F0E73B46EAE710B5D0F8D4
:10273000901269B1027C002AD1F8042205D040230E
:10274000012100F037FB002010BD4FF40073F7E7C4
:10275000022010BD02460220002902D00020C2F84B
:1027600094127047D0F89002C0F80412002070470D
:10277000D0F89002C0F81022C0F80812002070476C
:102780002DE9FC410546D0F8907200208DF800003C
:10279000ADF80400064608780C4610F0600121D020
:1027A00020293BD1E288AAB10006607807D5D5F888
:1027B00094128B6839469847E288394626E087F8B4
:1027C0000002A07987F80102E2883946284600F025
:1027D0006AF828E0D5F89412607800228B682146C8
:1027E000984720E0607820B10A2809D00B2815D13D
:1027F00010E095F87402032810D1022201A905E027
:1028000095F87402032809D101226946284600F090
:1028100064F808E095F87402032804D0214628469D
:1028200000F036F802263046BDE8FC8110B5D0F83D
:102830009012A1B1D1F814220AB1012010BD0122D9
:10284000C1F81422D1F810220263B1F8102293B219
:10285000D1F80822812100F044FB002010BD0220A5
:1028600010BD10B5D0F88C2252689047002010BDE2
:10287000134610B50A46002100F09CFA002010BD56
:10288000134610B50A46002100F02BFB002010BDB6
:1028900010B50446802100F009FB2046BDE8104039
:1028A000002100F003BB10B50323C0F84821C0F895
:1028B0006C32C0F84C2113460A46002100F07AFA27
:1028C000002010BD10B505210023C0F86C121A4677
:1028D000194600F06FFA002010BD10B50223C26146
:1028E000C0F86C32026213460A46002100F0F9FA81
:1028F000002010BD10B504210023C0F86C121A4648
:10290000194600F0EEFA002010BD000010B50A468E
:10291000024903A000F0E9F8004810BD7C0B00203C
:1029200043444320436F6E666967000012200880AD
:10293000004870474C00002010B50A46024903A029
:1029400000F0D3F8004810BD7C0B00204344432026
:10295000496E74657266616365000000042008803A
:10296000004870474800002010B50A46024903A0FD
:1029700000F0BBF8004810BD7C0B00204865726376
:10298000756C65730000000010B50A46024903A08B
:1029900000F0ABF8004810BD7C0B00204865726366
:1029A000756C65730000000010B51A2008800A4895
:1029B0000168001D0468001D0068081809D008227D
:1029C0000649FFF7BAFB0549042210312046FFF7FC
:1029D000B4FB0248801E10BD107AFF1F6E0000205D
:1029E0000C2008800048704760000020F8B50D46B4
:1029F00049880446080A06284CD006DC01280DD078
:102A0000022810D003284FD11BE007284AD00F28F6
:102A10004AD1D4F88812207CCA6937E0D4F88812E9
:102A2000207C0A6832E0207C02260028D4F88C0240
:102A300005D0C16A684688470146467041E0816A10
:102A4000F8E7C8B206282FD2DFE800F003080D121D
:102A5000171CD4F88812207C4A6817E0D4F8881232
:102A6000207C8A6812E0D4F88812207CCA680DE0C5
:102A7000D4F88812207C0A6908E0D4F88812207CF7
:102A80004A6903E0D4F88812207C8A696946904735
:102A9000014616E0207C38B9D4F88C02416B6846B8
:102AA0008847F5E7207C20B129462046FFF7F0FE55
:102AB000F8BDD4F88C02016B6846884701460720B0
:102AC0004870BDF8000048B1EA8852B1824200D98E
:102AD0000246ADF800202046FFF7FFFEE8880028F8
:102AE000E6D12046FFF706FFF8BD70B500230028A9
:102AF0001ED00446002502E06D1CEDB2641C267851
:102B0000002EF9D1022404EB450414801278CA5433
:102B10005B1C0322CA5400245B1C06E0CA545B1CE5
:102B2000DAB28C54521CD3B2401C0278002AF5D180
:102B300070BD01004FF0000004D0012901D002292E
:102B400001D0022070470120704710B580B1D0F845
:102B50008C3213B10023C0F88C3209B1C0F888124E
:102B6000012180F87412027000F0D4F8002010BD2A
:102B7000022010BD10B5D0F89802FEF730F9BDE87C
:102B80001040FFF7D6BF10B5D0F89802FEF701F954
:102B9000BDE81040FFF7CDBF2DE9F04117460446D0
:102BA00051B1D4F88C0242691AB194F87402032826
:102BB00051D00220BDE8F081D4F86C32002504F138
:102BC0001400022B03D0042B3AD0C3B33CE0D0E96D
:102BD00003639E4207D9F11AC1608AB23946204682
:102BE000FFF74EFE12E08068B0FBF3F103FB11012A
:102BF00099B9984211D3D4F8701288420DD20022AC
:102C000011462046FFF73CFEC4F8705200231A46D6
:102C10001946204600F0CEF816E0D4F88C02C168C0
:102C200029B194F87402032801D1204688478021F5
:102C3000204600F03BF92046FFF744FE04E0FFE7A2
:102C40008021204600F032F994F87802012804D15E
:102C500084F8785201E0204690470020AAE770B53A
:102C60001546044649B1D4F88C0282691AB194F829
:102C70007402032830D0022070BDD4F86C1204F521
:102C8000A070032902D005291ED027E0D0E9033126
:102C90008B420BD95B1AC3600846834200D30346BC
:102CA0009AB229462046FFF7E3FD17E0D4F88C02DC
:102CB000016929B194F87402032801D1204688479C
:102CC0002046FFF717FE09E000200146C4F86C0219
:102CD000204600F0EBF801E020469047002070BD50
:102CE00010B5D0F89802FEF73EF8BDE81040FFF7A7
:102CF00020BF0020704710B5012180F87412D0F871
:102D00008C22017952689047002010BDD0F89802BB
:102D1000FEF793B810B5017839BB15490222C1F806
:102D20000404C0F898124FF0A040086006204860E4
:102D30000020C1E90320C1E9062008624862C86298
:102D400008630846FEF778FB08B1FDF77EFB80219B
:102D50000748FDF7CBFF402200210548FDF7CAFFD9
:102D6000802201210248FDF7C5FF002010BD0000B0
:102D70007C1D00200A0601F07F01D0F89802C1EB0B
:102D8000C10100EB810002D590F83E00704790F839
:102D9000FE017047002070470020704710B51C46A8
:102DA0001346D0F898022246FEF750F8BDE81040CE
:102DB000FFF7BFBE10B5D0F89802FEF777F8BDE870
:102DC0001040FFF7B6BE70B50022044640231146FE
:102DD000FFF7E4FF40260125C4F850613346002286
:102DE00080212046C4F84451FFF7D8FF6662A561F0
:102DF00084F874520020C4F86C026060C4F87C024D
:102E0000D4F8900228B1D4F88C0200214268204600
:102E10009047002070BD90F8751280F87412002061
:102E2000704710B590F87412032904D1D0F88C12B1
:102E3000C96901B18847002010BD017400207047A6
:102E400010B5D0F89802FEF7E9FBBDE81040FFF797
:102E500070BE70B5044600F52070054600F04AF8D3
:102E60000120C4F86C02B4F88602C4F8700294F829
:102E7000802212F01F000AD001280DD0022810D0A5
:102E800002F08001204600F011F8002070BD2946B4
:102E9000204600F09EF8F8E72946204600F0CAF9DF
:102EA000F3E72946204600F01DF9EEE710B5D0F80B
:102EB0009802FEF71FF8BDE81040FFF73ABE10B5C4
:102EC000D0F89802FEF7C5FBBDE81040FFF731BE11
:102ED00090F8741280F87512042180F874120020A2
:102EE000704710B5D0F89802FEF73EF8BDE81040E4
:102EF000FFF71FBE0A7802704A7842708A78CB7852
:102F000002EB032242800A794B7902EB0322828092
:102F10008A79C97902EB0121C180704702460020FD
:102F200011B1C2F88C1270470220704710B5D0F86A
:102F30008C2202241AB11268904700B9002420465E
:102F400010BD000070B50E461E4D897804462970EC
:102F5000012931D894F8740202280BD003280FD02D
:102F600031462046FFF794FC29782046BDE87040A2
:102F7000FFF777BCD9B10320616084F8740209E0DF
:102F800071B16068884212D0C1B22046FFF769FC77
:102F9000297861602046FFF7C9FF02280CD006E0BF
:102FA000022084F8740220466160FFF75AFC204634
:102FB000BDE87040FFF79EBC31462046BDE870403A
:102FC000FFF766BCA400002010B5FFF778FF0020D3
:102FD00010BD2DE9F0410A78002712F0600208D0F8
:102FE000202A01D0402A70D1D0F88C2292689047D4
:102FF0006DE04A78002301260A2A66D2DFE802F053
:10300000405D6557650805652C29FFF7EFFC5EE01C
:1030100004468888D8B9C888C8B94888802816D294
:1030200000F07F0594F87402032810D084F87652DB
:1030300029462046FFF704FF2046FFF75BFC1DB141
:10304000022084F8740242E084F874623FE0204673
:103050003BE0FFF777FF3AE0CA88012A35D190F8C4
:103060007422012A04D0022A02D0032A2DD104E0BE
:10307000012200F10801836016E00122011D13E026
:1030800090F87422012A03D0022A01D0032A1CD10D
:10309000CA88022A19D1C660D0F87C1209B103216E
:1030A000C160022200F10C01FFF717FC0FE0498814
:1030B00001290CD1C0F87C6211E090F87422012A39
:1030C00008D0022A06D0032A04D0FFF7E1FB3846D5
:1030D000BDE8F08149880129F9D1C0F87C32FFF7B9
:1030E00009FCF4E72DE9F0410A460446137800276D
:1030F000097913F060000AD0202801D0402850D16F
:10310000D4F88C0211468368204698478FE0C3F3B9
:103110004110012806D05078D0B301282AD00328C6
:103120003FD107E0D4F88C02114683682046BDE801
:10313000F041184794F87402022802D0032872D193
:103140000AE071B380296ED02046FFF7AFFE8021E0
:103150002046FFF7ABFE6AE0508838B931B18029CC
:1031600004D0D08810B92046FFF7A0FE2046FFF714
:10317000C1FB5CE094F874020228E2D0032852D12B
:10318000508898BB4806F1D02046FFF7F3FCEDE7E6
:10319000FFE794F874020026022803D0032842D1E6
:1031A00012E040E009B180293DD1080601F07F001E
:1031B00000EB800004EB800101D5143101E001F542
:1031C000A07102220E602AE0080601F00F0000EB59
:1031D000800004EB80000AD5806920B301F07F00F5
:1031E00000EB800004EB800514350BE01FE0D0F805
:1031F0004401C0B101F07F0000EB800004EB8005CA
:1032000005F5A07541B1802906D02046FFF7B2FD33
:1032100010B10120286000E02E60022229462046DD
:10322000FFF75BFB03E011462046FFF731FB384612
:10323000BDE8F08170B5054608780C4610F06002D4
:1032400003D0202A01D0402A16D195F87422012AF1
:1032500003D0022A01D0032A0ED1207901280BD8ED
:10326000D5F88C02826828469047E188014306D150
:103270002846FFF73FFB02E02846FFF709FB002046
:1032800070BD000070B50A78012302F00F054E787A
:10329000AB401B4CD0F81C58012E17D045EA034315
:1032A000C0F81C3800EB4210D0F8002B12040BD4ED
:1032B000D0F8002B0B89C978C3F30A031A4344EAF8
:1032C00081410A43C0F8002B002070BD9BB21D4312
:1032D000C0F81C5800EB4210D0F800391B04F3D49E
:1032E000D0F800390D89C978C5F30A0589042B4344
:1032F00041EA82510B432343C0F80039E4E7000060
:1033000000800010D0F800196FF30A01C0F800190E
:10331000D0F80818C1F34101022905D1D0F80019ED
:1033200041F00301C0F80019D0F8041841F480718D
:10333000C0F804180020704770B5044606980A9E2D
:10334000049D0D99012816D0E06840F04000E0602F
:10335000204600F02BF8A16B1EB321F48031A1634D
:10336000012D07D1A16841F00601A160A16841F0DB
:103370002001A16070BDA06B20F48030A063E068E4
:10338000094A1040E060E06820F44010E060012944
:1033900003D1E06840F48010E060204600F006F8B9
:1033A000DEE741F48031DAE7BFFFBDFF0B4A0021C1
:1033B000491C91420AD80369002BF9DA03690021FC
:1033C00043F001030361491C914201D90320704776
:1033D0000369DB07F7D1002070470000400D0300B0
:1033E00070B50B78012403F00F054E7804FA05F24E
:1033F000D0F83C58012E17D025EA0242C0F83C28EC
:10340000D0F81C28097801F00F018C4022EA044111
:10341000C0F81C1800EB4310D0F8001B0E4A1140F6
:10342000C0F8001B002070BD92B29543C0F83C5814
:10343000D0F81C28097801F00F018C40A1B28A4312
:10344000C0F81C2800EB4310D0F80019034A1140C3
:10345000C0F80019E6E700000078F3EF007833ECDD
:1034600010B5D0F8041821F00201C0F804180320A8
:10347000FDF71EF9002010BD10B5D0F8041841F07A
:103480000201C0F804180320FDF712F9002010BD56
:103490002DE9F04F0D46DDE90B1B00270446DDF852
:1034A00040A0DDF8249038463E4604EB8002C2F886
:1034B0000461401C0F28F8D32046A06BBAF1000F1E
:1034C00010D040F400122046A263C0F8006ED0F87D
:1034D0000028C0F80028012911D0D0F8001841F0C8
:1034E000030111E020F40012A263206840F04002C2
:1034F0002260206840F0800220462260E5E7D0F894
:1035000000180BB141F00101C0F80018102100F0C3
:103510009DFA00B10127204600F088FA00B101278A
:10352000C4F81068C4F81468C4F81C6800204FF090
:1035300000634FF090424FF67F3C14E004EB4011E3
:10354000D1F80089B8F1000F06DA10B1C1F80029EE
:1035500004E0C4F8003901E0C1F80069C1F810695D
:10356000C1F808C9401C8542E8D8002014E004EBEB
:103570004011D1F8008BB8F1000F06DA10B1C1F894
:10358000002B04E0C4F8003B01E0C1F8006BC1F877
:10359000106BC1F808CB401C8542E8D8D4F810085D
:1035A00020F48071C4F81018B9F1010F08D1144942
:1035B000C4F83018D4F8300812490843C4F8300869
:1035C000A6616FF080406061B9F1000F03D1A0697E
:1035D00040F01000A061A0690B490843A061BBF155
:1035E000000F03D0A06940F00800A061BAF1010FFC
:1035F00003D1A06905490843A0613846BDE8F08FB2
:10360000000180000300010000383C8004000040FD
:10361000816821F0010181600020704770B50D784C
:103620004E78434CEBB200EB4313012E1FD0D3F87E
:10363000100B6FF31200C3F8100BD3F8100B2040DF
:10364000C3F8100B486908B188684861D3F8100BBB
:1036500040F40020C3F8100BD3F8100B8C68C4F3AF
:1036600012042043C3F8100B012A55D058E04E69CC
:10367000002ED3F8106932D06FF31206C3F8106928
:10368000D3F810692640C3F810694E698C68A642C9
:1036900000D94C61D3F8104944F40024C3F8104910
:1036A000D3F810494E69C6F312063443C3F81049E3
:1036B000012A22D000EB4512D2F8003943F004432E
:1036C000C2F800394A6932B3D0F83428097801F0D9
:1036D0000F03012199400A43C0F8342826E0264010
:1036E000C3F81069D3F8104944F40024C3F8104912
:1036F000D3F810496FF31204D8E7096919B100EB48
:103700004512C2F8141900EB4510D0F8001941F029
:103710000441C0F8001909E0C86808B1C3F8140BE7
:10372000D3F8000B40F00440C3F8000B002070BD3C
:10373000FFFF07E010B5036C134CA34203D9D0F888
:10374000003B002B1EDB0023C0F8103BD0F8103BE1
:1037500043F40023C0F8103BD0F8103B43F01803AB
:10376000C0F8103BD0F8103B43F0C043C0F8103B0A
:10377000012907D1C0F8142BD0F8001B41F080219B
:10378000C0F8001B002010BD0A30544F4A780B7857
:10379000012A00EB43100BD0D0F8002B22F40012CA
:1037A000C0F8002BC978032914D0022912D017E0E1
:1037B000D0F8002922F40012C0F80029C9780329A2
:1037C00001D002290CD1D0F8001941F08051C0F885
:1037D000001905E0D0F8001B41F08051C0F8001B33
:1037E000002070470A784B78D1B200EB4110012BD2
:1037F00012D0D0F8001B002906DB2AB1D0F8001B3C
:1038000021F08041C0F8001BD0F8001B41F40011EA
:10381000C0F8001B00207047D0F80019002906DB13
:103820002AB1D0F8001921F08041C0F80019D0F871
:10383000001941F40011C0F80019EBE7F8B50C7855
:103840004E78764DE3B26FF0604700EB4313012EE4
:1038500026D0D3F8104B6FF31204C3F8104BD3F8F3
:10386000104B2C40C3F8104B4D69002D73D08C6861
:1038700025446D1EB5FBF4F4D3F8105BA4B207EA3F
:10388000C4463543C3F8105BD3F8105B8E686643BB
:10389000C6F312042543C3F8105B012A70D0A5E0DB
:1038A0004E69002ED3F8106921D06FF31206C3F8C9
:1038B0001069D3F810692E40C3F810694E698D68FD
:1038C0002E44761EB6FBF5F5D3F8106907EAC54518
:1038D0003543C3F81059D3F810594E69C6F3120690
:1038E0003543C3F81059CD78012D0ED019E02E4084
:1038F000C3F81069D3F8105945F40025C3F81059DE
:10390000D3F810596FF3120509E0D3F8105925F0D8
:10391000C045C3F81059D3F8105945F00055C3F805
:103920001059012A18D000EB4413D3F8004944F091
:103930000444C3F80049CC78012C2FD04A6962B303
:10394000D0F83428097801F00F03012199400A4387
:10395000C0F8342860E036E00A691AB100EB44137D
:10396000C3F81429C97801290FD1D0F80818C9055E
:1039700000EB4411D1F8002903D442F0005202E0D8
:1039800030E042F08052C1F8002900EB4410D0F83A
:10399000001941F00441C0F800193DE0D0F8084892
:1039A000E405D3F8004902D444F0005401E044F0A7
:1039B0008054C3F8004900928A8A93B20A78C96891
:1039C00000F05FF928E0D3F8104B8D68C5F31205BD
:1039D0002C43C3F8104BD3F8104B44F40024C3F825
:1039E000104B5AE7CA680AB1C3F8142BC9780129E9
:1039F0000CD1D0F80808C005D3F8000B02D440F071
:103A0000005001E040F08050C3F8000BD3F8000BE9
:103A100040F00440C3F8000B0020F8BDFFFF07E0B2
:103A2000816841F00101816000207047002110226F
:103A30000261054A491C914201D90320704703697C
:103A4000DB06F7D400207047400D0300002220233E
:103A500043EA811101610549521C8A4201D90320C0
:103A6000704703699B06F7D400207047400D0300A0
:103A7000D0F8080810F0060004D0022803D0062869
:103A800001D00F20704702207047406900F001000C
:103A90007047D0F81818D0F81C08084080B270475A
:103AA000D0F81818D0F81C080840000C704710B562
:103AB000D0F81038D0F8342801F00F0400EB411092
:103AC000E24002F00102D0F8080943EAC2121040B5
:103AD00010BD00EB4111D1F8081BD0F814080840C4
:103AE000704741698069084070470346D21C10B591
:103AF00008469208002103F5805302E01C68491C27
:103B000010C09142FAD310BD10B5C26822F0C04275
:103B1000C260012902D029B1012010BDC16841F065
:103B2000005102E0C16841F08041C1603220FCF7E1
:103B3000BFFD002010BDD0F8002822F4FE62C0F8BE
:103B40000028D0F800284FF4FE6303EA01110A436D
:103B5000C0F8002800207047022A3ED1264A274B91
:103B60000A449A4201D20F2138E0254A254B0A44E3
:103B70009A4201D20E2131E0234A244B0A449A4250
:103B800001D20D212AE0224A224B0A449A4201D254
:103B90000C2123E0204A214B0A449A4201D20B21F6
:103BA0001CE01F4A1F4B0A449A4201D20A2115E029
:103BB0001D4A1E4B0A449A420FD31D4A1D4B0A440C
:103BC0009A4201D2082109E01B4A11441B4A914242
:103BD00001D2072102E0062100E00921C26822F497
:103BE0007052C260C2684FF4705303EA81210A43E5
:103BF000C260002070470000405327FF00350C00D2
:103C0000401E1BFF40420F0000DC0BFF804F1200E4
:103C1000808CF9FE20D6130060B6E5FE60E3160046
:103C200000D3CEFE40771B00C05BB3FEC0912100E5
:103C300000CA91FE20753800E05459FEE09C410016
:103C400010B5044600214FF67F3004EB4112C2F854
:103C50000809C2F8080B491C0F29F6D30020C4F844
:103C60001008C4F81408C4F81C082046FFF7DEFE4C
:103C7000002805D12046BDE810401021FFF7E6BE20
:103C800010BD10B5029C64B9DB1C9C0800EB02302F
:103C9000002300F5805002E004C902605B1CA342CF
:103CA000FAD3002010BDFEE70907090E002804DB47
:103CB00000F1E02080F80014704700F00F0000F1E0
:103CC000E02080F8141D704702E008C8121F08C1E8
:103CD000002AFAD170477047002001E001C1121F8D
:103CE000002AFBD17047000010B5002821D0114BED
:103CF0000022001F196803E0814203D80A46496880
:103D00000029F9D152B11368841A9C4204D1006889
:103D100018441060104602E0506000E0186039B1AD
:103D200002680B1A934203D10B681A440260496877
:103D3000416010BDB8010020034610B500200246C6
:103D400002E09C5C521C20448A42FADB10BD000059
:103D500010B5044600680E490840B0F1005F16D166
:103D6000FEF7BEFFFCF78AFC0A48016821F080518B
:103D70000160FDF7C5FC012080F3108860680649EA
:103D80008860216881F30888BDE81040004710BDB5
:103D90000000FE2F403802400000002090B01421A7
:103DA00005A8FCF775FA4FF001080024CDE9058459
:103DB000052105A8FDF72AFF08B172B6FEE700202D
:103DC00080F31088FCF7AAFEFEF76AFBFEF7D0F935
:103DD0006A4D20212846FCF781FE40212846FCF749
:103DE0007DFE80212846FCF779FE6548006864481E
:103DF000001D0068624808300068FEF7E5FA614D72
:103E0000614ED5F82403401C03D03046FFF7A0FFD5
:103E1000FEE714216846FCF73BFA5C48016841F074
:103E20000101016000684FF4805700F00100009725
:103E30000A900120CDE90104DFF85481694640462B
:103E40000394FCF779FD002239464046FCF752FE08
:103E50006420FCF72DFC012239464046FCF74AFE5F
:103E6000FEF7C8F9FEF7B0FA4648C0F82443FEF75B
:103E7000C9FA494FDFF81CB14FF08A09A7F1040ACB
:103E80004FF0A808254645483F4C454ECBF800402A
:103E9000057035703B4987F80090A120D1F82013B8
:103EA000CAF80510B87187F8078008213A48FCF76E
:103EB000B5FA0120FCF7FCFB38480078012807D050
:103EC000C820FCF7F5FB40213648FCF70CFEE1E783
:103ED0002D480068401C0FD0FCF790FC05200C908A
:103EE00002200E9001200A950D900FA90F950AA8A7
:103EF000FCF7F0FBFCF73AFC344635702A4E35608F
:103F000087F800900A2078700B20B8700C20F870A9
:103F10000D203871A220B87187F8078008211E484B
:103F2000FCF77CFA1EE0207801281BD01649DBF84C
:103F30000000494201441448FFF7FEFECAF80000A1
:103F400087F80090CAF80500A420B87187F80780A8
:103F500008211148FCF762FA0A48C0F82453FEF71A
:103F600051FA90E72570C820FCF7A2FB40210D48CC
:103F7000FCF7B9FD30680028C2D0D4E70004024045
:103F8000107AFF1FC00400200000020830380240F1
:103F90000000024090000020100000208900002056
:103FA00088000020000802408C000020F0B50B3093
:103FB000154D20F007010024144A0FE003688B42DE
:103FC0000BD38B4205D95E1A43184768C3E90067D3
:103FD00000E04368136002C004E0021D106800287E
:103FE000ECD12046002802D1286808B10020F0BD9D
:103FF000064A07481060074A121A22F00702C0E971
:10400000002401202860D7E7BC010020B80100206F
:104010008C210020884100200000000000000000EA
:1040200001020304060708094840000800000020B8
:10403000C00100000803000818410008C00100206A
:10404000C8430000D83C0008011832018210132434
:10405000F4132D291B085D041A69041A89041AA98E
:10406000041A0D041A39041AE104100B040309049C
:10407000120101020202164022AF40571D02010246
:10408000034514050F0C1C010710172103241A0304
:1040900015020869031B0865041A61041A8D04419E
:1040A000130A0629432A40981C0902435F111DC0C8
:1040B000320904A91A020B13052416100105240164
:1040C0001809010424020205240674150582030858
:1040D000151009040133020A1D07050102432C07CC
:1040E0000581070938442A40072A8107112B09074F
:1040F000440A3B04441399261B0801044B8127E81A
:104100001A450C1389251B08D304C11A81181A7586
:08411000041A8D041A690481F0
:04000005080001C529
:00000001FF
