:020000040800F2
:10000000480F0020DD0100081B1B0008911A0008A2
:10001000191B0008E9020008F12C0008000000008C
:100020000000000000000000000000006B1D000840
:10003000EB02000800000000691D00086D1D0008AB
:10004000F7010008F7010008F7010008F7010008B0
:10005000F7010008F7010008F7010008F7010008A0
:10006000F7010008F7010008F7010008F701000890
:10007000F7010008F7010008F7010008F701000880
:10008000F7010008F7010008F7010008F701000870
:10009000F7010008F7010008F7010008F701000860
:1000A000F7010008F7010008F7010008F701000850
:1000B000F7010008F7010008F7010008F701000840
:1000C000F7010008F7010008F7010008F701000830
:1000D000F7010008F7010008F7010008F701000820
:1000E000F7010008F7010008F7010008F701000810
:1000F000F7010008F7010008F7010008F701000800
:10010000F7010008F7010008F7010008F7010008EF
:10011000F7010008F7010008F7010008F7010008DF
:10012000F7010008F7010008F7010008F7010008CF
:10013000F70100080000000000000000F7010008BF
:10014000F7010008F7010008F70100081D1B00086F
:10015000F7010008F7010008F7010008F70100089F
:10016000F7010008F7010008F7010008F70100088F
:10017000F7010008F7010008F7010008000000007F
:1001800000000000F701000800000000000000006F
:10019000F70100080000000000000000F70100085F
:1001A000000000000000000000000000F70100084F
:1001B000F7010008F7010008F7010008F70100083F
:1001C000F7010008DFF810D000F07CF80048004785
:1001D000312D0008AFF30080480F0020064880470B
:1001E00006480047FEE7FEE7FEE7FEE7FEE7FEE71C
:1001F000FEE7FEE7FEE7FEE73D1E0008C50100083A
:100200002DE9F05F0546002092469B46884606464B
:10021000814640241BE0284641464746224600F0DE
:1002200041F853465A46C01A914110D31146184618
:10023000224600F028F82D1A67EB01084F462246A7
:100240000120002100F01FF817EB00094E41201E8D
:10025000A4F10104DFDC484631462A464346BDE8A6
:10026000F09FD2B201E000F8012B491EFBD270478B
:100270000022F6E710B513460A4604461946FFF772
:10028000F0FF204610BD202A04DB203A00FA02F1DC
:10029000002070479140C2F1200320FA03F3194374
:1002A00090407047202A04DB203A21FA02F0002116
:1002B000704721FA02F3D040C2F120029140084376
:1002C00019467047064C074D06E0E06840F0010310
:1002D00094E8070098471034AC42F6D3FFF776FF56
:1002E000C82D0008E82D0008FEE7704772B6FEE74B
:1002F000002229B101291AD002291BD04FF44072E3
:100300000E490B6823F440730B600B6813430B60BA
:100310000A6822F0F8020A600A68022303EBC000B0
:1003200002430A60086840F48030086070474FF468
:100330008072E5E74FF40072E2E70000103C0240F3
:100340001348016889050FD5016821F40071016027
:10035000016841F400610160016821F400610160FD
:10036000016841F400710160016849050FD5016819
:1003700021F480610160016841F4805101600168ED
:1003800021F480510160016841F48061016070478F
:10039000003C024008490A6822F440720A600A6878
:1003A00042F004020A600A684FF4803343EA0020F6
:1003B00002430A6070470000103C0240064A13687E
:1003C00023F44073136013681360136843F0010350
:1003D0001360017070470000103C0240094910B5DD
:1003E0000C6824F440740C600C6844F440740C6095
:1003F0000C6844F001040C600260BFF36F8F43602F
:1004000010BD0000103C0240074A136823F44073FB
:100410001360136843F480731360136843F001039F
:100420001360018070470000103C0240074A1368C7
:1004300023F440731360136843F40073136013686C
:1004400043F001031360016070470000103C02405C
:100450001C490868C2061C4805D5C26942F0100252
:10046000C26110220A600A68920605D5C26942F08C
:100470000802C26120220A600A68520605D5C269D4
:1004800042F00402C26140220A600A68120605D5E1
:10049000C26942F00202C26180220A600A68D20583
:1004A00006D5C26942F00102C2614FF480720A604F
:1004B0000A68920705D5C26942F02002C261022093
:1004C000086070470C3C02402007002070B51149BD
:1004D00004460020C86100F0A3F905460E4E09E06D
:1004E000601C07D024B100F09BF9401BA04201D949
:1004F000032070BD3068C003F2D43068C00701D05B
:1005000001203060306810F4F970F2D0FFF7A0FFDE
:10051000012070BD200700200C3C02402DE9F0476F
:10052000044622480E46017E01290AD00121804658
:1005300001764CF250394846FFF7C8FF020003D05D
:100540002FE00220BDE8F0874FF0FF3030602068D8
:10055000174F012801D0A5681CE0207C6168FFF7D7
:1005600019FF4846FFF7B2FF0246386820F0040042
:10057000386014E0217C2846FFF7BAFE4846FFF7B2
:10058000A5FF0200386820F0FA00386001D035601D
:1005900005E06D1CD4E902100844A842EAD8FFF730
:1005A000CFFE002188F818101046CBE72007002066
:1005B000103C02400348016841F000410160002006
:1005C00070470000103C02402DE9F0471B4E0546E5
:1005D0001446307E1F468946012808D00120307617
:1005E0004CF250384046FFF771FF18B114E002207A
:1005F000BDE8F0879DB1012D16D0022D19D02246FD
:100600003B464846FFF7EAFE4046FFF75FFF0C49CE
:100610000A6822F001020A6000213176E8E7E1B2BF
:100620004846FFF7CBFEEFE7A1B24846FFF7ECFEE6
:10063000EAE721464846FFF7F9FEE5E720070020F4
:10064000103C0240074900200A68002A09DA054ADE
:10065000054B0C3A1360054B13600968002900DA5A
:1006600001207047103C024023016745AB89EFCD64
:100670002DE9F84FDFF874B100224FF003094FF075
:100680000F0A0BF1040E01250B6895402B40AB427D
:1006900072D14C68012C05D0022C03D0112C01D052
:1006A000122C10D18668540009FA04F7BE43CF68B3
:1006B000A740374387604468AC430D79C5F3001504
:1006C000954025434560C468570009FA07F58E68D0
:1006D000AC43BE402643C6604C68022C01D0122CAD
:1006E00012D1D40800EB840CDCF820605407E40E2F
:1006F0000AFA04F826EA0806D1F8108008FA04F885
:1007000048EA0608CCF820800468AC430D7905F06F
:100710000305BD40254305604C68E40060D5344CBA
:10072000256845F480452560246822F0030504F41B
:10073000804400942F4C2E19D6F808789407250F82
:100740000AFA05F4A7432C4CA04201D100241FE073
:100750002A4CA04201D101241AE0294CA04201D127
:10076000022415E0274CA04201D1032410E0264CBE
:10077000A04202D104240BE032E0244CA04201D17B
:10078000052405E0224CA04201D1062400E0072404
:10079000AC403C43C6F80848DBF800405D464E6874
:1007A0009C43F60300D51C432C60DEF800407546E0
:1007B0004E689C43B60300D51C432C600B4D083596
:1007C0002C684E689C43F60200D51C432C60074DF4
:1007D0000C352C684E689C43B60200D51C432C6037
:1007E000521C102AFFF44FAFBDE8F88F003C0140C7
:1007F0004438024000300140000002400004024042
:1008000000080240000C02400010024000140240A8
:10081000001802400069084000D001207047000025
:1008200001488068704700000C0000200248816881
:1008300002781144816070470C0000200B4810B50D
:10084000016841F400710160016841F48061016058
:10085000016841F480710160032000F061F800201C
:1008600000F006F800F024F8002010BD003C024023
:1008700070B50D4D04464FF47A712878B1FBF0F055
:100880000A490968B1FBF0F001F0EEF848B9102C04
:1008900007D200222146501E00F022F800206C6092
:1008A00070BD012070BD00000C0000201800002069
:1008B0000A4808B5016841F480410160006800F40D
:1008C000804000900548001F016841F080510160A0
:1008D000006800F08050009008BD000044380240DD
:1008E000F0B40E4B1B68C3F30223C3F10704042CBE
:1008F00000D904241D1D072D01D2002300E0DB1EBA
:10090000012606FA04F56D1E0D409D409E40761EA0
:10091000164045EA0601F0BC02F0EBB90CED00E030
:10092000064A00F0070110684FF6FF03184040EA3E
:100930000120034908431060704700000CED00E0FF
:100940000000FA0570B5164D0446A1B1012911D178
:100950002068D0F8001E41F00101C0F8001ED4F854
:10096000040401F0A8FC206A002803D0286840F0A5
:100970000600286070BD206A28B101F0F9F92868E6
:1009800020F0060028602068D0F8001E21F0010148
:10099000C0F8001ED4F80404BDE8704001F037BC74
:1009A00010ED00E0D0F8040401F0D3BBC1EBC102AC
:1009B00000EB8202D0F80404926C01F026BBC1EB7C
:1009C000C10200EB8202D0F80404D2F8082201F040
:1009D0007FBBD0F8040401F0BEBB70B5044601F043
:1009E0000F006268904201D9012070BD0B0601F032
:1009F0000F01C1EBC10104EB81014FF001024FF087
:100A0000000503D581F83D203C3103E081F8FD511C
:100A100001F5FE718D70087094F8BC03012808D0B0
:100A200084F8BC23206801F023FF84F8BC53002025
:100A300070BD022070BD2DE9F04104460F0601F0A3
:100A40000F00C0EBC00104EB81014FF001064FF035
:100A5000000503D581F83D603C3103E081F8FD518C
:100A600001F5FE7108708A60CB704A7802B1C880C7
:100A7000022B00D10D7194F8BC03012809D084F831
:100A8000BC63206801F0E2FD284684F8BC53BDE851
:100A9000F0810220FBE770B50D4601F00F04C4EBB6
:100AA000C40100EB8101C1F81032C1F80822002313
:100AB000C1F8143281F8FD3181F8FC41036901F578
:100AC000FE71012B00D10A612A07027C006803D065
:100AD00001F026FF002070BD01F012FEFAE770B5AC
:100AE00004460D4601F00F006168884201D90120DB
:100AF00070BD29064FF000064FF0010207D5C0EB8C
:100B0000C00104EB810181F83D203C3107E0C5EBD9
:100B1000C50104EB810181F8FD6101F5FE718A7068
:100B2000087094F8BC03012807D084F8BC2320681F
:100B300001F0CAFE280702D007E0022070BD217C28
:100B400004F57172206801F067FE84F8BC63002030
:100B500070BD70B50D4601F00F04C4EBC40100EB8D
:100B600081010B658A6400234B65012381F83D30C8
:100B700001F83C4F0369012B00D10A612A07027C6E
:100B8000006803D001F0CCFE002070BD01F0B8FD7C
:100B9000FAE700002DE9F84F05680446284601F001
:100BA000D0FF00287ED1206801F0F7FF002879D01F
:100BB000206801F0F2FF800704D52068416901F048
:100BC00002014161206801F0E8FF010304F5717042
:100BD0004FF0010A00906BD50026206801F0BCFFA1
:100BE00080464FF4004B60E05FEAC87057D0F1B226
:100BF000206801F0CAFF0746C00707D005EB461181
:100C0000C1F808AB3146204600F08EFF380728D5E2
:100C10002068D0F8409000EB4610D0F8081B2269FD
:100C2000012A10D0F94B994503D1090401D5C0F828
:100C300008BB204600F028FAF54989450CD92069FF
:100C4000012804D008E0F24B9945EED8F1E720687E
:100C50000121009A01F0E0FD05EB46110820C1F8E2
:100C6000080BF80604D505EB46111020C1F8080B57
:100C7000B8060CD52069012804D120680121009A0A
:100C800001F0CAFD05EB46102021C0F8081BB8048E
:100C900005D505EB46104FF40051C0F8081B4FEA8C
:100CA000580801E0B0E103E0761CB8F1000F9BD1D9
:100CB000206801F072FF40034FF000095ED5206804
:100CC00001F043FF8046002655E05FEAC8704FD030
:100CD000F1B2206801F047FF0746C00726D006F0B2
:100CE0000F010AFA01F0D5F834188143C5F8341819
:100CF00005EB4610C0F808A92069012807D1C6EB0A
:100D0000C60004EB8000D0E9112111448164F1B2E6
:100D10002046FFF74BFE2069012807D136B9206D28
:100D200020B920680121009A01F076FD380704D52A
:100D300005EB46110820C1F80809F80604D505EBB3
:100D400046111020C1F80809780604D505EB4610B5
:100D50004021C0F80819B80704D505EB4610022158
:100D6000C0F80819380603D53146204600F048FF80
:100D70004FEA5808761CB8F1000FA6D1206801F0A0
:100D80000CFF002811DAD5F8040820F00101C5F89D
:100D9000041894F8F40301283BD0204600F058F9D9
:100DA0002068416901F000414161206801F0F5FED1
:100DB00000050BD5D5F80808C00702D0204600F082
:100DC0006BF92068416901F400614161206801F01C
:100DD000E4FE00010AD52068416901F0006141612B
:100DE00094F8F403E0B1204600F056F9206801F0D1
:100DF000D4FEC0046DD5D5F8040820F00101C5F873
:100E000004181021206801F07DFE00214FF67F328A
:100E100026E084F8F49300212046FFF793FDBFE716
:100E200084F8F4A32068406D0121C0F38300C4F866
:100E3000F8032046FFF786FDD8E705EB4110C0F820
:100E40000829D0F8003923F40013C0F80039C0F89D
:100E5000082BD0F8003B23F40013C0F8003B491CDA
:100E600060688842E9D8D5F81C0840F00111C5F83F
:100E70001C18206B002828460DD0D0F8840840F0BC
:100E80000B01C5F88418D5F8440840F00B0128463A
:100E9000C5F844180DE0D0F8140842F22B010843BD
:100EA000C5F81408D5F8100840F00B012846C5F81D
:100EB0001018D0F8000820F4FE61C5F80018217C55
:100EC0002068009A01F0A8FC2068416901F4805173
:100ED0004161206801F061FE800415D5206801F0B1
:100EE000F5FB206801F020FEE06000F0D5FB014634
:100EF000227B206801F076FE204600F093F82068FF
:100F0000416901F400514161206801F046FEC006CC
:100F100034D52068816921F0100181612F6A07F0C2
:100F20000F00C0EBC00004EB8006C7F3434006F59A
:100F3000FE76022802D0062811D01AE047F6F0709B
:100F4000074216D0C7F30A1217462846F16801F087
:100F500028FEF0683844F060B069384408E00822A0
:100F60002846009901F01DFEB069C7F30A11084434
:100F7000B0612068816941F010018161206801F051
:100F80000CFE000707D5204600F066F8206841698E
:100F900001F008014161206801F0FFFDC00208D5A1
:100FA0000021204600F036F82068416901F48011E4
:100FB0004161206801F0F1FD800208D50021204642
:100FC00000F02CF82068416901F4001141612068AB
:100FD00001F0E3FD400007D52046FFF7E3FC206861
:100FE000416901F080414161206801F0D6FD400770
:100FF0000AD520684568680702D52046FFF7E9FC56
:101000002068416829434160BDE8F88F0A31544F98
:101010000A30544FD0F8040401F0B8B8D0F80404F2
:1010200001F0B6B870B50446C068012570B1022859
:1010300001D0FFF75BF92946D4F8040401F0F9F870
:10104000D4F80404BDE8704001F0B9B80025F2E717
:10105000D0F8040401F0DBB8D0F8040401F0DDB8E6
:1010600010B5044690F8BC0301280BD0012084F889
:10107000BC0384F83810206801F0A2FD002084F839
:10108000BC0310BD022010BDD0F8042400F571711E
:10109000104601F0DAB8000010B50446D0F8040498
:1010A00001F009F92068D0F8001E41F00101C0F8F4
:1010B000001E206A002804D00248016841F00601A1
:1010C000016010BD10ED00E02DE9F84317480168FC
:1010D00041F0805101600068DFF8548000F08050DA
:1010E00001270090C8F84070FFF79AFB04464FF4C0
:1010F0007A75104E04E0FFF793FB001BA8420DD851
:101100007068C003F7D5C8F84470FFF789FB044640
:1011100007E0FFF785FB001BA84202D90320BDE8CA
:10112000F88370688003F4D50020F8E74038024067
:1011300000000E42007000402DE9F84F04460025E3
:101140000078F74F2E46C00708D03868A16B20F012
:10115000C06008433860A06B00B901252078800783
:1011600008D53868E16B20F0C05008433860E06B68
:1011700000B90125207840070ED53868216B20F48E
:10118000401008433860206BB0F5801F01D010B1CB
:1011900002E0012500E00126207800070ED538681E
:1011A000616B20F4400008433860606BB0F5800F3D
:1011B00001D010B102E0012500E0012620784FF0B7
:1011C000000A80064FF0010B61D5D5484C38016804
:1011D00041F0805101600068DFF8489300F08050D2
:1011E0000090D9F8001041F48071C9F80010FFF7A1
:1011F00017FB804605E0FFF713FBA0EB0800022871
:1012000076D8D9F80000C005F5D5DFF81493A9F118
:101210001C09D9F8000010F4407024D0B4F8401034
:1012200001F4407181421ED0D9F80010BE4A21F469
:101230004071C2F800B0C2F800A0C9F80010D9F897
:101240000000C0070FD0FFF7EBFA804607E0FFF77A
:10125000E7FAA0EB080141F288308142D0D8D9F8F2
:1012600000008007F3D5206CAD49C0F3012284391A
:10127000032A35D0086820F4F8100860D9F8001067
:10128000B4F84020C2F30B021143C9F800102078D3
:10129000C00604D5A54994F85800C1F8E0012078AB
:1012A0000106A34805D50168E26C21F44001114311
:1012B00001602178490605D50168A26C21F08061A2
:1012C000114301602188C90514D50168626D21F0C0
:1012D000006111430160616DB1F1006F09D009E057
:1012E0000A68944B22F4F812184002430A60C5E7DA
:1012F00015E101262188890505D50168626C21F078
:101300008051114301602188DFF82C92490509D5ED
:101310000168226D21F0005111430160206DB0F190
:10132000005F04D01DB92068B0F5006F7ED18349FD
:10133000C1F868A0FFF774FA794D80468C3D05E04E
:10134000FFF76EFAA0EB0800022887D82868000192
:10135000F6D420687A49C20701D0A26B1AB180077F
:1013600017D5E06BA8B908680A68C0F30140401CB3
:10137000D4E9013C43EA8C1320F0004CC2F3036231
:1013800009EB0C4040EA02600343207D43EA007011
:1013900008602068420703D5226BB2F5801F05D094
:1013A000000721D5606BB0F5800F1DD108680A6871
:1013B000C0F30140401CD4E9013C43EA8C1320F007
:1013C000004C09EB0C4094F810C0C2F3027240EAE2
:1013D0000C60034343EA027008603868A26A20F098
:1013E0001F00521E10433860208840051AD5206D1A
:1013F000B0F1005F16D108680A68C0F30140401CD4
:10140000D4E9013C43EA8C13D4F80CC0C2F3027255
:101410004FEA5C0809EB084C4CEA4060034343EA9E
:10142000027008602088000511D500E01FE0D4E9B3
:10143000010240EA8210E268530809EB0342237C70
:1014400042EA03621043227D40EA027008603B4892
:10145000C0F868B0FFF7E4F9804605E0FFF7E0F96F
:10146000A0EB0800022874D828680001F6D5EEB376
:10147000DFF8C880C8F870A0FFF7D2F9304D0646F3
:10148000843D04E0FFF7CCF9801B022861D828686E
:10149000C0438000F6D520682A49420701D5226B57
:1014A0001AB100071DD5606BD8B90868D4E90623C6
:1014B000C0F30140401C42EA831220F0004309EBD4
:1014C000034094F8243040EA036002430A6038681D
:1014D000E26A6FF0FF0320F4F85003EB022210439E
:1014E00038602088C00514D5606D00E038E0B0F1A8
:1014F000006F0ED10868D4E9062342EA8312236AFA
:10150000C0F303605C0809EB044343EA0060024354
:101510000A60C8F870B0FFF783F904461CE018E0D1
:101520008C38024000700040400E47420010474295
:1015300094380240FFFCFF0F0000FFFF000047420D
:101540008438024088380240FFF76AF9001B0228FD
:1015500002D90320BDE8F88F2868C0438000F3D487
:101560000020F7E72DE9F0470D46040065D0DFF8CD
:101570001491D9F80000EFB200F00F00A84207D292
:1015800089F80070D9F8000000F00F00A84254D18B
:1015900020683D4E810712D5400703D5306840F4DE
:1015A000E05030602078000703D5306840F4604098
:1015B00030603068A16820F0F00008433060207887
:1015C000C0072DD0304960680839012812D00228A0
:1015D00013D0032811D00968890700292DDA316852
:1015E00021F0030101433160FFF71AF9804641F20F
:1015F000883A0EE009688903EFE709688901ECE79A
:10160000FFF70EF9A0EB0801514502D90320BDE810
:10161000F0873068616800F00C00B0EB810FEFD10B
:10162000D9F80010484601F00F01A94207D9077008
:10163000006800F00F00A84201D00120E7E7207801
:10164000400705D53068E16820F4E0500843306079
:101650002078000706D53068216920F4604040EA10
:10166000C100306000F01EF83168084AC1F3031170
:10167000515CC8400649086006480068FFF7F8F862
:101680000020C4E7003C024008380240B82D0008A2
:10169000180000201000002001480068704700007A
:1016A00018000020224810B5006810F00C012148F5
:1016B00015D04310042911D01D4C241F08290FD028
:1016C0000C290CD1216801F03F022168490221D583
:1016D0002068C0F38810A0FB030120E0184610BD6D
:1016E000216801F03F022168490205D52068C0F356
:1016F0008810A0FB030104E02168C1F38811A1FB5D
:1017000000010023FEF77CFD2168C1F30141491C63
:1017100049000AE02168C1F38811A1FB0001002300
:10172000FEF76EFD2168C1F30271B0FBF1F010BD50
:10173000083802400024F4002DE9F84F04460078F0
:10174000C44EC007A6F104054ED0301D0168C1F398
:10175000810101290FD00168C1F38101022902D161
:101760003168490207D40068C0F38100032809D119
:101770003068400206D52868800335D560680028A7
:101780006FD031E06068B0F5803F10D0B0F5A02F89
:10179000286810D020F480302860286820F4802049
:1017A00028606068A0B1FFF73BF807460CE02868A6
:1017B00040F48030F4E740F480202860F7E7FFF73A
:1017C0002FF8C01B642875D828688003F7D50BE074
:1017D000FFF726F8074604E0FFF722F8C01B64284D
:1017E000F1D828688003F7D42078DFF86CA280074E
:1017F0004FF0000B44D59748001D016811F00C0F05
:101800000FD00168C1F38101022902D13168490278
:1018100007D50068C0F38100032809D13068400271
:1018200006D42868800714D5E068012819D110E093
:10183000E068B8B10120CAF80000FEF7F1FF0746E2
:1018400004E0FEF7EDFFC01B0228BCD82868800723
:10185000F7D52868216920F0F80040EAC100286027
:101860000EE0F4E0CAF800B0FEF7DAFF074604E045
:10187000FEF7D6FFC01B02281CD828688007F7D4C3
:101880002078000726D5DFF8CC817448616908F11B
:10189000700881B101210160FEF7C2FF074604E034
:1018A000FEF7BEFFC01B022804D8D8F8000080074E
:1018B000F6D50FE088E0C0F800B0FEF7B1FF0746AC
:1018C00004E0FEF7ADFFC01B02287DD8D8F8000069
:1018D0008007F6D42078400769D55E484FF00009AC
:1018E0003C300068C0000BD45A483C30016841F0DD
:1018F0008051016000684FF0010900F080500090B5
:1019000057480168C90511D40168804641F48071C7
:101910000160FEF785FF074604E0FEF781FFC01B6C
:10192000022851D8D8F80000C005F6D5494FA06864
:101930006C3701280FD00528386810D020F001003E
:101940003860386820F004003860A068B8B1FEF74D
:1019500067FF80460FE0386840F00100F4E740F090
:1019600004003860F7E7FEF75BFFA0EB080141F2E7
:101970008830814263D838688007F4D50EE0FEF7DE
:101980004FFF804607E0FEF74BFFA0EB080141F256
:101990008830814253D838688007F4D4B9F1000FF9
:1019A00005D02C483C30016821F080510160A069CD
:1019B000B0B32849091D0968C1F38101022946D045
:1019C0000228CAF860B000E039E003D0FEF728FF33
:1019D000044637E0FEF724FF074604E0FEF720FF49
:1019E000C01B02282BD828688001F7D4F4E907012E
:1019F0000843E1681B4A490802EB0141A26841EA39
:101A000082110843217C40EA0160217D40EA017097
:101A100030600120CAF86000FEF702FF044605E0CE
:101A200013E0FEF7FDFE001B022808D8286880019D
:101A3000F7D50AE0FEF7F4FE001B022802D90320C6
:101A4000BDE8F88F28688001F4D40020F8E7012071
:101A5000F6E700000438024000004742800E47428B
:101A6000007000400000FFFF10B5401EB0F1807F05
:101A700001D3012010BD4FF0E02460610F216017F9
:101A800001F037F90020A06107202061002010BD7F
:101A9000FEE7000010B586B014216846FEF7E8FBAB
:101AA0001A480024016841F080010160016801F0DA
:101AB00080010591016841F001010160016801F0B8
:101AC00001010591016841F002010160016801F026
:101AD00002010591016841F0040101600068694656
:101AE00000F004000590E020CDE9000408480294CD
:101AF000FEF7BEFD402000900120CDE901046946BB
:101B000004480394FEF7B4FD06B010BD303802401F
:101B10000004024000080240FEE7FEE70148FFF72C
:101B200039B80000400700202DE9F0410546006863
:101B30000E46016C00EB4614D4F8080B2B694FF4E9
:101B400000424FF0200C012B07D02B4B99424CD177
:101B5000010446D5C4F8082B4BE0DFF8A0E00307EA
:101B600005F5717711D5714503D9000401D5C4F885
:101B7000082B2846FFF788FA3A460121286800F02A
:101B80004BFE0820C4F8080B33E0830602D5C4F8E6
:101B900008CB2EE010F0280F2BD1714501D900049D
:101BA000D8D4C6EBC60005EB8000D4F8102BD0F8D3
:101BB0000412C2F312028A1AC0F81422D0F80822C2
:101BC0001144C0F80812F1B22846FEF7F8FE86B9B3
:101BD000D5F8100268B93A460121286800F01CFEC9
:101BE00007E0800601D5C4F808CBF1B22846FEF71D
:101BF000E6FE0020BDE8F0810A31544F0A30544F10
:101C00002DE9F84F0E46C1EBC60100EB8104814679
:101C1000D0F80080D4E914103C34884202D9012065
:101C2000BDE8F88F081AA168814200D20846C01C9E
:101C3000870808EB461A15E0451AA068A84200D2AA
:101C40000546E81C870899F810000090ABB2F2B284
:101C50004046E16801F03AF8E0682844E060A06995
:101C60002844A061DAF8180980B2B84205D3D4E953
:101C70000501814201D20028DED1D4E90501884264
:101C800008D806F00F0101208840D8F834188143A5
:101C9000C8F834180020C3E710B50B480B4A0021E0
:101CA00002EB810350F8044B491C1C604029F7DB10
:101CB000074A002102EB810350F8044B491C1C60C9
:101CC000FF29F7DD10BD0000000001082002002000
:101CD000200300202DE9F0411F4C86B072B6FEF7BC
:101CE000B1FC042102910020012103911B4F02212C
:101CF00000900491786019496846091DFEF70EFCB2
:101D00007868401CF7D1DFF85880002558F8256026
:101D10000023324621460220FEF756FC3870002888
:101D2000F6D1241D6D1C402DF0DB0E4E002556F81B
:101D3000257000233A4621460220FEF745FC002884
:101D4000F7D1241D6D1CFF2DF1DDFEF733FC62B6CB
:101D500006B0BDE8F081000000000108000000208E
:101D6000200200202003002070477047FEF75EBD70
:101D7000F0B5ABB0342117A8FEF77AFA142124A8E5
:101D8000FEF776FA5C216846FEF772FA29480025CC
:101D9000016841F080510160006800F08050299096
:101DA0002548016841F4404101600068012700F4C2
:101DB000404029903804CDE91770042602248001A0
:101DC0001F96CDE91D40B420CDE920040320CDE9C4
:101DD000220417A8FFF7B0FC08B172B6FEE7FFF7C0
:101DE00073F908B172B6FEE724A90F2081E831002B
:101DF0004FF4A05027904FF480502890052124A83C
:101E0000FFF7B0FB08B172B6FEE74FF480700090A8
:101E10006020CDE906604FF000600B97CDE90864C3
:101E200015906846FFF788F9002801D072B6FEE7E2
:101E30002BB0F0BD403802400070004005480168FA
:101E400041F47001016003494FF00060803908607F
:101E50007047000088ED00E010B5D0F88C22526881
:101E60009047002010BD134610B50A46002100F02F
:101E70009DF9002010BD134610B50A46002100F060
:101E800023FA002010BD10B50446802100F00AFAA4
:101E90002046BDE81040002100F004BA10B505212D
:101EA0000023C0F86C121A46194600F07FF9002092
:101EB00010BD10B50223C261C0F86C320262134635
:101EC0000A46002100F000FA002010BD10B50421E0
:101ED0000023C0F86C121A46194600F0F5F90020EC
:101EE00010BDF8B50D4649880446080A06284CD0AE
:101EF00006DC01280DD0022810D003284FD11BE0AA
:101F000007284AD00F284AD1D4F88812207CCA6901
:101F100037E0D4F88812207C0A6832E0207C022660
:101F20000028D4F88C0205D0C16A6846884701466B
:101F3000467041E0816AF8E7C8B206282FD2DFE890
:101F400000F003080D12171CD4F88812207C4A6890
:101F500017E0D4F88812207C8A6812E0D4F888123E
:101F6000207CCA680DE0D4F88812207C0A6908E059
:101F7000D4F88812207C4A6903E0D4F88812207CC7
:101F80008A6969469047014616E0207C38B9D4F842
:101F90008C02416B68468847F5E7207C20B12946D2
:101FA0002046FFF770FFF8BDD4F88C02016B68463D
:101FB0008847014607204870BDF8000048B1EA880C
:101FC00052B1824200D90246ADF800202046FFF708
:101FD00070FFE8880028E6D12046FFF777FFF8BDBC
:101FE00001004FF0000004D0012901D0022901D0E6
:101FF000022070470120704710B5D0F89802FEF714
:10200000ECFCBDE81040FFF7EBBF2DE9F0411746AF
:10201000044651B1D4F88C0242691AB194F87402A2
:10202000032851D00220BDE8F081D4F86C3200259D
:1020300004F11400022B03D0042B3AD0C3B33CE0CC
:10204000D0E903639E4207D9F11AC1608AB23946CA
:102050002046FFF710FF12E08068B0FBF3F103FBAE
:10206000110199B9984211D3D4F8701288420DD257
:10207000002211462046FFF7FEFEC4F870520023EE
:102080001A461946204600F091F816E0D4F88C0262
:10209000C16829B194F87402032801D12046884709
:1020A0008021204600F0FEF82046FFF7F7FE04E00E
:1020B000FFE78021204600F0F5F894F87802012827
:1020C00004D184F8785201E0204690470020AAE726
:1020D00070B51546044649B1D4F88C0282691AB12C
:1020E00094F87402032830D0022070BDD4F86C122A
:1020F00004F5A070032902D005291ED027E0D0E9FD
:1021000003318B420BD95B1AC3600846834200D36C
:1021100003469AB229462046FFF7A5FE17E0D4F8F9
:102120008C02016929B194F87402032801D1204678
:1021300088472046FFF7CAFE09E000200146C4F8A0
:102140006C02204600F0AEF801E0204690470020E7
:1021500070BD0020704710B5012180F87412D0F8CE
:102160008C22017952689047002010BD0A0601F0C8
:102170007F01D0F89802C1EBC10100EB810002D5CC
:1021800090F83E00704790F8FE01704700207047BD
:102190000020704710B51C461346D0F8980222461E
:1021A000FEF749FCBDE81040FFF71ABF10B5D0F8A4
:1021B0009802FEF770FCBDE81040FFF711BF70B544
:1021C0000022044640231146FFF7E4FF4026012584
:1021D000C4F850613346002280212046C4F844519F
:1021E000FFF7D8FF6662A56184F874520020C4F836
:1021F0006C026060C4F87C02D4F8900228B1D4F874
:102200008C020021426820469047002070BD90F863
:10221000751280F874120020704710B590F874128F
:10222000032904D1D0F88C12C96901B18847002074
:1022300010BD01740020704710B5D0F89802FEF769
:102240000FFFBDE81040FFF7CBBE70B5044600F5A8
:102250002070054600F041F80120C4F86C02B4F883
:102260008602C4F8700294F8802212F01F000AD08F
:1022700001280DD0022810D002F08001204600F085
:1022800011F8002070BD2946204600F087F8F8E7D5
:102290002946204600F0B3F9F3E72946204600F02E
:1022A00006F9EEE710B5D0F89802FEF718FCBDE885
:1022B0001040FFF795BE90F8741280F87512042153
:1022C00080F874120020704710B5D0F89802FEF71D
:1022D00040FCBDE81040FFF783BE0A7802704A78E0
:1022E00042708A78CB7802EB032242800A794B79DC
:1022F00002EB032282808A79C97902EB0121C18035
:10230000704710B5D0F88C2202241AB11268904799
:1023100000B90024204610BD70B50E461E4D8978C8
:1023200004462970012931D894F8740202280BD090
:1023300003280FD031462046FFF7A5FD2978204617
:10234000BDE87040FFF788BDD9B10320616084F813
:10235000740209E071B16068884212D0C1B22046AF
:10236000FFF77AFD297861602046FFF7CAFF02284F
:102370000CD006E0022084F8740220466160FFF76A
:102380006BFD2046BDE87040FFF7A0BD31462046FA
:10239000BDE87040FFF777BD1C0000202DE9F0413B
:1023A0000A78002712F0600208D0202A01D0402AC3
:1023B00070D1D0F88C22926890476DE04A78002363
:1023C00001260A2A66D2DFE802F0405D65576508FB
:1023D00005652C29FFF785FD5EE004468888D8B99D
:1023E000C888C8B94888802816D200F07F0594F8BC
:1023F0007402032810D084F8765229462046FFF74D
:102400001BFF2046FFF762FD1DB1022084F8740215
:1024100042E084F874623FE020463BE0FFF77CFF37
:102420003AE0CA88012A35D190F87422012A04D0F2
:10243000022A02D0032A2DD104E0012200F1080172
:10244000836016E00122011D13E090F87422012A36
:1024500003D0022A01D0032A1CD1CA88022A19D12A
:10246000C660D0F87C1209B10321C160022200F1DC
:102470000C01FFF71EFD0FE0498801290CD1C0F8BF
:102480007C6211E090F87422012A08D0022A06D05A
:10249000032A04D0FFF7F7FC3846BDE8F0814988ED
:1024A0000129F9D1C0F87C32FFF710FDF4E72DE9DE
:1024B000F0410A46044613780027097913F06000BA
:1024C0000AD0202801D0402850D1D4F88C021146DF
:1024D0008368204698478FE0C3F34110012806D057
:1024E0005078D0B301282AD003283FD107E0D4F890
:1024F0008C02114683682046BDE8F041184794F8E5
:102500007402022802D0032872D10AE071B3802934
:102510006ED02046FFF7C6FE80212046FFF7C2FEA0
:102520006AE0508838B931B1802904D0D08810B918
:102530002046FFF7B7FE2046FFF7C8FC5CE094F8A2
:1025400074020228E2D0032852D1508898BB480672
:10255000F1D02046FFF750FDEDE7FFE794F8740255
:102560000026022803D0032842D112E040E009B13E
:1025700080293DD1080601F07F0000EB800004EBCC
:10258000800101D5143101E001F5A07102220E6035
:102590002AE0080601F00F0000EB800004EB800049
:1025A0000AD5806920B301F07F0000EB800004EBC6
:1025B000800514350BE01FE0D0F84401C0B101F0F4
:1025C0007F0000EB800004EB800505F5A07541B1AC
:1025D000802906D02046FFF7C9FD10B101202860F0
:1025E00000E02E60022229462046FFF762FC03E04D
:1025F00011462046FFF747FC3846BDE8F08170B52C
:10260000054608780C4610F0600203D0202A01D05D
:10261000402A16D195F87422012A03D0022A01D04B
:10262000032A0ED1207901280BD8D5F88C028268B4
:1026300028469047E188014306D12846FFF746FC2B
:1026400002E02846FFF71FFC002070BD70B50A7835
:10265000012302F00F054E78AB401B4CD0F81C58FC
:10266000012E17D045EA0343C0F81C3800EB421096
:10267000D0F8002B12040BD4D0F8002B0B89C978AA
:10268000C3F30A031A4344EA81410A43C0F8002B0A
:10269000002070BD9BB21D43C0F81C5800EB4210D7
:1026A000D0F800391B04F3D4D0F800390D89C9786B
:1026B000C5F30A0589042B4341EA82510B432343A6
:1026C000C0F80039E4E7000000800010D0F80019DD
:1026D0006FF30A01C0F80019D0F80818C1F34101DE
:1026E000022905D1D0F8001941F00301C0F8001902
:1026F000D0F8041841F48071C0F804180020704725
:1027000070B50D784E78434CEBB200EB4313012EBD
:102710001FD0D3F8100B6FF31200C3F8100BD3F8CF
:10272000100B2040C3F8100B486908B18868486155
:10273000D3F8100B40F40020C3F8100BD3F8100BA3
:102740008C68C4F312042043C3F8100B012A55D03F
:1027500058E04E69002ED3F8106932D06FF312069C
:10276000C3F81069D3F810692640C3F810694E69A0
:102770008C68A64200D94C61D3F8104944F4002477
:10278000C3F81049D3F810494E69C6F31206344312
:10279000C3F81049012A22D000EB4512D2F80039C3
:1027A00043F00443C2F800394A6932B3D0F8342800
:1027B000097801F00F03012199400A43C0F8342839
:1027C00026E02640C3F81069D3F8104944F40024E9
:1027D000C3F81049D3F810496FF31204D8E7096918
:1027E00019B100EB4512C2F8141900EB4510D0F8EE
:1027F000001941F00441C0F8001909E0C86808B1A7
:10280000C3F8140BD3F8000B40F00440C3F8000BDE
:10281000002070BDFFFF07E010B5036C134CA3420E
:1028200003D9D0F8003B002B1EDB0023C0F8103B7F
:10283000D0F8103B43F40023C0F8103BD0F8103B15
:1028400043F01803C0F8103BD0F8103B43F0C043EE
:10285000C0F8103B012907D1C0F8142BD0F8001B99
:1028600041F08021C0F8001B002010BD0A30544FF9
:102870004A780B78012A00EB43100BD0D0F8002BDC
:1028800022F40012C0F8002BC978032914D00229C1
:1028900012D017E0D0F8002922F40012C0F8002965
:1028A000C978032901D002290CD1D0F8001941F0D0
:1028B0008051C0F8001905E0D0F8001B41F08051AC
:1028C000C0F8001B002070470A784B78D1B200EBAB
:1028D0004110012B12D0D0F8001B002906DB2AB1D1
:1028E000D0F8001B21F08041C0F8001BD0F8001B7D
:1028F00041F40011C0F8001B00207047D0F8001907
:10290000002906DB2AB1D0F8001921F08041C0F877
:102910000019D0F8001941F40011C0F80019EBE7D4
:10292000F8B50C784E78764DE3B26FF0604700EB67
:102930004313012E26D0D3F8104B6FF31204C3F8C3
:10294000104BD3F8104B2C40C3F8104B4D69002DA1
:1029500073D08C6825446D1EB5FBF4F4D3F8105B7E
:10296000A4B207EAC4463543C3F8105BD3F8105B42
:102970008E686643C6F312042543C3F8105B012A30
:1029800070D0A5E04E69002ED3F8106921D06FF306
:102990001206C3F81069D3F810692E40C3F8106905
:1029A0004E698D682E44761EB6FBF5F5D3F8106996
:1029B00007EAC5453543C3F81059D3F810594E6995
:1029C000C6F312063543C3F81059CD78012D0ED049
:1029D00019E02E40C3F81069D3F8105945F40025CA
:1029E000C3F81059D3F810596FF3120509E0D3F862
:1029F000105925F0C045C3F81059D3F8105945F0C7
:102A00000055C3F81059012A18D000EB4413D3F82D
:102A1000004944F00444C3F80049CC78012C2FD07D
:102A20004A6962B3D0F83428097801F00F03012114
:102A300099400A43C0F8342860E036E00A691AB1C8
:102A400000EB4413C3F81429C97801290FD1D0F839
:102A50000818C90500EB4411D1F8002903D442F04D
:102A6000005202E030E042F08052C1F8002900EB51
:102A70004410D0F8001941F00441C0F800193DE0BD
:102A8000D0F80848E405D3F8004902D444F00054D3
:102A900001E044F08054C3F8004900928A8A93B25E
:102AA0000A78C96800F012F928E0D3F8104B8D6855
:102AB000C5F312052C43C3F8104BD3F8104B44F464
:102AC0000024C3F8104B5AE7CA680AB1C3F8142BA4
:102AD000C97801290CD1D0F80808C005D3F8000B3B
:102AE00002D440F0005001E040F08050C3F8000BE9
:102AF000D3F8000B40F00440C3F8000B0020F8BDF1
:102B0000FFFF07E00022202343EA8111016105490C
:102B1000521C8A4201D90320704703699B06F7D4EF
:102B200000207047400D0300D0F8080810F00600A0
:102B300004D0022803D0062801D00F2070470220BD
:102B40007047406900F001007047D0F81818D0F8BD
:102B50001C08084080B27047D0F81818D0F81C083C
:102B60000840000C704710B5D0F81038D0F8342861
:102B700001F00F0400EB4110E24002F00102D0F836
:102B8000080943EAC212104010BD00EB4111D1F810
:102B9000081BD0F814080840704741698069084054
:102BA00070470346D21C10B508469208002103F571
:102BB000805302E01C68491C10C09142FAD310BD3A
:102BC000D0F8002822F4FE62C0F80028D0F80028CF
:102BD0004FF4FE6303EA01110A43C0F80028002005
:102BE00070470000022A3ED1264A274B0A449A42E7
:102BF00001D20F2138E0254A254B0A449A4201D2DE
:102C00000E2131E0234A244B0A449A4201D20D217D
:102C10002AE0224A224B0A449A4201D20C2123E0A4
:102C2000204A214B0A449A4201D20B211CE01F4A40
:102C30001F4B0A449A4201D20A2115E01D4A1E4B3D
:102C40000A449A420FD31D4A1D4B0A449A4201D2AC
:102C5000082109E01B4A11441B4A914201D2072175
:102C600002E0062100E00921C26822F47052C2602D
:102C7000C2684FF4705303EA81210A43C260002006
:102C800070470000405327FF00350C00401E1BFF1B
:102C900040420F0000DC0BFF804F1200808CF9FED9
:102CA00020D6130060B6E5FE60E3160000D3CEFE2A
:102CB00040771B00C05BB3FEC091210000CA91FEAB
:102CC00020753800E05459FEE09C410010B5029C8C
:102CD00064B9DB1C9C0800EB0230002300F5805037
:102CE00002E004C902605B1CA342FAD3002010BDBD
:102CF000FEE70907090E002804DB00F1E02080F858
:102D00000014704700F00F0000F1E02080F8141D5F
:102D1000704702E008C8121F08C1002AFAD17047A4
:102D20007047002001E001C1121F002AFBD170474B
:102D300086B014216846FDF79BFA01200090002020
:102D4000019005216846FEF70DFC08B172B6FEE75A
:102D5000002080F31088FDF771FDFFF709F8FEF7FA
:102D600099FE114C20212046FDF754FD40212046BC
:102D7000FDF750FD80212046FDF74CFD0B4806680D
:102D8000001D0468001D0568FEF786FF0848094914
:102D900000EB9600400000EB9400400000EB950033
:102DA0000861FEF797FFFEE700040240107AFF1F5C
:102DB00015040908200300200000000000000000A6
:102DC0000102030406070809E82D0008000000209E
:102DD00020000000122D0008082E0008200000200E
:102DE000280F0000222D0008000000000000000055
:102DF00000000000010000001000000000000000C2
:082E00000024F40000000000B2
:04000005080001C529
:00000001FF
