:020000040802F0
:1000000040560120D9010208CB850208617302081D
:10001000C9850208950D020837AE020800000000ED
:100020000000000000000000000000006D8B0208CE
:10003000051D020800000000ED880208198D020865
:10004000F3010208F3010208F3010208F3010208B8
:10005000F3010208F3010208F3010208F3010208A8
:10006000F3010208F3010208F3010208F301020898
:10007000311C0208F30102083D1C0208F3010208CA
:10008000491C0208551C0208390B0208A50D02087C
:10009000990D0208F3010208F3010208F3010208B6
:1000A000F18E0208158F0208098F0208FD8E0208E2
:1000B000218F0208F3010208F3010208F30102088C
:1000C000F3010208F3010208F3010208F301020838
:1000D000F3010208F3010208B1950208BD95020878
:1000E000F3010208F3010208F3010208F301020818
:1000F000F3010208F3010208F3010208F301020808
:10010000F3010208F3010208F3010208F3010208F7
:10011000F3010208F3010208F3010208F3010208E7
:10012000F3010208F3010208F3010208F3010208D7
:10013000F30102080000000000000000F3010208C3
:10014000F3010208F3010208F3010208ED85020839
:10015000F3010208F3010208F3010208F3010208A7
:10016000F3010208F3010208F3010208F301020897
:10017000F3010208F3010208F30102080000000085
:1001800000000000F3010208000000000000000071
:10019000F30102080000000000000000F301020863
:1001A000000000000000000000000000F301020851
:1001B000F3010208F3010208F3010208F301020847
:1001C000F3010208DFF80CD000F05AFC00480047A9
:1001D00019E10208405601200648804706480047BA
:1001E000FEE7FEE7FEE7FEE7FEE7FEE7FEE7FEE7E7
:1001F000FEE7FEE7498E0208C50102089FED1A1AC4
:10020000F5EE000A40EE010ABDEEE00AF5EEC00A86
:1002100010EE100AF1EE10FA38BF401E00EE100A80
:100220001349F7EE001AB8EEC00A30EEC00ADFED4F
:100230000F0A20EE200AFCEEC00A10EE900AC0F36E
:10024000080000EE900A01EB8000F8EE600A90EDE5
:10025000011A70EE600A90ED000A71EEE01A21EECC
:10026000800A00EE810A704783F9223E00000044B4
:1002700010060308DFED190AB5EEC00A60EE200A89
:10028000BDEEE01A11EE100AF1EE10FA38BF401E72
:1002900000EE100A1349F7EE001AB8EEC00A30EE6D
:1002A000C00ADFED0F0A60EE200ABCEEE00A10EE95
:1002B000100AC0F3080000EE100A01EB8000B8EE4F
:1002C000400A90ED011A70EEC00A90ED000A71EE3E
:1002D000E01A21EE800A00EE810A704783F9223E7F
:1002E00000000044100603082DE9F05F05460020D9
:1002F00092469B4688460646814640241BE0284697
:1003000041464746224600F056FA53465A46C01A1E
:10031000914110D311461846224600F03DFA2D1A9D
:1003200067EB01084F4622460120002100F034FA15
:1003300017EB00094E41201EA4F10104DFDC484602
:1003400031462A464346BDE8F09F40EA01039B0739
:1003500003D009E008C9121F08C0042AFAD203E03A
:1003600011F8013B00F8013B521EF9D27047D2B29E
:1003700001E000F8012B491EFBD270470022F6E78E
:1003800010B513460A4604461946FFF7F0FF20460B
:1003900010BD2DE9FE4F804681EA0300C00F0C46D8
:1003A000009021F0004123F00045B8EB0200A94184
:1003B00005D24046214690461C460B46024623F095
:1003C0000040104347D0270DC7F30A00C3F30A517A
:1003D0000290401A019040286BDAC3F3130040F4F6
:1003E000801B0098924620B10023D2EB030A63EBF6
:1003F0000B0B01985946C0F14002504600F0CCF971
:1004000006460D4650465946019A00F0E4F910EBB5
:1004100008006141002487EA115284EAE7731A4315
:1004200040D0009A62B3019A012A4FEA075215DCC4
:10043000001B61EB02014FF0004202EA0752CDE9D6
:100440000042001C41F5801132462B4600F01BFA99
:1004500003B0BDE8F08F40462146F9E7001B61EB91
:100460000201001C41F5801300185B412018A2F521
:10047000001747EB030140EAD570B6196D4111E052
:100480006D084FEA360645EAC0754FEA0752001B71
:1004900061EB0201001C41F5801149084FEA300070
:1004A0000019514132462B4603B0BDE8F04F00F031
:1004B000DBB90098012240000023D0EB020263EB7D
:1004C000E073009821464FEAE074B8EB000061EB5E
:1004D0000401E9E783F000435BE781F0004158E75E
:1004E0002DE9FE4F81EA030404F0004421F00041AD
:1004F00000944FF0000B23F0004350EA01045ED05B
:1005000052EA03045BD0C3F30A54C1F30A552C44E6
:10051000A4F2F3340194A0FB0254C1F3130141F49B
:100520008011C3F3130343F4801301FB024400FB67
:10053000034E840A970A44EA815447EA8357A4FB8E
:10054000076802958D0A05FB07854FEA932C04FB8B
:100550000C542705029D4FEA065847EA1637B5EBBB
:1005600008056EEB070C870E920E47EA811742EAE8
:100570008312A7FB0201B6EB0B0164EB00042B0D09
:1005800043EA0C335E1844EB1C50DA465146E7FB55
:100590000201C5F313044FEA0B3343EA14534FEA45
:1005A0000432019C43EA0603A4F10C040294009C6B
:1005B000CDE900B400F067F903B0BDE8F08F00208A
:1005C0000146F9E72DE9F04D81EA030404F0004B00
:1005D00021F0004514464FF0000A23F0004150EA94
:1005E000050220D054EA01021DD0C5F30A57024685
:1005F000C5F31303C1F31300C1F30A5640F4801589
:1006000043F48013A7EB0608101BD64608F2FD380A
:1006100073EB050002D308F1010801E092185B4179
:10062000B8F1000F03DA00200146BDE8F08D00208C
:100630004FF48011064684460EE0171B73EB050746
:1006400005D3121B63EB050306434CEA010C490872
:100650004FEA300092185B4150EA0107EDD152EAAF
:10066000030012D082EA040083EA0501084305D0A2
:10067000101BAB4106D20122002306E000224FF0FE
:10068000004302E06FF0010253101AEB06004CEB3E
:10069000085110EB0A0041EB0B01BDE8F04D00F0F2
:1006A000E3B80EB5C10F80EAE0700844CA07002124
:1006B00040F233438DE80E000A460B4600F0E3F8A3
:1006C00003B000BD0EB540F2334102910021CDE9E7
:1006D00000110A460B4600F0D6F803B000BD00F04A
:1006E000004230F000400AD0C10D01F56071C0F346
:1006F000160042EA0151C20840071143704700202A
:100700000146704730B5041E71F1000404DB4FF060
:100710000044404264EB0101141E73F1000405DB48
:100720001C464FF00043524263EB0403994208BF5A
:10073000904230BD01F0004330B421F0004150EA56
:10074000010206D00A0DA2F56072C1F31301002A5E
:1007500002DC30BC00207047440F44EAC104C100F1
:10076000E01830BC00EBC25000F047B830B50B4683
:10077000014600202022012409E021FA02F59D42D1
:1007800005D303FA02F5491B04FA02F52844151EA5
:10079000A2F10102F1DC30BD202A04DB203A00FA8C
:1007A00002F1002070479140C2F1200320FA03F3C8
:1007B000194390407047202A04DB203A21FA02F0C6
:1007C0000021704721FA02F3D040C2F1200291408B
:1007D000084319467047202A06DBCB17203A41FA16
:1007E00002F043EAE07306E041FA02F3D040C2F1BE
:1007F000200291400843194670470029A8BF70475E
:10080000401C490008BF20F00100704710B4B0FA46
:1008100080FC00FA0CF050EA010404BF10BC7047E1
:1008200049B1CCF1200421FA04F411FA0CF118BFFB
:10083000012121430843A3EB0C01CB1D4FEA0061CA
:100840004FEA102042BF002010BC704700EBC3509D
:1008500010440029A4BF10BC7047401C490008BFC9
:1008600020F0010010BC704710B5141E73F1000495
:1008700008DA401C41F1000192185B411A4301D192
:1008800020F0010010BD2DE9F04D92469B4611B1BC
:10089000B1FA81F202E0B0FA80F220329046FFF71E
:1008A0007BFF04460F4640EA0A0041EA0B0153462B
:1008B0005A46084313D0114653EA010019D0C8F133
:1008C00040025046FFF777FF05460E465046594610
:1008D0004246FFF761FF084305D0012004E02046AF
:1008E0003946BDE8F08D0020054346EAE0762C430A
:1008F00037430A986305E40AA0EB08000022FD0ACA
:1009000044EA47540A3002D500200146E9E70105D0
:1009100010196941DDE9084500196941BDE8F04D4C
:10092000A2E72DE9F04D00231A461B1A8A4103DB8A
:1009300000200146BDE8F08DC1F30A52C1F3130156
:1009400041F480154FF0000BD10702D100186D4122
:10095000521E0027044640F2FF11384601EB620A9E
:100960003E468046024600204FF48011FFF723FFE9
:10097000C2197141BB1846EB0100B4EB030C75EBD7
:10098000000C04D3E41A65EB000517460E46241943
:1009900008F101006D4180463428E3DDF91946EB8A
:1009A0000600091BA84103D24FF0FF32134601E0B5
:1009B000002213461BEB070046EB0A51BDE8F04D41
:1009C000FFF752BF2DE9FE4FC3F30A5701F0004570
:1009D0000024C1F30A56C3F31303C1F3130143F414
:1009E000801312EB020AA64641F48011009543EBF6
:1009F000030CA7F1010B16E0B0EB0A0061EB0C0150
:100A0000071E71F1000707DA4FF00008D0EB08006D
:100A100085F0004568EB0101171A73EB0107EBD372
:100A2000761E001849415E45F6DA50EA010209D007
:100A3000CDE900E5002213460296FFF724FF03B03C
:100A4000BDE8F08F20460099F9E7C1F30A52C1F3DF
:100A5000130140F2FF3341F480119A4202DA002080
:100A60000146704740F233439A42A2F2334202DC1D
:100A70005242FFF7A0BEFFF78FBE00207047000074
:100A8000064C074D06E0E06840F0010394E80700DB
:100A900098471034AC42F6D3FFF798FBE4100308F4
:100AA0000411030870B5C1F30A5201F00045002497
:100AB000C1F3130140F2FF3341F480119A4201DA8D
:100AC000002070BD40F233439A42A2F2334203DC6D
:100AD0005242FFF770FE00E090402C43F1D04042BC
:100AE00070BD70B58C1810F8015B15F0070301D1CB
:100AF00010F8013B2A1106D110F8012B03E010F881
:100B0000016B01F8016B5B1EF9D12B0705D40023A3
:100B1000521E0DD401F8013BFAE710F8013BCB1A45
:100B2000921C03E013F8015B01F8015B521EF9D53A
:100B3000A142D8D3002070BD10B5054802F082FA5A
:100B4000044802F07FFABDE81040034802F07ABA88
:100B5000140300205C030020A4030020464910B5C4
:100B60004A6822F440324A604A6843681A434A603D
:100B700001684A6822F480724A6001684A68036921
:100B800042EA03224A6001684A6822F040724A60E1
:100B900001684A6883681A434A6001688A6822F4D7
:100BA00000628A6001688A68C3681A438A60816A41
:100BB0006FF07062D14201688A6822F070628A60C8
:100BC00001688A680CD0836A1A438A6001688A685F
:100BD00022F040528A6001688A68C36A1A4301E0C1
:100BE00022F040528A6001688A6822F002028A601C
:100BF00001688A68037E42EA43028A6090F8201006
:100C0000002901684A680FD042F400624A60016816
:100C10004A6822F460424A6001684A68174C436A95
:100C200004EB43331A4301E022F400624A60016896
:100C3000CA6A22F47002CA620168CA6A838B104CC5
:100C400004EB03531A43CA6201688A6822F40072F3
:100C50008A6001688A6890F8303042EA43228A60EC
:100C600001688A6822F480628A6001688A68406943
:100C700042EA8020886010BD0023014000E0FFFFB1
:100C80000000F0FF2DE9F04100232DED028B82B032
:100C9000384A3949394807F06FFF374DADF8000041
:100CA000002695F80404012856D002285AD00328BB
:100CB00054D0042854D034469FED318A95ED040A6F
:100CC000F0EE480A0CF008FD804695ED060AF0EEBD
:100CD000480A0CF001FD07462A4895ED150AF0EE8A
:100CE000480A90ED211A20EE010A0CF0F5FC264985
:100CF000204D0978ADF804101135AB2129701D493C
:100D0000BDF800204A82C1F814808F61C86181F863
:100D10002040BDF80400A1F821001221284600F06F
:100D200061F9A87413222946184806F0DBF918491E
:100D3000D0B10868401C0860B0F57A7F15D30E600A
:100D400007F078F907F0A0FB02B01048BDEC028B69
:100D5000BDE8F04105F05CBF0824ADE70924ABE72E
:100D60000A24A9E70B24A7E70E6002B0BDEC028BB2
:100D7000BDE8F081FA360020E0160020F8110020CE
:100D800000401C46F80C00204C020020F406002015
:100D9000B0020020FEE70000014802F0ACBC0000F9
:100DA000EC030020014802F0A6BC0000EC03002088
:100DB00070B5A6B00024494800908DF81C408DF80D
:100DC0001D400005CDE9020401264FF4A0208DF856
:100DD000184004908DF8194030058DF81A400590A0
:100DE0008DF81B6005200190684602F082FD08B175
:100DF00001F0A4F83A4D0FA9A8884005000CCDE9F0
:100E00000A044FF6FF700C90CDE90D041B2081E819
:100E10005100CDE912640AA9684602F04BFB08B103
:100E200001F08CF8684602F0E6FE08B101F086F8A1
:100E300068681490022018901794CA208DF88400D6
:100E4000FE208DF8850016948DF8644025AB21AA0C
:100E500014A9684602F0CAFA08B101F06FF86846B2
:100E600002F033FC0328FAD10021684602F0A9FB06
:100E7000012801D001F062F823AB1AAA00216846CC
:100E800002F0AFFB08B101F059F81A98696888427E
:100E90000DD11D9858B91C9848B91E98022806D142
:100EA000BDF88C0040BAA0F54A41FE390BD0684627
:100EB00002F0CCFE08B101F041F8684602F0A6FD50
:100EC000012026B070BD684602F0C0FE08B101F0F6
:100ED00035F8684602F09AFD0020F2E70064004011
:100EE000F80D002070B51A4D04462888401C80B2C9
:100EF0000521B0FBF1F2288001FB120018B9002196
:100F0000204607F0F5FCD4ED4C0AD4ED3F1A95EDE0
:100F1000010A30EEE11AB4EEC01AF1EE10FA02DD69
:100F200030EEC00A08E0B1EE402AB4EEC21AF1EE8B
:100F300010FA04D230EE800A84ED4C0A01E0C4EDD0
:100F40004C1A2046BDE87040002109F075BF000032
:100F500080000020002070470020704710B500225C
:100F60000449054808F03FFC0449034808F032FCF6
:100F7000002010BD64280020941B00206420002065
:100F800070B50C460C4905460868401C08602946A7
:100F90000A482268FFF7D9F92068082803D1002100
:100FA00006480DF0B5FE2946054808F013FC044834
:100FB00008F0F5FB002070BD08010020F80B0020B0
:100FC000941B0020002070470A4610B501460448D3
:100FD00008F009FCBDE81040014808F06EBC0000B4
:100FE000941B002030B50346002080240DE013F848
:100FF000012B50400022C50702D084EA500000E0D7
:101000004008521CD2B2082AF5D3491EC9B2EED20A
:1010100030BDF0B5002140F22F150C460022035DD3
:1010200001F0800603F08007BE4202D085EA41014C
:1010300000E049005B061B0E521CC9B2072AEFDD17
:10104000641C062CEADBC9438171F0BDF0B50221B6
:1010500040F21D1500240023025D01F0800602F01D
:101060008007BE4202D085EA410100E049005206F5
:10107000120E5B1CC9B2072BEFDD641C0C2CEADBE3
:10108000017302210D240022035D01F0800603F0AC
:101090008007BE4202D085EA410100E049005B06BC
:1010A0001B0E521CC9B2072AEFDD641C132CEADBAD
:1010B000C174F0BDF0B5002140F22F1507240022C5
:1010C000035D01F0800603F08007BE4202D085EA8E
:1010D000410100E049005B061B0E521CC9B2072A01
:1010E000EFDD641C0C2CEADBC9430173F0BD00008A
:1010F0002DE9F05FDFF814B40D462DED0C8BADF546
:10110000564D06464FF428644FF0280A9BEDEB0A33
:10111000B8EEC00ADFEDFE9A20EE290ADFEDFD0AE7
:101120004DF224476F44C0EE208A4FF48071384658
:10113000FFF724F94FF40071A7F50070FFF71EF9CF
:10114000DFEDF5AA95ED030ADFEDF40A60EE20BAB3
:101150009FEDF1BA9FEDF00A0DF57050DFF8C083F6
:1011600080EDC50AB6EE00AA9FEDEB0A80EDC2AA9B
:1011700088ED000AFFF77EF84046B0EE40DA90EDC9
:10118000000AFFF73BF80DF5405306F1E400F0EEDE
:1011900040DA4FF480723946C3F8200FFFF7D5F8D4
:1011A00043F614726A4402F10801081FF0EE4B1A6C
:1011B000B0EE6B1AF0EE4D0AB0EE6D0A0CF05AF973
:1011C0000DF5705343F608726A4402F1080195ED7B
:1011D000030A081FD3EDC51A93EDC71AD3EDC60A4B
:1011E00006F02EFD95F8A0009FEDCE8A00280DF5A3
:1011F000705090EDC30A20EE081A06D090EDC40A94
:1012000060EE080A90EDC20A05E090EDC20A60EEB9
:10121000080A90EDC40A20EE080A06F037F8C2A0CA
:101220000DF064FD4FF4FA6002F02EFF9FEDCCCA82
:101230003046B0EE4C0A00F0CBFDCA480DF056FD2A
:10124000DFF824930027C94801F00CFDD9F80010FD
:10125000D9F83C10D9F83C0100EE101AB8EE400A5B
:1012600039EE009A00EE100A7F1C052FB8EE400AF6
:101270007CEE80CAE7DB9FEDBE0A69EE000A2CEE29
:10128000800AFDEEE00ABDEEC00A10EE900A10EEF4
:10129000101AC5E92A01D5F8B820891A00EE101AEB
:1012A000F8EEC00A9FEDB30A60EE801AC5ED011A90
:1012B000D5F8B410401A00EE900A05F12801081F75
:1012C000F8EEE00A20EE802AB1EE610AF0EE4D0A57
:1012D00085ED022A30EE421AB0EE6D0A85ED001A55
:1012E0000BF036FF95ED090AF0EE000A0AF0E2F87D
:1012F000B0EE409A95ED0A0AF0EE000A0AF0DAF82C
:1013000039EE000A0AF00DFD8548B0EE409A80EDF6
:10131000019A99A00DF0EAFC00278DE04FF000083B
:10132000DFF8FC914DE099ED000A30EE280A89EDD6
:10133000000AFEF79FFFF0EE40CA99ED000AFEF7A3
:101340005DFF43F614726A4402F10801081FF0EED3
:101350004B1AB0EE6B1AF0EE6C0A0CF08BF80DF530
:10136000705343F608726A4402F1080195ED030ACE
:10137000081FD3EDC51A93EDC71AD3EDC60A06F0C0
:101380005FFC95F8A00000280DF5705090EDC30AA1
:1013900020EE081A06D090EDC40A60EE080A90ED1F
:1013A000C20A05E090EDC20A60EE080A90EDC40A98
:1013B00020EE080A05F06AFF64200CF037F808F107
:1013C0000108D045AFDBB0EE4C0A304600F000FD1E
:1013D000DBEDEBCA96ED030AD6ED040AB8EEEC1A83
:1013E00099ED00DA30EE200A02A8CDEE010A00EBFA
:1013F000870042F60821694470EEC00AC0ED000A79
:10140000B6F8CC0021F8170010EE100AFFF767F9C4
:10141000F8EEEC0A804689468DEE200A10EE100A9E
:10142000FFF75DF941EC100B5FA053EC102BCDE9F9
:1014300000890DF05BFC7F1CA742FFF66FAF002711
:10144000E7E04FF00008DFF8D8904DE099ED000A92
:1014500030EE680A89ED000AFEF70CFFF0EE40CA94
:1014600099ED000AFEF7CAFE43F614726A4402F1CF
:101470000801081FF0EE4B1AB0EE6B1AF0EE6C0A82
:101480000BF0F8FF0DF5705343F608726A4402F151
:10149000080195ED030A081FD3EDC51A93EDC71A8D
:1014A000D3EDC60A06F0CCFB95F8A00000280DF598
:1014B000705090EDC30A20EE081A06D090EDC40AD1
:1014C00060EE080A90EDC20A05E090EDC20A60EEF7
:1014D000080A90EDC40A20EE080A05F0D7FE642041
:1014E0000BF0A4FF08F10108D045AFDBB0EE4C0AC9
:1014F000304600F06DFC96ED030AD6ED040ADBEDF4
:10150000EBCA30EE200AB8EEEC1A55E0F80D0020D8
:10151000DB0FC9400000D24700000000CDCCCC3D1D
:10152000780000209A99193F202D2D2D2D2D2D2D3D
:101530002D2D2D2D2D2D2D2D2D2D2D2D2D2D53548E
:101540004152542D2D2D2D2D2D2D2D2D2D2D2D2D6B
:101550002D2D2D2D2D2D2D2D200A0D0A0D000000D5
:1015600017B75138A01003080020014014030020D1
:10157000CDCC4C3E000096BD2043757272656E74F2
:1015800020416E676C65203A20526F746F72204163
:101590006E676C65203A2052617720456E636F64F8
:1015A0006572200A0D0A0D00732C252E34662C2539
:1015B0002E34662C6500000099ED00DA43F62470A5
:1015C0006844CDEE010A00EB870046F62411694419
:1015D00070EEC00AC0ED000AB6F8CC0021F8170082
:1015E00010EE100AFFF77BF8F8EEEC0A8046894609
:1015F0008DEE200A10EE100AFFF771F841EC100B87
:1016000053EC102BAFF26000CDE900890DF06EFBBA
:101610007F1CA742FFF615AFB6EE001AF6EE000AE1
:10162000B6EE000A05F032FE43F62478B0EE6A8A80
:101630000020F0EE000A02AFE84415E007EB80015D
:10164000221A91ED000A08EB8201401C11ED011AEB
:1016500030EE011A00EE104AB8EEC00A60EE201A11
:1016600081EE210A30EE088AA042E7DB9BEDEB0A0F
:10167000B8EEC00A20EE080A10EE100AFFF72FF8A5
:1016800041EC100B9FED771B09F092FE51EC100B13
:10169000FFF750F800EE100AB5EEC00AF1EE10FAAE
:1016A00001D230EE290A714847F6246986ED020A14
:1016B00080ED010A0020E944424611E007EB800179
:1016C00091ED000A211A02EB810151ED010A09EBAB
:1016D0008001401C30EE200A20EE0A0A81ED000A4B
:1016E000A042EBDB4AF6240A0027EA4441E000214D
:1016F000621E9FED5F0A4B460AEB8708C819403807
:1017000001D5204402E0904200DD001B03EB800085
:10171000D8ED000A90ED001A491C802941EE000A1C
:10172000C8ED000AEADB802F18DA03EB8700D8ED5A
:10173000000A90ED000A70EE600A9BEDEB0AB8EE2D
:10174000C00A20EE800A0AF0E7F94DF2242020EECC
:10175000090A684400EB870080ED000A00EE104A99
:10176000D8ED000A7F1CB8EEC01A80EE810A70EE38
:101770002AAAA742BBDB0DF50050B0F9081A46F6BD
:101780002410684400EB440030F9020C084400EBDC
:10179000D070471037A00DF0A9FA42A00DF0A6FABC
:1017A0004DF224480024E84404EBE7127F2A00DDD0
:1017B000803ADBF8AC03214660430AEB800090EDF1
:1017C000000A70EE6A0A96ED340AB8EEC00A20EEFE
:1017D000800AC0EE290ABDEEE00A10EE100A03B23C
:1017E00028F812303CA00DF081FA641C802CDBDB61
:1017F0000DF540504FF48074224646464146D0F8DD
:10180000200FFEF7A2FD224631463748FEF79DFD28
:1018100095F8A010CBF8001007F01EF8142002F085
:1018200033FC32A00DF062FA142002F02DFC0DF50D
:1018300020509DED020AD0ED810A2E4930EE600A5B
:10184000B0EEC00A10EE100A884206DD03200DF546
:10185000564DBDEC0C8BBDE8F09F02200DF5564DAA
:10186000F7E7000000000060FB211940F80C0020A1
:101870000000003C0A0D20456E636F646572206EA7
:101880006F6E2D6C696E65617269747920636F6D1E
:1018900070656E736174696F6E207461626C650A45
:1018A0000D0000002053616D706C65204E756D62F7
:1018B0006572203A204C6F6F6B757020496E6465BD
:1018C00078203A204C6F6F6B75702056616C75658F
:1018D0000A0D0A0D00000000256420202025642048
:1018E00020202564200A0D000C0E0020732C732C80
:1018F000652C65000000C0402DE9F0470E462DED37
:10190000088B88B0074605F0EFFCDFED9C8AD6ED2A
:10191000030AB0EE680A9FED9A1A9A4C8DED020AFE
:1019200060EE81AAF6EE000ACDED050AB0EE40AAFF
:1019300084ED000AFEF79EFCB0EE408A94ED000AAA
:10194000FEF75CFC02AA03A904A8F0EE4A1AB0EE66
:101950006A1AF0EE480A0BF08DFD96ED030A05AA0F
:1019600007A906A8DDED021A9DED031ADDED040AB4
:1019700006F066F99DED060A9FED839A20EE091A9E
:101980009DED070A60EE090A9DED050A20EE090AA1
:1019900005F07CFC4FF4FA6002F076FB9FED7BBA19
:1019A0003846B0EE4B0A00F013FA012002F06CFB4F
:1019B000DFED779A774D94ED000A36E0FEF75AFC9A
:1019C000B0EE408A94ED000AFEF718FC02AA03A9C3
:1019D00004A8F0EE4A1AB0EE6A1AF0EE480A0BF0CC
:1019E00049FD96ED030A05AA07A906A8DDED021A2E
:1019F0009DED031ADDED040A06F022F9012002F044
:101A000043FB9DED060A20EE091A9DED070A60EEE4
:101A1000090A9DED050A20EE090A05F037FC94ED50
:101A2000000A30EE290A84ED000A10EE100AA842DE
:101A3000C4DBC4ED008ADFF86091A046AA466DE0E1
:101A4000FEF718FCB0EE408A98ED000AFEF7D6FBD0
:101A500002AA03A904A8F0EE4A1AB0EE6A1AF0EE40
:101A6000480A0BF007FD96ED030A05AA07A906A888
:101A7000DDED021A9DED031ADDED040A06F0E0F833
:101A8000012002F001FB9DED060A20EE091A9DEDF2
:101A9000070A60EE090A9DED050A20EE090A05F025
:101AA000F5FBB0EE4B0A384600F092F997ED030AC9
:101AB000D7ED040A30EE208A18EE100AFEF70FFE6A
:101AC00099EDEB0A98ED001A0446F8EEC00A0D46AF
:101AD00081EE200A10EE100AFEF701FE41EC100B19
:101AE0002EA053EC102BCDE900450DF0FFF898ED3A
:101AF000000AB5EEC00AF1EE10FA02DDF0EE400A7F
:101B000001E0F1EE400A10EE900A2849884201DA1D
:101B1000F0EE488A30EE290A88ED000A98ED000AB6
:101B200010EE101A51458BDBB5EE001AF5EE000AE7
:101B3000B5EE000A05F0AAFB97ED030AD7ED040AFB
:101B400030EE200A30EE680AB5EEC00AF1EE10FA67
:101B500001DD012400E00024142002F095FA14A015
:101B60000DF0C4F8142002F08FFA86F8A040C9F8EE
:101B7000004008B0BDEC088BBDE8F0870000000015
:101B8000CDCCCC3D780000209A99193F17B7513839
:101B90000AD7233CDB0F4941F80D0020732C252E7A
:101BA00034662C252E34662C63000000ACC5273724
:101BB000732C732C632C63001C4991ED060A80ED95
:101BC000000A91ED050A80ED010A91ED090A80ED08
:101BD000020A91ED080A80ED030A91ED0B0A80EDEF
:101BE000060A91ED0A0A80ED070A91ED0D0A80EDD3
:101BF000080A91ED0C0A80ED090A91ED0F0A80EDBB
:101C0000040A91ED0E0A80ED050A91ED0B0A80EDB4
:101C10000A0A91ED0A0A80ED0B0A91ED1D0A80ED8A
:101C20000E0A91ED0A0A80ED0F0A7047F80C0020A9
:101C3000014802F09DB8000038070020014802F07A
:101C400097B8000098070020014802F091B8000002
:101C500034060020014802F08BB8000094060020F2
:101C600001681823CAB2103AB2FBF3F2054B6FF3C6
:101C70000901032A9B5CC36500D9091D81650846DB
:101C8000704700000806030810B5014600208B6964
:101C90008A6A4FF0C07453B1B3F5005F15D072B1CA
:101CA000012A0CD0022A0AD0032A09D104E01AB171
:101CB000012A06D0022A03D1C96AC90100D5012030
:101CC00010BDC96AA142FAD010BD002AF7D0012A7E
:101CD000F2D0022AF3D0032AF3D010BD30B5046845
:101CE000256825F480252560046863608368402B9F
:101CF000036803D099600068C26030BD9A600068D4
:101D0000C16030BD704700002DE9F04115462DED52
:101D1000028BB0EE408A0F460446002605F0A0FA7A
:101D2000C4F8D070C4F8DC5084ED028A4FF6FF701E
:101D3000C4F8D460C4F8E0009FED200A84ED048A62
:101D400084ED050A84ED060A84ED070A0020C4F834
:101D5000CC6004EB8001401C81ED080A2828F8DBE8
:101D6000174DDFED180A04F5F47095EDA70AB8EEEB
:101D7000C00A84ED790A0CF0B3F895F884024006A5
:101D800018D520460BF032FA00250F4FDFF83C80C3
:101D90000CE088F800603E70642002F075F920467F
:101DA0000BF024FA6D1CEDB20A2D03D83878823876
:101DB0000528EED9BDEC028BBDE8F08100000000E3
:101DC000F80D002000409C464C02002054020020E8
:101DD00010B504462DED028B50A084B0D0E9001060
:101DE000CDE90210B0EE408A05F042FA06226946BB
:101DF00002A805F0F7F905F033FABDF8040040BA7F
:101E0000C4F8CC00BDF8021000EE100A4ABAA2F5E0
:101E1000FE42FF3AC4F8D420D4ED051AB8EEC00A49
:101E2000C4ED061A9FED3F1AD4F8D01020EE012A17
:101E300000EE101AB8EEC00AC2EE000A00EE102A38
:101E4000B8EEC00AC4ED050AB0EE602A40EE010A01
:101E500000EE101AB8EEC00AC4ED000AC4ED030A81
:101E6000D4F8DC20C1EE000A424392FBF1F001FB02
:101E7000102000EE100AF8EEC02A94ED020A00EEDF
:101E8000A20AB5EEC00AF1EE10FA02D230EE010A53
:101E900006E010EE100A2449884201DD30EE410AC6
:101EA00072EE610A214984ED010A10EE900A88421F
:101EB00002D970EE810A06E010EE900A1C498842B1
:101EC00001DD70EEC10A80EE880AD4ED790AF5EEE4
:101ED000C00AF1EE10FA01DD012100E0002104F555
:101EE000F4700CF0EBFD84ED300AD4ED370A9FED71
:101EF000111AF8EEE00A20EE200A84ED310AD4ED42
:101F0000320A60EE810A9FED0C1A40EE010AC4ED20
:101F1000320A04B0BDEC028B10BD0000A600000028
:101F200000000000DB0FC940DB0FC940DB0FC9BF59
:101F3000DB0FC93FA4707D3F0AD7233C2DE9F04158
:101F40000C21234804F064FD0821214804F060FDC1
:101F500004211F4804F05CFD00211D4804F058FDD9
:101F60000BF0B6FA002005F065F9DFF868801A4E2C
:101F700000251A4F1A4C0BF001FC98F8000058B1DC
:101F800018494FF0FF30C1F8240306F065FC4FF00C
:101F900000600BF07BFCFEE7307810B135700DF07F
:101FA00023FE387810B13D7006F056FC0A2002F08E
:101FB0006BF80D480BF01AF92078A17822790844C3
:101FC000E178114408446178C842D4D1BDE8F08179
:101FD000C4040020530000204C0000204D000020CD
:101FE00054020020F80D0020F8110020002229B131
:101FF00001291AD002291BD04FF440720E490B68F8
:1020000023F440730B600B6813430B600A6822F0E3
:10201000F8020A600A68022303EBC00002430A6068
:10202000086840F48030086070474FF48072E5E73C
:102030004FF40072E2E70000103C024013480168D0
:1020400089050FD5016821F400710160016841F430
:1020500000610160016821F400610160016841F4E0
:1020600000710160016849050FD5016821F48061A4
:102070000160016841F480510160016821F48051E0
:102080000160016841F4806101607047003C0240DA
:1020900008490A6822F440720A600A6842F00402A1
:1020A0000A600A684FF4803343EA002002430A6062
:1020B00070470000103C0240064A136823F4407346
:1020C000136013681360136843F001031360017019
:1020D00070470000103C0240094910B50C6824F418
:1020E00040740C600C6844F440740C600C6844F05C
:1020F00001040C600260BFF36F8F436010BD0000ED
:10210000103C0240074A136823F4407313601368BD
:1021100043F480731360136843F00103136001807C
:1021200070470000103C0240074A136823F44073D4
:102130001360136843F400731360136843F00103E2
:102140001360016070470000103C02401C490868A1
:10215000C2061C4805D5C26942F01002C2611022B5
:102160000A600A68920605D5C26942F00802C26197
:1021700020220A600A68520605D5C26942F00402AC
:10218000C26140220A600A68120605D5C26942F09F
:102190000202C26180220A600A68D20506D5C269BD
:1021A00042F00102C2614FF480720A600A6892072D
:1021B00005D5C26942F02002C26102200860704762
:1021C0000C3C02402037002070B511490446002025
:1021D000C86102F07DF905460E4E09E0601C07D08B
:1021E00024B102F075F9401BA04201D9032070BD53
:1021F0003068C003F2D43068C00701D001203060DD
:10220000306810F4F970F2D0FFF7A0FF012070BD24
:10221000203700200C3C024070B5B3EE080A2DEDCB
:10222000028B044680ED030A9FED550A002180EDE4
:10223000230A80ED220A534804F58065D0ED100A88
:10224000C4ED320AD0ED120AC4ED330AD0ED170AFC
:10225000C4ED360AD0ED110AC4ED340AD0ED130AEC
:10226000C4ED350A84ED310A84ED300AD0ED140A4C
:10227000C4ED370AD0ED250AC4ED520AD0ED260A86
:10228000C4ED530AD0ED180AC4ED510AD0ED150A79
:10229000C4ED560AD0ED270AC4ED3C0AD0ED280A59
:1022A000C4ED3E0AD0ED160AC4ED400AF2EE0E0A65
:1022B000C4ED460AF1EE040AC4ED480ADFED320A25
:1022C000C4ED470ADFED310AC4ED4A0A84F82C1147
:1022D000D0ED190AC4ED290AD0ED1A0AC5ED030A9A
:1022E000D0ED1B0AC4ED190A84ED1A0A84ED180A10
:1022F00084ED170A90ED220A85ED0B0A90ED230A72
:1023000085ED0A0A90ED240A85ED0C0A90ED2A0A63
:1023100085ED0D0A90ED2D0A9FED1D8A20EE080A2D
:10232000BCEEC00A10EE101AC4F8401490ED2B0A4F
:1023300085ED0E0A90ED2C0A85ED0F0A1548F0EE9A
:10234000480A90EDA60A04F58960B8EEC00A85ED4A
:10235000110A0BF0C5FD95ED110AF0EE480A04F2E2
:102360006C400BF0BDFD95ED110AF0EE480ABDEC96
:10237000028B04F59260BDE870400BF0B1BD000027
:1023800000000000F80C00206F12833ACDCCCC3D49
:1023900000409C46F80D00202DE9F04104462DED4B
:1023A000028B82B090F8A0109FEDF80AF8480078F0
:1023B000A9B3A8B3012813D0022872D1D4F8B81059
:1023C000D4F8AC00401A00EE900AF8EEE00A60EE95
:1023D000800AC4ED010AD4F8B410D4F8A80051E082
:1023E000D4F8BC10D4F8B000401A00EE900AF8EE11
:1023F000E00A60EE800AC4ED000AD4F8B410D4F804
:10240000A800F1EE600A401A01EE100AB8EEC11AF7
:1024100021EE000A84ED020A30EEC00A83E01BE0E0
:10242000FFE7D4F8BC10D4F8B000401A00EE900AD0
:10243000F8EEE00A60EE800AC4ED000AD4F8B810A5
:10244000D4F8AC00401A01EE100AB8EEC11A21EE21
:10245000000A84ED010A41E0E8B3012822D00228F5
:1024600063D1D4F8B410D4F8A800401A00EE900A52
:10247000F8EEE00A60EE800AC4ED010AD4F8B81064
:10248000D4F8AC00F1EE600A401A01EE100AB8EE82
:10249000C11A21EE000A84ED020A30EEC00A84ED72
:1024A000000A42E0D4F8B410D4F8A800401A00EEB4
:1024B000900AF8EEE00A60EE800AC4ED010AD4F852
:1024C000BC10D4F8B000401A01EE100AB8EEC11AE0
:1024D00021EE000A00E008E084ED000AF1EE600A57
:1024E00030EEC00A84ED020A1FE0D4F8B810D4F828
:1024F000AC00401A00EE900AF8EEE00A60EE800AA6
:10250000C4ED020AD4F8BC10D4F8B000401A01EEB1
:10251000100AB8EEC11A21EE000A84ED000AB1EEED
:10252000400A30EE600A84ED010A04F5806595EDFD
:10253000110AB5EEC00AF1EE10FA01DD012100E04A
:10254000002194ED000A04F589600CF0B7FA84EDDF
:10255000000A95ED110AB5EEC00AF1EE10FA01DDA0
:10256000012100E0002194ED010A04F26C400CF01E
:10257000A5FA84ED010A95ED110AB5EEC00AF1EE57
:1025800010FA01DD012100E0002194ED020A04F5BA
:1025900092600CF093FA84ED020A94ED050AFDF7BF
:1025A00069FEB0EE408A94ED050AFDF727FE794BEF
:1025B000F0EE408A1A6804F12801081F0025764EC3
:1025C0009FED765A062A47D01A68F0EE480A94EC36
:1025D000031A072AB0EE680A62D00AF0B9FD704902
:1025E000D6ED010A012091ED090A30EEC00A86ED10
:1025F000010AC0F1090201EB820292ED001AC0F15A
:102600000A0201EB8202401C82ED001A0A28F0DB6C
:1026100094ED0A1AF2EE040A81ED001A31EE000A76
:1026200086ED010AC0EE201AC4ED151A94ED300AA9
:10263000D4ED090A30EE602A84ED262A94ED310AA1
:1026400070EE411A94ED191AF4EEC11AF1EE10FA77
:1026500029D2B0EE610A28E094EC031AF0EE480AA1
:10266000B0EE680A0AF074FD84ED185AB6F900005D
:1026700000EE100AB8EEC00ADFED4A0A20EE200A8A
:10268000FDF7F8FDF7EE080A20EE200A84ED170AA0
:102690003088401C00B23080282800DB3580E3E021
:1026A0000AF056FDE0E0B0EE410AF1EE410AB4EE68
:1026B000E00AF1EE10FA07DDF4EEC11AF1EE10FABD
:1026C00004D2B0EE611A01E0B0EE601A84ED271A70
:1026D000B5EEC01AF1EE10FA01DCB1EE411A94ED3C
:1026E000370AB4EEC01AF1EE10FA01D284ED275A7F
:1026F000B5EEC02AF1EE10FA01DCB1EE422AB4EEDA
:10270000C02AF1EE10FA01D284ED265A94ED223A55
:1027100094ED340AD4ED263A00EE233A84ED223AC1
:10272000D4ED231A94ED350AD4ED270A40EE201A91
:10273000C4ED231AD4ED362A94ED032A22EE821A30
:10274000B4EEC31AF1EE10FA02DDB0EE430A01E076
:10275000B0EE410A22EEC24AB4EEC40AF1EE10FA1B
:1027600007DDB4EEC31AF1EE10FA04DCB0EE413A24
:1027700001E022EEC23AB4EEE11AF1EE10FA84ED75
:10278000223A11DDB0EE610A10E00000000096BDB3
:102790000200002020020020700000200000000045
:1027A000B81600207CD9203EB0EE410A22EEC24A83
:1027B000B4EEC40AF1EE10FA07DDB4EEE11AF1EE60
:1027C00010FA04DDB0EE611A01E022EEC21A84EDC7
:1027D000231A94ED320A60EE231AC4ED251A94ED03
:1027E000330A20EE200A71EE830A84ED240AC4ED38
:1027F000170A30EE010A60EEA00A84ED180A40EED6
:10280000000AB0EE600A09F08CFA84ED1B0A94ED20
:10281000030ADFED4E0A04F16001081F20EE200AD2
:102820000BF01AFCD4ED170A94ED030A684680EE0B
:10283000801A8DED001AD4ED180A80EE801A8DED05
:10284000011A0BF035FC01A80BF032FC94ED030AE1
:10285000DDED000A60EE200AC4ED170ADDED010A85
:1028600020EE200A84ED180A04F18402111FD4ED31
:10287000181A94ED171A081FF0EE480AB0EE680A0D
:102880000AF0F8FD04F17C00021FD0EC030A111FCE
:1028900094ED030A0C3805F0D3F92D482D4E94ED34
:1028A0001C1A00684FF00108022760B3D4ED1D0A1E
:1028B00094ED1E0A04F0EAFCD4ED1C0A94ED1D0A06
:1028C000F4EEC00AF1EE10FA0CDB94ED1E1AF4EEF1
:1028D000C10AF1EE10FA05DB377002B0BDEC028BD5
:1028E000BDE8F081B4EEE00AF1EE10FA09DBD4EDB8
:1028F0001E0AB4EEE00AF1EE10FA02DB86F8008060
:10290000EBE73570E9E7D4ED1E0A94ED1D0A04F0FB
:10291000BDFCD4ED1C0A94ED1D0AF4EEC00AF1EEE4
:1029200010FA06DB94ED1E1AF4EEC10AF1EE10FA6D
:10293000D2DAB4EEE00AF1EE10FADFDBD4ED1E0AD3
:10294000B4EEE00AF1EE10FADBDAD7E736CD133F4A
:10295000F80D00200100002070B590F83C206A4C72
:10296000012A19D0012280F83C200A680725036853
:10297000092A13D9DE680A3A02EB42029540AE43B7
:10298000DE600A788B680A3A02EB420293400268E2
:10299000D5682B43D36010E0022070BD1E6902EBA6
:1029A00042029540AE431E610A788B6802EB4202F8
:1029B0009340026815692B4313610268936B23F4FB
:1029C000401393630268936B0D8A504E06EB0555D6
:1029D0002B4393630A790B7CD21AD21C02EB82023E
:1029E0001F2393400268956B9D4395630A790B7C86
:1029F000D21A0B88D21C02EB82029BB2934002686F
:102A0000956B2B4393638A69A2420268936823F40F
:102A100070239360026893680CD08C6923439360A1
:102A20000268936823F44013936002689368CC694A
:102A3000234301E023F4401393604A7D002A026897
:102A4000536802D043F4806301E023F48063536051
:102A50000A7D002A0268536802D043F4805301E0E3
:102A600023F4805353604A68012A16D0022A1FD0EB
:102A7000032A026827D0136A6FF30B0313620268FC
:102A8000136ACC6823431362224B0468204A9C4299
:102A900027D10C68122C20D023E0026853696FF311
:102AA0000B03536102685369CC6823435361EBE71E
:102AB000026893696FF30B03936102689369CC68B2
:102AC00023439361E0E7D3696FF30B03D36102689B
:102AD000D369CC682343D361D6E7546844F48004B7
:102AE000546004689C420AD10968A1F18053123BEA
:102AF00001D0112903D1516841F400015160002136
:102B000080F83C10084670BD01000F000000F0FF87
:102B1000002301400020014070B51A48816B1A4C17
:102B2000C1F3C431194D0B2914D0D0F838014FF03E
:102B30000101C0F3C4300C28154818D000F02CF85F
:102B400044F8A80F0121134800F026F86060022025
:102B5000A87070BD01210E4800F01EF844F8AC0FBB
:102B600001210C4800F018F860600020F0E700F048
:102B700013F844F8A80F0121064800F00DF8A060F2
:102B80000120E5E700200140E016002000000020C1
:102B9000140300205C03002008B5002200920368A3
:102BA000521F1A60012911D002290CD0032906D026
:102BB000042901D0009808BD0068806C01E000681D
:102BC000406C009008BD0068006CFAE70068C06BBC
:102BD000F7E770B50D46044601F07AFC064612E0B0
:102BE000681C10D025B101F073FC801BA8420AD9E3
:102BF00020680068400706D404202064002084F880
:102C00003C00032070BD206800684007E8D52168BB
:102C10006FF00C000860206C40F4005020642068C5
:102C2000816811F4401F1AD1816B11F4401F02D04A
:102C30008168490513D44168490510D4806810F0B3
:102C4000405F0CD1207E50B9206C20F4805020646D
:102C5000206CC00503D4206C40F0010020640020EB
:102C600070BD000018B50022009290F83C100129B8
:102C700007D0012180F83C1001688B68DB0702D087
:102C800011E0022018BD8B6843F001038B602649D8
:102C9000264B0968B1FBF3F101EB410100E0491E4D
:102CA00000910029FBD101688B68DB0732D0036CEF
:102CB00042F20104A34343F480530364036CDB0535
:102CC00000D4426480F83C206FF004020A60184986
:102CD00049680068C906816801F440110FD0B9B194
:102CE00000214268134B42F38022521C984219D1B2
:102CF000C1B1BAB1816841F48001816012E029B1AB
:102D00000021426842F38022521CF1E70121F8E7DA
:102D10000121E6E7016C41F010010164416C41F0D2
:102D200001014164002018BD4800002040420F000E
:102D3000002301400020014018B50022009290F8C5
:102D40003C10012907D0012180F83C1001688B68F4
:102D5000DB0702D011E0022018BD8B6843F00103AD
:102D60008B602949294B0968B1FBF3F101EB410163
:102D700000E0491E00910029FBD101688B68DB0748
:102D800037D0036C42F20104A34343F4805303643D
:102D9000036CDB0500D4426480F83C206FF0040231
:102DA0000A6001684A6842F080024A60184949682E
:102DB0000068C906816801F440110FD0B9B1002143
:102DC0004268144B42F38022521C984219D1C1B17F
:102DD000BAB1816841F48001816012E029B100211B
:102DE000426842F38022521CF1E70121F8E70121F9
:102DF000E6E7016C41F010010164416C41F0010112
:102E00004164002018BD00004800002040420F002F
:102E1000002301400020014010B590F83C20012A19
:102E20001FD0012200F83C2F0F4A536823F01F03E4
:102E3000536053680C6823435360536823F4404342
:102E4000536053684C6823435360536823F47063A2
:102E50005360536889680B43536000210170084632
:102E600010BD022010BD00000023014010B590F8F5
:102E70003C20012A2AD0012280F83C200A7C012A29
:102E80000268536824D023F04003536002685368FB
:102E9000114C23405360026853680C68234353600D
:102EA00003684A685A6203688A689A6202685368CB
:102EB00023F01F03536002685368898989B20B436A
:102EC0005360002180F83C10084610BD022010BD60
:102ED00043F04003D9E70000FFFD3FFF78B5002431
:102EE000009490F83C20012A19D0012280F83C205F
:102EF0000A6807250368092A13D9DE680A3A02EB33
:102F000042029540AE43DE600A788B680A3A02EBD3
:102F1000420293400268D5682B43D36010E0022040
:102F200078BD1E6902EB42029540AE431E610A78ED
:102F30008B6802EB42029340026815692B431361D0
:102F40004A681F25072A13D203685E6B521E02EBE4
:102F500082029540AE435E630A8893B20A79521E9C
:102F600002EB820293400268556B2B43536327E0C8
:102F700003680D2A12D21E6BD21F02EB820295400B
:102F8000AE431E630A8893B20A79D21F02EB820213
:102F900093400268156B2B43136311E0DE6A0D3A10
:102FA00002EB82029540AE43DE620A8893B20A7950
:102FB0000D3A02EB820293400268D56A2B43D3623A
:102FC0001B4B0568194A9D420AD10D68122D07D185
:102FD000556825F400055560556845F48005556031
:102FE00005689D421DD1134D0B68AB4201D0112BDA
:102FF00017D1536823F480035360536843F40003EC
:1030000053600968A9420CD10B490C4A0968B1FB0D
:10301000F2F101EB8101490000E0491E0091002915
:10302000FBD180F83C40002078BD00000023014027
:1030300000200140120000104800002040420F0014
:103040007047704770B5044600680168C1F34002DC
:103050004168C1F3401152B349B3216CC90603D48E
:10306000216C41F400712164816811F0405F17D137
:10307000217EA9B9C16A11F4700F02D08168490597
:103080000ED4416821F020014160206C20F4807052
:103090002064206CC00403D4206C40F00100206444
:1030A0002046FFF7CDFF21686FF01200086020680E
:1030B00001684268C1F38001C2F3C01289B382B3D0
:1030C000216CC90603D4216C41F40051216481684C
:1030D00011F4401F1ED1816B11F4401F02D0816892
:1030E000490517D44168490514D4816811F0405F3F
:1030F00010D1217E71B9416821F080014160206CBE
:1031000020F480502064206CC00503D4206C40F073
:10311000010020642046FFF7FFFC21686FF00C00DF
:103120000860206801684268C1F30001C2F38012A0
:1031300071B16AB10068C0070AD0206C40F48030D9
:103140002064204600F046F821686FF00100086016
:10315000206801684268C1F34011C2F3806200290F
:103160000DD0002A0BD0616C41F0020161646FF058
:10317000200505602046FFF764FF2068056070BDEC
:1031800070B504004FF0000603D0206C002510B18C
:1031900007E0012070BD204600F01EF8656484F849
:1031A0003C50206CC00610D4206C20F4885040F0B5
:1031B000020020642046FDF7D1FC6564206C20F0FD
:1031C000020040F00100206400E0012684F83C5039
:1031D000304670BD7047000070B586B004461421BB
:1031E0006846FDF7CBF83449324E22680025324B51
:1031F000143903243148B24211D11A6842F4807262
:103200001A601A6802F4807205920A6842F0040299
:103210000A60096801F004010591012113E0284EBC
:10322000B2421FD11A6842F400721A601A6802F49E
:10323000007205920A6842F004020A60096801F00F
:103240000401059102218DE83200694601F060F821
:1032500000221146122001F047FC122001F037FC39
:1032600006B070BD174EB242FAD11A6842F48062BD
:103270001A601A6802F4806205920A6842F0040239
:103280000A600A6802F0040205920A6842F001022C
:103290000A60096801F00101059108218DE83200FA
:1032A000694601F035F8009469460748CDE90145C3
:1032B000CCE70000002001404438024000080240F2
:1032C00000210140002201400000024018B5002208
:1032D000009290F83C10012907D0012180F83C10A1
:1032E00001688B68DB0702D011E0022018BD8B68F3
:1032F00043F001038B602E492E4B0968B1FBF3F1BB
:1033000001EB410100E0491E00910029FBD1016859
:103310008B68DB0742D0036C40F20164A34343F4A3
:10332000807303644B685B0505D5036C23F400537D
:1033300043F480530364036CDB0404D5436C23F033
:103340000603436400E0426480F83C201A4A6FF0B0
:1033500022030B6051680068CA06184906D08842EB
:1033600024D1816811F0405F13D01FE08842F8D06B
:10337000134A904203D1D1F80423D206F1D0114A66
:10338000904213D1D1F8041301F01F011029E8D3A2
:103390000CE0816841F08041816007E0016C41F000
:1033A00010010164416C41F001014164002018BD2D
:1033B0004800002040420F0000230140002001404F
:1033C000002101400022014090F82020012A07D06E
:1033D000022A05D0416A41F48021416201207047F0
:1033E000006842690A43426100207047F0B590F8D6
:1033F00020500468A468012D05D0022D03D0416A35
:1034000041F4802153E014F0406F01D1E5004BD529
:10341000C4F30164022C03D9416A41F4000146E07F
:103420000125A5401D608B684FF4C0759BB1CE6827
:1034300033434E6843EAC603066805EB0417F351AD
:103440004FF4C273076803EB04130E69FE50097D45
:10345000012905D009E00E88CB6843EA4653EBE723
:103460000168CE5846F48076CE501179D2F80530F6
:103470004FF4C67641EA0323016806EB04168B512C
:103480001178D2F801204FF4C47341EA0221026896
:1034900003EB0413D150006805EB0411425842F0CD
:1034A000010242500020F0BD416A41F40011416226
:1034B0000120F0BD10B590F82020012A07D0022A83
:1034C00005D0416A41F480214162012010BD3B4892
:1034D000D0F8002242F00102C0F80022D0F8002209
:1034E00022F47C52C0F80022D0F800224B6A42EA53
:1034F0000322C0F800220A7D02F01F0301229A4035
:10350000D0F81C329343C0F81C32CB69B3B9D0F861
:103510000C329343C0F80C328C894B6864F31F4320
:103520004C6900EBC404C4F840320C890B6864F3A6
:103530001F434C6900EBC404C4F84432CB69012B2F
:1035400016D1D0F80C321343C0F80C320C884B68FB
:1035500064F31F434C6900EBC404C4F840320C8987
:10356000CB6864F31F434C6900EBC404C4F84432D5
:103570008B69002BD0F804320ED01343C0F804320C
:103580000B69002BD0F8143208D01343C0F8143262
:10359000096A012904D008E09343EFE79343F5E774
:1035A000D0F81C121143C0F81C12D0F8001221F000
:1035B0000101C0F80012002010BD000000640040AE
:1035C00070470246002092F82030012B01D0022BD8
:1035D00004D1106819B1006900F003007047C06899
:1035E000FAE730B590F82040012C05D0022C03D02A
:1035F000416A41F480215DE00468002955D02469C6
:10360000A40754D04FF4D874056804EB01142D5965
:1036100015F00405956005682D594ED0ED085560EC
:1036200005682C5904F00204D4604FF4DA7405687C
:1036300004EB01142D5905F00F05156105682D598E
:10364000C5F30725956105682C59240C54614FF486
:10365000DC72046802EB0112A4581C700468A458C0
:10366000240A5C700468A458240C9C700468A25856
:10367000120EDA704FF4DE72046802EB0112A458E5
:103680001C710468A458240A5C710468A458240CB2
:103690009C710468A258120EDA71006881B1016948
:1036A00041F020010161002030BDE468A8E7416AD3
:1036B00041F400114162012030BD6D0D1560AFE78E
:1036C000C16841F02001C160EDE70246002092F898
:1036D0002010012901D002290CD111688A685201F9
:1036E00000D501208A68120100D5401C8968C900F4
:1036F00000D5401C70472DE9F05F054600680024A6
:103700004669D0F804908768D0F80CB0D0F810A0C3
:10371000D0F81880F10748D0F90714D00121816052
:10372000B80703D5284600F0C2FA0CE0780702D5A6
:103730004FF4006407E0380702D54FF4805402E0EC
:10374000284600F0B3FAF80516D529684FF48070C2
:103750008860B80503D5284600F0ABFA0CE0780580
:1037600002D544F4005407E0380502D544F48044FF
:1037700002E0284600F09CFAF80316D529684FF4B9
:1037800080308860B80303D5284600F094FA0CE036
:10379000780302D544F4004407E0380302D544F42A
:1037A000803402E0284600F085FA300707D55FEA4A
:1037B000CB6004D52968102044F40074C8607007F9
:1037C0004FF0080707D55FEA0B7004D52868C7607B
:1037D000284600F07FF9B00706D52868C068800742
:1037E00002D0284600F078F9700607D55FEACA6073
:1037F00004D52968102044F480640861B00607D518
:103800005FEA0A7004D528680761284600F0F0F9DD
:10381000F00606D528680069800702D0284600F027
:10382000E8F9B00308D55FEAC96005D5296810201A
:103830004860284600F0DEF9F00307D55FEA09701A
:1038400004D528684760284600F036FA300446D58B
:103850005FEA497040D5F00504D55FEAC87001D031
:1038600044F00104B00504D55FEA887001D544F046
:103870000204700504D55FEA487001D544F00404E1
:10388000300529D518F0700F26D008F070004028B8
:1038900015D006DC102809D020280AD0302816D1EF
:1038A0000AE050280ED0602811D10EE044F0080440
:1038B0000DE044F010040AE044F0200407E044F076
:1038C000400404E044F0800401E044F4807428687B
:1038D000816921F070018161296804204860002C11
:1038E00005D0686A204368622846FFF769FEBDE894
:1038F000F09F70B5040003D094F8200010B104E0EC
:10390000012070BD204600F09FF82068016821F07A
:103910000201016000F0DCFD0546052604E000F030
:10392000D7FD401B0A2811D8206840688007F6D4CC
:103930002068016841F00101016000F0C9FD054601
:103940000BE000F0C5FD401B0A2806D9606A40F470
:103950000030606284F82060D2E720684068C007C9
:10396000EFD0207E0128206801683DD021F0800141
:103970000160607E01282068016838D021F0400194
:103980000160A07E01282068016833D021F0200169
:103990000160E07E0128206801682ED041F010010E
:1039A0000160207F01282068016829D021F00801EA
:1039B0000160607F01282068016824D021F00401A3
:1039C0000160D4E902010843D4E904121143084319
:1039D0006168491E08432168C861002060620120B7
:1039E00084F82000002070BD41F08001C0E741F064
:1039F0004001C5E741F02001CAE721F01001CFE7FF
:103A000041F00801D4E741F00401D9E710B500689E
:103A10000A49884211D10A48016821F00071016009
:103A20004FF44071074800F0EBFB132001F03EF823
:103A3000BDE81040142001F039B810BD006400400A
:103A4000403802400004024010B586B004461421FC
:103A50006846FCF793FC1C492068884231D11B481A
:103A60000021026842F000720260006800F00070FD
:103A7000059016481038026842F0020202600068A1
:103A800000F0020005904FF4407000900220CDE954
:103A90000101032003900920049069460C4800F0BE
:103AA00037FC00220321132001F01EF8132001F03F
:103AB0000EF800220321142001F016F8142001F062
:103AC00006F806B010BD0000006400404038024017
:103AD000000402407047000030B587B005463C4BFB
:103AE0006A460021FFF77DFD3A4900203B4C086003
:103AF000394908700098616888425BD13448017880
:103B0000FF2911D14178FF290ED18178FF290BD1EE
:103B1000C178FF2908D10179FF2905D14179FF2911
:103B200002D18179FF290FD02D4929480CF03CFBA7
:103B300027482B4908300AF077FF254929480831E2
:103B4000626809F039FB3DE0C179FC2904D0FD2908
:103B500017D0FE2936D126E01D48001F0068022834
:103B600002D01F4809F0DAFC19481D4908300AF054
:103B70005BFF17491B480831626809F01DFB07B05D
:103B800030BD174809F022FD1148154908300AF0E8
:103B90004BFF0F4913480831626809F00DFB1048CC
:103BA000FEF73AFBEBE7104807F0DAF90F4807F0A9
:103BB000D7F9D9E701F5C061884203D10121044852
:103BC0000BF0A6F82868416941F002014161D6E78F
:103BD000240200201800002003000020F80D00201F
:103BE000E0160020EC030020F8110020041400204F
:103BF00070477047704770B5044690F82000012860
:103C000004D0606A40F40020606217E0022084F86B
:103C100020002068016821F00101016000F058FCDB
:103C200005460DE000F054FC401B0A2808D9606AE4
:103C300040F400306062052084F82000012070BD4F
:103C400020684068C007EDD1606270BD70B5044661
:103C500090F82000022804D0606A40F4801060626E
:103C600014E02068016841F00101016000F030FCBF
:103C700005460DE000F02CFC401B0A2808D9606ABC
:103C800040F400306062052084F82000012070BDFF
:103C900020684068C007EDD02068016821F002016B
:103CA0000160012084F82000002070BD704770473B
:103CB000704770477047704770472DE9F0410446E0
:103CC000876D00F005FC054694F8350000260228B3
:103CD00006D08020606584F834600120BDE8F08162
:103CE0002068016821F0160101602068416921F017
:103CF00080014161206C08B9A06C20B12068016886
:103D000021F0080101602068016821F001010160D3
:103D10000BE000F0DDFB401B052806D92020606584
:103D200004F8346F03206070D8E720680068C0078B
:103D3000EFD194F85C103F208840B86004F8346FED
:103D4000012060700020C9E790F83510022903D0E7
:103D50008021416501207047052180F835100068F9
:103D6000016821F00101016000207047406D70473B
:103D70002DE9F84304464FF00009CDF80090634860
:103D80004FF41651A56D0068B0FBF1F72E6894F85A
:103D90005C20082101FA02F030420FD0206802684E
:103DA00052070BD5026822F00402026094F85C000E
:103DB0008140A960606D40F00100606594F85C107E
:103DC0004FF0010808FA01F0304208D02168496933
:103DD000090604D5A860606D40F00200606594F8A3
:103DE0005C1004208840304208D0216809688907A7
:103DF00004D5A860606D40F00400606594F85C1024
:103E000010208840304218D021680968090714D56D
:103E1000A86020680168490304D50068000308D53C
:103E2000A16C07E00168C90503D4016821F008010D
:103E30000160216C09B12046884794F85C1020206D
:103E40008840304231D021680968C9062DD5A86064
:103E500094F8350005282068016806D0490347D545
:103E6000006800031DD4616C1CE021F016010160A4
:103E70002068416921F080014161206C08B9A06C83
:103E800020B12068016821F00801016094F85C10FD
:103E90003F208840A86084F8349084F83580216DF4
:103EA0001FE0E16B09B120468847606D00282BD0E8
:103EB000606DC00714D0052084F8350020680168C3
:103EC00021F0010101600098401C0090B84203D825
:103ED00020680068C007F6D184F8349084F83580F3
:103EE000E16C002910D001B02046BDE8F04308473E
:103EF0000168C905D5D4016821F01001016084F87A
:103F0000349084F83580CCE7BDE8F8834800002081
:103F10002DE9F041044600F0DBFA05465CB10026CD
:103F200084F83460022084F835002068016821F0AC
:103F3000010101600DE00120BDE8F08100F0C8FA48
:103F4000401B052805D920206065032084F8350032
:103F5000F2E720680068C007F0D121680A682048AD
:103F60000240D4E901031843D4E903352B43184335
:103F700063691843A3691843E3691843236A184324
:103F80001043626A042A03D1D4E90B231A43104375
:103F9000086020684069656A20F0070128460D43E3
:103FA000012704280CD1A06A0543E06A40B12046ED
:103FB000FDF76AFE20B14020606584F83570BAE7ED
:103FC000206845612046FDF74BFE94F85C203F21B8
:103FD00091408160666584F835700020ACE7000090
:103FE0003F8010F02DE9F0410446866D90F83400D2
:103FF000002501280DD0012084F8340094F8357094
:104000000020012F07D084F8340002252846BDE89F
:10401000F0810220FBE7022784F8357060652046B6
:10402000FDF75CFE94F85C103F208840B06020688B
:10403000016841F016010160206C20B12068016820
:1040400041F0080101602068016841F00101016050
:10405000DCE700000B4A10B54FF0FF301060002184
:104060001160121D10601160064A103A1060116054
:10407000121D10601160121D1060116000F0FCFC38
:10408000002010BD2038024070B5044600F020FA30
:104090000546601C02D004480078044400F018FA79
:1040A000401BA042FAD370BDCC0200202DE9F0479E
:1040B000044622480E46017E01290AD0012180468D
:1040C00001764CF250394846FEF77EF8020003D0E4
:1040D0002FE00220BDE8F0874FF0FF30306020680D
:1040E000174F012801D0A5681CE0207C6168FDF70E
:1040F000CFFF4846FEF768F80246386820F0040013
:10410000386014E0217C2846FDF770FF4846FEF732
:104110005BF80200386820F0FA00386001D03560A2
:1041200005E06D1CD4E902100844A842EAD8FDF766
:1041300085FF002188F818101046CBE720370020B3
:10414000103C02400348016841F00041016000203A
:1041500070470000103C02402DE9F0471B4E054619
:104160001446307E1F468946012808D0012030764B
:104170004CF250384046FEF727F818B114E0022000
:10418000BDE8F0879DB1012D16D0022D19D0224631
:104190003B464846FDF7A0FF4046FEF715F80C49A0
:1041A0000A6822F001020A6000213176E8E7E1B2F4
:1041B0004846FDF781FFEFE7A1B24846FDF7A2FFB1
:1041C000EAE721464846FDF7AFFFE5E72037002044
:1041D000103C0240074900200A68002A09DA054A13
:1041E000054B0C3A1360054B13600968002900DA8F
:1041F00001207047103C024023016745AB89EFCD99
:104200002DE9F04F8946DFF8E4A000214FF0010BC3
:104210004FF00F0C0BFA01F609EA0603B3425FD127
:1042200021F003045444D4F808288D072F0F0CFA0A
:1042300007F505EA02082E4A904201D100221EE04D
:104240002C4A904201D1012219E02B4A904201D11F
:10425000022214E0294A904201D103220FE0284AA9
:10426000904201D104220AE0264A904201D105225F
:1042700005E0254A904201D1062200E00722BA401B
:10428000424514D1214F3A689A433A603F1D3A683B
:104290009A433A603F1D3A689A433A603F1D3A6834
:1042A0009A433A60D4F80828AA43C4F80828036857
:1042B0004C000322A24093430360CB0800EB83032E
:1042C0001D6A4C07E70E0CFA07F4A5431D62C3688C
:1042D0009343C3604368B3434360836893438360FD
:1042E000491C102996D3BDE8F08F00000030014032
:1042F000000002400004024000080240000C02409E
:10430000001002400014024000180240003C01402E
:104310002DE9F84FDFF89091002209F1040A0AF123
:10432000040B03274FF00F0C0BF1040E01250B6853
:1043300095402B40AB4272D10C7904F00304012C60
:1043400001D0022C15D18668540007FA04F826EA39
:104350000806D1F80C8008FA04F848EA0608C0F804
:1043600008804468AC430D79C5F30015954025439A
:1043700045600C79E443A40708D0C568540007FAE7
:1043800004F6B5438E68A6402E43C6600C7904F04F
:104390000304022C11D1D40800EB8406356A5407BB
:1043A000E40E0CFA04F825EA0805D1F8108008FAA2
:1043B00004F848EA0508C6F820800568540007FAA2
:1043C00004F6B5430E7906F00306A6402E430660B8
:1043D0004C68E40061D5354C256845F4804525607E
:1043E000246822F0030504F480440094304C05EB6B
:1043F0000408D8F808589407260F0CFA06F4A543C9
:104400002C4CA04201D100241FE02B4CA04201D132
:1044100001241AE0294CA04202D1022415E03CE01C
:10442000274CA04201D103240FE0264CA04201D129
:1044300004240AE0244CA04201D1052405E0234CC9
:10444000A04201D1062400E00724B4402C43C8F860
:104450000848D9F800404D464E689C43F60300D505
:104460001C432C60DAF8004055464E689C43B60366
:1044700000D51C432C60DBF800405D464E689C4331
:10448000F60200D51C432C60DEF8004075464E68ED
:104490009C43B60200D51C432C60521C102AFFF42A
:1044A00045AFBDE8F88F0000003C014044380240B1
:1044B00000300140000002400004024000080240B9
:1044C000000C02400010024000140240001802409C
:1044D0000148806870470000CC02002070B50400DD
:1044E00025D094F83D00002520B984F83C502046A2
:1044F00000F04CFA242084F83D002068016821F087
:10450000010101602068016841F4004101602068F8
:10451000016821F40041016001F03AF94D4B6168F6
:10452000994201D84C4900E04C49884201D201200F
:1045300070BD4B492268B0FBF1F1566826F03F068A
:104540000E43566062689A4206D94FF49672514300
:104550004FF47A72B1FBF2F12268491C166A26F018
:104560003F06314311626168994210D84900401EEC
:10457000B0FBF1F2521CC2F30B02042A01D2042058
:1045800022E0B0FBF1F0401CC0F30B001CE0A2687D
:10459000F2B301EBC10303EB0116431EB3FBF6F3C9
:1045A0005B1C43F480431B0549D092B301EBC1026D
:1045B00002EB0111401EB0FBF1F0401CC0F30B00F8
:1045C00040F4804040F400402168CA694CF6FF7313
:1045D0009A431043C861D4E9071001432068026878
:1045E00022F0C00211430160D4E9030101432068B5
:1045F000826848F2FF339A4311438160D4E9051081
:1046000001432068C26822F0FF021143C16001E04B
:104610000EE016E02068016841F0010101602564A8
:10462000202084F83D00256384F83E50002070BDB2
:1046300001EB4106431EB3FBF6F35B1CB3E701201D
:10464000C2E701EB4101401EB0FBF1F0401CC0F39A
:104650000B00B7E7A086010080841E0000093D0022
:1046600040420F002DE9FF4F83B09A46DDE91197D4
:1046700093460446DDF84080FFF72AFF054694F88C
:104680003D00202870D11923012271492046009550
:1046900002F076FF0028F5D194F83C00012863D0A1
:1046A000012084F83C0020680168C90703D1016833
:1046B00041F0010101602068016821F4006101609E
:1046C000222084F83D00402084F83E000026266425
:1046D000C4F82480A4F82A90608D20855D48E062AB
:1046E000CDE9007553465A462046049902F050FE23
:1046F00000287CD1208DD0B1012821D0022820684B
:1047000024D0416980690090208D032869D8012850
:104710002BD0514902283B464FF00002009559D05A
:104720008846204602F02CFF002860D13CE020683B
:10473000416981690091016841F40071016077E08D
:104740002068016821F480610160F0E7016821F4CC
:10475000806101602068016841F4006101602068A7
:1047600041698069009063E06FE02A46394620463F
:1047700002F086FF98BB20680069616A08704EE00D
:104780002068016841F40071016020680069616A75
:104790000870606A401C6062218D491E2185618D10
:1047A000491E6185216838E02068016821F4806134
:1047B000016020680069616A0870606A401C60627C
:1047C000208D401E2085608D401E60853B46002266
:1047D00041460095204602F0D3FE00B9D0E706E03E
:1047E000FFE72A463946204602F04AFF18B1012069
:1047F00007B0BDE8F08F20680069616A0870606AE0
:10480000401C6062218D491E2185618D491E618594
:1048100021684A69D24352070AD409690170606A63
:10482000401C6062208D401E2085608D401E60858A
:10483000208D00287FF468AF202084F83D0084F8A4
:104840003E6084F83C600020D2E70220D0E7000000
:10485000020010000000FFFF040001002DE9FF4FDF
:1048600083B09A46DDE9119793460446DDF840800F
:10487000FFF72EFE054694F83D0020287FD119232E
:10488000012240492046009502F07AFE002876D1A8
:1048900094F83C00012872D0012084F83C00206884
:1048A0000168C90703D1016841F001010160206876
:1048B000016821F400610160212084F83D0040205E
:1048C00084F83E0000262664C4F82480A4F82A90C8
:1048D000608D20852C48E062CDE9007553465A462C
:1048E0002046049902F0D2FD70B930E02A463946DC
:1048F000204602F0FAFE58B1206C042804D120684A
:10490000016841F400710160012007B0BDE8F08F3B
:10491000606A216800780861626A521C6262208DB8
:10492000401E80B22085618D491E618521684B69DA
:10493000DB435B070BD468B110780861606A401CE8
:104940006062208D401E2085608D401E6085208D18
:104950000028CBD12A463946204602F0EBFD00283C
:10496000CAD154F83D0B016841F400710160202068
:1049700004F81E09E67766770020C6E7FFE7022005
:10498000C3E70000020010000000FFFF10B586B072
:10499000044614216846FBF7F1FC1349206888425D
:1049A00020D11248016841F00201016000686946A7
:1049B00000F002000590C02000901220019001201C
:1049C000029003200390042004900948FFF7A0FC04
:1049D00006481030016841F400110160006800F4DD
:1049E0000010059006B010BD005400403038024061
:1049F00000040240024881680278114481607047D7
:104A0000CC0200200B4810B5016841F40071016030
:104A1000016841F480610160016841F480710160C6
:104A2000032000F081F8002000F006F800F026F8DE
:104A3000002010BD003C024070B50D4D04464FF4FF
:104A40007A712878B1FBF0F00A490968B1FBF0F0FF
:104A500001F0CBF848B9102C07D200222146501E95
:104A600000F042F800206C6070BD012070BD0000B5
:104A7000CC02002048000020704700000A4808B51A
:104A8000016841F480410160006800F480400090BA
:104A90000548001F016841F080510160006800F086
:104AA0008050009008BD00004438024000280DDB13
:104AB00000F01F02012191404009800000F1E02038
:104AC000C0F88011BFF34F8FBFF36F8F704700287E
:104AD00009DB00F01F02012191404009800000F134
:104AE000E020C0F800117047F0B40E4B1B68C3F310
:104AF0000223C3F10704042C00D904241D1D072D33
:104B000001D2002300E0DB1E012606FA04F56D1E2B
:104B10000D409D409E40761E164045EA0601F0BCC1
:104B200006F077BA0CED00E0064A00F007011068C5
:104B30004FF6FF03184040EA012003490843106084
:104B4000704700000CED00E00000FA05012201684A
:104B5000C0F8FC23002280F8F423886940F000604C
:104B60008861486D024A1043486500207047000084
:104B70000300001070B5164D0446A1B1012911D1F2
:104B80002068D0F8001E41F00101C0F8001ED4F8E2
:104B9000040405F01AFA206A002803D0286840F0BF
:104BA0000600286070BD206A28B104F0B7F82868B4
:104BB00020F0060028602068D0F8001E21F00101D6
:104BC000C0F8001ED4F80404BDE8704005F08CB9AC
:104BD00010ED00E00068416200207047F0B5036806
:104BE000586A39B19C6A4FF4827500EB1444002076
:104BF0004E1E0AE040EA024098620FE005EB800793
:104C0000DF59401C04EB1744C0B2B042F6D344EA6B
:104C100002404FF4807202EB810158500020F0BD39
:104C2000D0F8040405F0ABB8C1EBC10200EB82027E
:104C3000D0F80404926C05F00FB8C1EBC10200EB90
:104C40008202D0F80404D2F8082205F059B810B551
:104C5000040006D0032084F8BD03206806F0B8F8ED
:104C600008B1012010BD204600F0C6FB002084F8EA
:104C7000BD0310BDD0F8040405F083B870B5044638
:104C80000B0601F00F00C0EBC00104EB81014FF0F7
:104C900001024FF0000503D581F83D203C3103E0CF
:104CA00081F8FD5101F5FE71087094F8BC030128EC
:104CB00008D084F8BC23206805F036FC84F8BC5387
:104CC000002070BD022070BD70B5044601F00F00D9
:104CD0006268904201D9012070BD0B0601F00F01FE
:104CE000C1EBC10104EB81014FF001024FF000055F
:104CF00003D581F83D203C3103E081F8FD5101F5F9
:104D0000FE718D70087094F8BC03012808D084F8F7
:104D1000BC23206805F002FE84F8BC53002070BD5F
:104D2000022070BD01F00F01C1EBC10100EB810059
:104D3000D0F8140270472DE9F04104460F0601F047
:104D40000F00C0EBC00104EB81014FF001064FF0F2
:104D5000000503D581F83D603C3103E081F8FD5149
:104D600001F5FE7108708A60CB704A7802B1C88084
:104D7000022B00D10D7194F8BC03012809D084F8EE
:104D8000BC63206805F02EFB284684F8BC53BDE8C0
:104D9000F0810220FBE770B50D4601F00F04C4EB73
:104DA000C40100EB8101C1F81032C1F808220023D0
:104DB000C1F8143281F8FD3181F8FC41036901F535
:104DC000FE71012B00D10A612A07027C006803D022
:104DD00005F0FCFD002070BD05F0E8FCFAE770B5B9
:104DE00004460D4601F00F006168884201D9012098
:104DF00070BD29064FF000064FF0010207D5C0EB49
:104E0000C00104EB810181F83D203C3107E0C5EB96
:104E1000C50104EB810181F8FD6101F5FE718A7025
:104E2000087094F8BC03012807D084F8BC232068DC
:104E300005F0A0FD280702D007E0022070BD217C0C
:104E400004F57172206805F03DFD84F8BC63002014
:104E500070BD70B50D4601F00F04C4EBC40100EB4A
:104E600081010B658A6400234B65012381F83D3085
:104E700001F83C4F0369012B00D10A612A07027C2B
:104E8000006803D005F0A2FD002070BD05F08EFC87
:104E9000FAE700002DE9F84F05680446284605F0BA
:104EA000BCFE00287ED1206805F0E3FE002879D002
:104EB000206805F0DEFE800704D52068416901F016
:104EC00002014161206805F0D4FEC10604F571704D
:104ED000009034D52068816921F0100181612F6A2A
:104EE00007F00F00C0EBC00004EB8006C7F343409F
:104EF00006F5FE76022802D0062811D01AE047F601
:104F0000F070074216D0C7F30A1217462846F16818
:104F100005F0B3FEF0683844F060B069384408E04A
:104F200008222846009905F0A8FEB069C7F30A11C7
:104F30000844B0612068816941F0100181612068F6
:104F400005F097FE00034FF0010B5AD500262068AC
:104F500005F06EFE8046DFF89CA34FE05FEAC87064
:104F600049D0F1B2206805F07CFE0746C00707D0A3
:104F700005EB4611C1F808BB3146204603F03CFB67
:104F8000380722D505EB46110820C1F8080B206828
:104F9000D0F8409000EB4610D0F8081BD14507D957
:104FA000090400E0A4E103D54FF40041C0F8081B58
:104FB000204600F0AFFAD14507D92069012804D175
:104FC00020680121009A05F07DFCF80604D505EB68
:104FD00046111020C1F8080BB80604D505EB4611A0
:104FE0002020C1F8080BB80405D505EB46114FF495
:104FF0000050C1F8080B4FEA5808761CB8F1000FB2
:10500000ACD1206805F035FE40034FF000095BD5B8
:10501000206805F006FE8046002652E05FEAC87070
:105020004CD0F1B2206805F00AFE0746C00723D035
:1050300006F00F020BFA02F0D5F834288243C5F8C7
:10504000342805EB4610C0F808B9206901280FD1B3
:10505000C6EBC60004EB8000D0E911211144816445
:1050600036B9206D20B920680121009A05F02AFC8C
:10507000F1B22046FFF7D8FD380704D505EB4611FD
:105080000820C1F80809F80604D505EB46111020E0
:10509000C1F80809780604D505EB46114020C1F88F
:1050A0000809B80704D505EB46110220C1F8080924
:1050B000380603D53146204603F004FB4FEA580872
:1050C000761CB8F1000FA9D1206805F0D2FD0028A8
:1050D00011DAD5F8040820F00100C5F8040894F8A6
:1050E000F403012839D0204600F0F8F9206841691E
:1050F00001F000414161206805F0BBFD00050BD5C2
:10510000D5F80808C00702D0204600F051FA206800
:10511000416901F400614161206805F0AAFD0001C8
:105120000AD52068416901F00061416194F8F403F7
:10513000D0B1204600F03CFA206805F09AFDC0048A
:1051400075D5D5F8040820F00100C5F80408102131
:10515000206805F043FD002134E084F8F493002139
:105160002046FFF707FDC1E784F8F4B32068406DDF
:105170000121C0F38300C4F8F8032046FFF7FAFCCE
:10518000DAE705EB41104FF67F32C0F80829D0F876
:10519000003923F40013C0F80039D0F8003943F087
:1051A0000063C0F80039C0F8082BD0F8002B22F4B7
:1051B0000012C0F8002BD0F8002B42F00062C0F8BB
:1051C000002B491C60688842DBD8D5F81C0840F0E9
:1051D0000110C5F81C08206B60B1D5F8840840F0B8
:1051E0000B00C5F88408D5F8440840F00B00C5F85A
:1051F00044080CE0D5F8140842F22B010843C5F826
:105200001408D5F8100840F00B00C5F81008D5F8C0
:10521000000820F4FE60C5F80008217C2068009A90
:1052200005F050FB2068416901F48051416120681C
:1052300005F01FFD800415D5206805F013F92068DE
:1052400005F0DEFCE06000F09DFA0146227B20685C
:1052500005F04AFD204600F02BF92068416901F471
:1052600000514161206805F004FD000707D5204684
:1052700000F038F92068416901F0080141612068B7
:1052800005F0F7FCC00208D50021204600F034F8F4
:105290002068416901F480114161206805F0E9FC52
:1052A000800208D50021204600F02AF820684169D4
:1052B00001F400114161206805F0DBFC400007D5D6
:1052C0002046FFF7ADFC2068416901F08041416153
:1052D000206805F0CEFC40070AD5206845686807BD
:1052E00002D52046FFF7C6FC20684168294341608B
:1052F000BDE8F88F0A30544FD0F8040404F092BD92
:10530000D0F8040404F09EBD2DE9F0418AB00400F9
:1053100005D094F8BD032668002520B108E00120DF
:105320000AB0BDE8F08184F8BC53204600F07EF856
:10533000032084F8BD03F06BC00500D4256120680C
:1053400005F02EFA04F11001282288466846FAF783
:10535000FCFF94E80F0005F093F80227C8BB00217A
:10536000206805F099FC002101260EE0C1EBC10088
:1053700004EB800080F83D6000F83C1FC180C570E0
:105380008560C560491CC9B2456160688842EDD836
:10539000002111E0C1EBC10004EB800080F8FD5159
:1053A00080F8FC1180F8FF51C0F80452C0F8085290
:1053B000491CC9B2C0F8105260688842EAD8282255
:1053C00041466846FAF7C1FF94E80F0005F030F94E
:1053D00010B184F8BD73A2E784F8385084F8BD6337
:1053E000606A012802D12046FFF7B0FB206805F073
:1053F00011F9002094E7000010B50068B0F1A04F4B
:105400000ED10848016821F0800101604FF4C051BD
:105410000548FEF7F5FEBDE810404320FFF746BB08
:1054200010BD0000343802400000024010B586B0C4
:10543000044614216846FAF7A1FF2068B0F1A04F96
:105440002FD119480021026842F001020260006871
:1054500000F0010005904FF4C05000900220CDE90B
:105460000101032003900A20049069460F48FEF7CB
:105470004FFF0D48001D016841F0800101600A489E
:105480001430016841F4804101600068002200F49A
:105490008040059005214320FFF726FB4320FFF7BE
:1054A00016FB06B010BD000030380240000002407C
:1054B00070B50446C068012570B1022801D0FCF720
:1054C0003DFD2946D4F8040404F028FDD4F8040472
:1054D000BDE8704004F0DBBC0025F2E7D0F804041E
:1054E00004F002BDD0F8040404F008BD10B5044671
:1054F00090F8BC0301280BD0012084F8BC0384F889
:105500003810206805F0DFFB002084F8BC0310BDD4
:10551000022010BDD0F8042400F57171104604F08B
:1055200009BD10B50446006894F8BC13012906D0E3
:10553000012184F8BC13A16A012902D008E00220ED
:1055400010BDA169012903D0816B41F480318163D1
:10555000206805F02DFB206805F04EF8002084F847
:10556000BC0310BD70B50446056890F8BC03012863
:1055700010D0012084F8BC03284605F011F92068FA
:1055800005F048F81021206805F028FBA06A0128E2
:1055900002D008E0022070BDA069012803D0A86BEA
:1055A00020F48030A863002084F8BC0370BD0000A4
:1055B00010B50446D0F8040404F007FD2068D0F8C4
:1055C000001E41F00101C0F8001E206A002804D02E
:1055D0000248016841F00601016010BD10ED00E0D5
:1055E0002DE9F84317484FF00008026842F0805256
:1055F00002600068144F00F080500090C7F84480AB
:10560000FEF766FF04464FF47A75104E04E0FEF78D
:105610005FFF001BA8420DD870688003F7D4C7F85D
:105620004080FEF755FF044607E0FEF751FF001BE0
:10563000A84202D90320BDE8F8837068C003F4D4FF
:105640000020F8E74038024000000E4200700040A1
:105650002DE9F0470D46040065D0DFF81491D9F824
:105660000000EFB200F00F00A84207D289F80070E6
:10567000D9F8000000F00F00A84254D120683D4E38
:10568000810712D5400703D5306840F4E050306000
:105690002078000703D5306840F4604030603068FF
:1056A000A16820F0F000084330602078C0072DD0BA
:1056B000304960680839012812D0022813D0032825
:1056C00011D00968890700292DDA316821F003011A
:1056D00001433160FEF7FCFE804641F2883A0EE05D
:1056E00009688903EFE709688901ECE7FEF7F0FE36
:1056F000A0EB0801514502D90320BDE8F0873068CE
:10570000616800F00C00B0EB810FEFD1D9F8001008
:10571000484601F00F01A94207D90770006800F060
:105720000F00A84201D00120E7E72078400705D507
:105730003068E16820F4E0500843306020780007CA
:1057400006D53068216920F4604040EAC10030602D
:1057500000F03EF83168084AC1F30311515CC840BB
:105760000649086006480068FFF766F90020C4E7AC
:10577000003C024008380240D005030848000020E1
:10578000D002002001480068704700004800002057
:105790000448054900680968044AC1F38221515C44
:1057A000C84070474800002008380240E005030860
:1057B0000448054900680968044AC1F34231515C54
:1057C000C84070474800002008380240E005030840
:1057D000224810B5006810F00C01214815D0431084
:1057E000042911D01D4C241F08290FD00C290CD1DD
:1057F000216801F03F022168490221D52068C0F3E9
:105800008810A0FB030120E0184610BD216801F0BC
:105810003F022168490205D52068C0F38810A0FB2B
:10582000030104E02168C1F38811A1FB00010023FA
:10583000FAF75AFD2168C1F30141491C49000AE009
:105840002168C1F38811A1FB00010023FAF74CFD88
:105850002168C1F30271B0FBF1F010BD08380240BD
:105860000024F40070B5040009D0606A002540B13E
:1058700025616561A56294F8510040B10CE00120FA
:1058800070BD6068B0F5827FF4D0E561F2E784F81E
:105890005050204600F044F8022084F8510020685F
:1058A000016821F040010160A088218900F4827024
:1058B00001F404410843A18901F400610843217CFB
:1058C00001F002010843217D01F001010843218B11
:1058D00001F400710843217F01F03801084394F876
:1058E000201001F080010843218D01F4005108438C
:1058F00021680860A069042101EA104094F824108E
:1059000001F010010843216848602068C16921F452
:105910000061C1616565012084F85100002070BDFF
:10592000F0B587B0044614216846FAF727FD314ADE
:1059300020680023304902240325052690421AD10D
:105940002D481430026842F480520260006800F46E
:1059500080500590086840F001000860086802AABD
:1059600000F001000590E020CDE9000482E8680025
:10597000694622481CE0204A214F1032B8421BD110
:10598000106840F480401060106800F4804005907A
:10599000086840F0020008600868694600F00200EC
:1059A0000590B800CDE9000402AF164887E868000A
:1059B000FEF7AEFC07B0F0BD134EB042FAD110684E
:1059C00040F400401060106800F400400590086842
:1059D00040F0040008600868029300F0040005909D
:1059E0004FF4E050CDE900040620CDE903506946AC
:1059F0000648DDE700300140303802400000024038
:105A00000038004000040240003C00400008024012
:105A10002DE9F84F044690F8500001250A9E1F46D4
:105A200092468B464FF0000801280ED0012084F8E2
:105A30005000FEF74DFD814694F851006168012841
:105A40000CD0B1F5827F07D102E00220BDE8F88FCB
:105A5000A16809B9042801D00220B6E0BBF1000F0B
:105A600027D0BAF1000F24D01FB394F851000428B6
:105A700002D0052084F8510000206065C4F838A0E9
:105A8000E787A787C4F830B0E786A78620646064FC
:105A900020680168490603D4016841F040010160B3
:105AA000E068B0F5006F606805D0E8B3012F43D01F
:105AB00079E0012089E008B1012F34D1206B216801
:105AC0000088C860206B801C2063E08E401EE0864A
:105AD00029E02068816889070DD5E18E59B1012D33
